:020000040800F2
:10000000F8070020BD010008512A00080D2600084D
:100010004D2A0008B10400082D330008000000003C
:10002000000000000000000000000000F5310008A2
:10003000B504000800000000F1310008F9310008A3
:10004000D7010008D7010008D7010008D701000830
:10005000D7010008D7010008D7010008D701000820
:10006000D7010008D7010008B9040008D70100082B
:10007000D7010008D7010008D7010008D701000800
:10008000D7010008D7010008A1030008D701000824
:10009000D7010008D7010008D7010008D7010008E0
:1000A000D701000809330008D7010008D70100086C
:1000B00015330008D701000821330008D7010008D4
:1000C000D7010008D7010008D7010008D7010008B0
:1000D000D7010008D7010008D7010008D7010008A0
:1000E000D7010008D7010008D701000800F002F886
:1000F00000F055F814A696E8000CB244B344DA4573
:1001000001D100F04CF8BAE80F000FA696E83000D5
:10011000A5EB040504EB0607AAEB0704A7F101070A
:100120004FEA15154FEA3414A4F10104AC4201D38F
:1001300000F035F813F0010F18BFFB1A43F001036C
:1001400000F001F8DBE71847944F0000B44F0000BF
:10015000103A24BF78C878C1FAD8520724BF30C8F3
:1001600030C144BF04680C60704700007047000055
:100170000023002400250026103A28BF78C1FBD8B0
:10018000520728BF30C148BF0B607047642900F098
:100190003580002070471FB51FBD10B510BD00F0A1
:1001A000C5F81146FFF7F7FF03F016F900F0E3F882
:1001B00003B4FFF7F2FF03BC00F0EAF809488047F8
:1001C00009480047FEE7FEE7FEE7FEE7FEE7FEE739
:1001D000FEE7FEE7FEE7FEE704480549054A064B51
:1001E0007047000005330008ED000008F80100200A
:1001F000F8070020F8030020F80300202DE9F04163
:100200000646002410687529314616A510D0AFF3B4
:100210000080002802DA404213A507E031688A070F
:1002200001D512A502E0490704D511A5012401E07A
:10023000AFF3008000210A2206F1240709E0B0FB99
:10024000F2FCB0FBF2F302FB1C003030785418468D
:10025000491C0028F3D123462A463046BDE8F04128
:1002600000F00BB8000000002D0000002B00000083
:10027000200000007047704770472DE9F0470D4699
:1002800099469246044600F124080168880604D580
:10029000E06921F01001216000E00120A84201DDA9
:1002A000471B00E00027A1697A1902EB0900081A30
:1002B000A0612078C00602D42046AFF3008000265B
:1002C00008E0D4E901211AF806009047206A401C92
:1002D000761C20624E45F4DB2078C0060AD5204605
:1002E000AFF3008006E0D4E9012130209047206A76
:1002F000401C2062381EA7F10107F4DC07E0D4E9B6
:10030000012118F805009047206A401C2062281E31
:10031000A5F10105F3DC2046AFF30080207800064C
:1003200002D50220BDE8F0870120FBE7754600F00A
:100330002BF8AE4605006946534620F00700854677
:1003400018B020B5FFF748FFBDE820404FF0000689
:100350004FF000074FF000084FF0000BAC46ACE840
:10036000C009ACE8C009ACE8C009ACE8C00921F09C
:1003700007018D46704710B50446AFF30080204654
:10038000BDE81040FFF714BF004870471800002078
:1003900001491820ABBEFEE72600020070470000AE
:1003A00040F2A400C2F2000000F0F4B9B0B5044677
:1003B00000688168C90709D0816821F00101816066
:1003C00000F0E8FC21688968C90701D10020B0BDB0
:1003D000054602E08068C007F8D000F0DBFC411B56
:1003E00020680329F6D38168C907F3D0A06A40F0DA
:1003F0001000A062E06A40F00100E0620120B0BDA0
:10040000B0B582B004460020019021688A68D20706
:100410004BD1886840F00100886040F21400C2F2BD
:10042000000000684DF68361C4F21B31A0FB01019E
:10043000880C01900198A0B10198013801900198B1
:1004400078B1019801380190019850B101980138B4
:100450000190019828B10198013801900198002875
:10046000EAD100F097FC21688968C9071CD10546CC
:1004700003E000BF8068C00716D100F08BFC411B71
:1004800020680329F6D38168C907F3D1A06A40F038
:100490001000A062E06A40F00100E062002084F8F1
:1004A0002400012002B0B0BD002002B0B0BD0000A9
:1004B000FEE7000070470000102000F051BB000074
:1004C00041F20004C4F20104EFF3108072B600BFE1
:1004D00020460421002200F057FC4FF47A7000F00F
:1004E00023FB20460421012200F04EFCF0E700002F
:1004F00070B582B004460020019094F824000128D1
:1005000002D1022002B070BD012084F824002046F0
:10051000FFF74CFF2046FFF773FF28B1002184F856
:10052000241002B070BD00BF0646A06A41F202115D
:1005300088430230A06240F21400C2F20000056855
:10054000022000F0E3FCB5FBF0F0400001900198C0
:10055000A8B100BF019801380190019878B10198C5
:1005600001380190019850B101980138019001982B
:1005700028B101980138019001980028EAD120683B
:10058000816841F00801816000F004FC21688A68FC
:1005900012070FD4886840F00400886000F0FAFB6E
:1005A00021688968490715D401216FF0030230469C
:1005B00022E000BF054602E088680007EAD500F0A7
:1005C000E9FB401B21680B28F6D388680007F3D5A8
:1005D0000EE000BF054602E080684007E4D500F069
:1005E000D9FB411B20680B29F6D381684907F3D555
:1005F000012010216FF01202A36A1A401143A16278
:10060000002184F8241002B070BD00007047000083
:1006100010B581B00022009290F82420012A03D165
:100620000221084601B010BD4B680122062B80F85C
:10063000242033D8D0F800C003EB83035A1F1F23B4
:10064000DCF834E003FA02F40B682EEA040403FA3F
:1006500002F22243CCF83420092B03EB430249D9A0
:10066000DCF80CE01E3A0724896894402EEA040462
:10067000914023F001022143102ACCF80C1043D101
:1006800042F20841C4F20101A1F10802944543D0AD
:10069000816A41F020018162012136E0D0F800C07A
:1006A0000C2B03EB830213D8233A1F23DCF830E032
:1006B00003FA02F40B682EEA040403FA02F222435E
:1006C000CCF83020092B03EB4302C9D812E000BF5D
:1006D000413A1F23DCF82CE003FA02F40B682EEAFF
:1006E000040403FA02F22243CCF82C20092B03EB7A
:1006F0004302B5D8DCF81030072489689440A3433E
:1007000091401943CCF810100021002280F82420D9
:10071000084601B010BD00BF0A681202F4D40A688E
:10072000102B42F400020A60EED140F21401C2F232
:10073000000109684DF68362C4F21B32A1FB02126C
:10074000910C01EB81014900009100990029DBD057
:1007500000990139009100990029D5D000990139FB
:10076000009100990029CFD000990139009100999A
:100770000029C9D0009901390091009900294FF052
:100780000001E5D1C1E70000704700000068C06CBF
:100790007047000070B50446006805684668B106F9
:1007A00027D515F0020124D0A16AC90603D4A16A95
:1007B00041F40071A162816801F46021B1F5602FFC
:1007C00010D1217B71B9416821F020014160A06AFC
:1007D00020F48070A062A06AC00403D4A06A40F034
:1007E0000100A0622046FFF7CFFF20686FF01201E2
:1007F0000160310633D515F0040130D0A16AC90675
:1008000003D4A16A41F40051A162816801F4E0417E
:10081000B1F5E04F10D1416821F080014160A06A3C
:1008200020F48050A062A06AC00511D4A06A40F0F4
:100830000100A0620CE000BF4168490508D481684E
:1008400001F46021B1F5602F02D1217B0029E2D0B3
:100850002046FFF7DBFE20686FF00C010160700698
:100860000ED515F0010008BF70BDA06A40F48030BD
:10087000A062204600F0B2F820686FF0010101602C
:1008800070BD0000002804BF01207047B0B50446C9
:10089000806A28B121688868C0070CD115E000BFC4
:1008A0000020E06284F82400204600F099F82168D6
:1008B0008868C00709D0886820F00100886000F0CF
:1008C00069FA21688A68D20726D1A06AC0063AD49C
:1008D000A06A41F2021290430230A062E069D4E9BA
:1008E000013240EA030C531EB3FA83F35D09134649
:1008F000B2F5807F18BF2B02207D257B01284CEAB2
:1009000045002CD135B3A56A45F02005A562E56AFE
:1009100045F00105E56222E0054602E08868C0076F
:10092000D3D000F037FA401B21680328F6D388683B
:10093000C007F3D0A06A40F01000A062E06A40F067
:100940000100E062A06AA06A40F01000A0620120ED
:10095000B0BD00BFA56903EB4533A3F5C0534D6897
:10096000B2F5807F25F4694543EA05034B608B6847
:100970004FF2FD75CFF6E17503EA050343EA000384
:100980008B6001D0012A07D122690023CFF6F073D2
:1009900003EB025201E000BF0022CB6A23F4700394
:1009A0001A43CA62896840F6FE62CFF61F72114090
:1009B000814207D10020E062A16A012262F30101B5
:1009C000A162B0BDA06A40F0100020F00200A06259
:1009D000E06A40F00100E0620120B0BD7047000015
:1009E00080B586B0014640F60040C4F201000968B7
:1009F00000F5C05291424FF00001CDE90411CDE95C
:100A0000021101D006B080BD41F21801C4F202010A
:100A10000A6842F400720A600A6802F400720192E5
:100A2000019A0A6842F008020A60096801F00801A8
:100A300001910199012102910321039102A900F082
:100A40009BF812200021002200F024FA122000F06E
:100A50000FFA06B080BD000010B5044690F82400DF
:100A6000012804BF022010BD012084F82400204684
:100A7000FFF7C6FC20B1002084F82400012010BD3F
:100A800042F2044C2068A16AC4F2010C40F2013227
:100A900091430CF57F7201F580719042A16229D0DB
:100AA000A16A21F48011A1624168490504D5A16AB7
:100AB000012363F30D31A162A16A0023C9044FF041
:100AC000000144BFE16A21F00601E1626FF002011A
:100AD00084F824300160816801F46021B1F5602F51
:100AE0001BD1904214D0816841F4A00181600020A4
:100AF00010BD00BFDCF8001011F4702FD0D0A16A37
:100B000041F48011A162DCF800104905CFD4D3E78D
:100B1000DCF8001011F4702FE5D0816841F48011E9
:100B20008160002010BD0000B0B5044600F032F92D
:100B3000054640F20C00C2F200000078611C18BFAC
:100B4000044400BF00F026F9401BA042FAD3B0BD18
:100B500040F27800C2F200000121417070470000AD
:100B600040F21441C4F201010A68024214BF086055
:100B70007047FFF7EDBF00002DE9F04F82B00E681F
:100B8000002E00F0FD8041F20042C4F20102042375
:100B900040F2004E904208BF03234FF6FF7CC4F2A0
:100BA000010E009300240123C1F2100C4FF0000A43
:100BB0004FF000094BE000BF41F20002C4F2010215
:100BC000009F904208BF022704F00C030F229A40B6
:100BD0002BEA020207FA03F34FEA9A051A4346F892
:100BE00025204E6840F20C45F202DEF8082054BF82
:100BF00022EA080242EA0802C4F20105CEF80820FF
:100C00002A68B30254BF22EA080242EA08022A60B4
:100C1000B303DEF8042054BF22EA080242EA0802C5
:100C2000F303CEF80420DEF800204FF0010354BF98
:100C300022EA080242EA0802CEF800200E680AF111
:100C4000010A36FA0AF204F1040400F0998003FA6A
:100C50000AFB16EA0B08F1D04E68664512DC122E2C
:100C600056D8DFE806F0350B4D49555555555555C5
:100C70005555555555555545510000BFD1F80C9067
:100C800046E000BF4FF6FF72C1F2210296420FDC30
:100C90000022C1F2110296421AD00022C1F21202C1
:100CA000964215D00022C1F22102964210D02FE0C8
:100CB0000022C1F2220296420AD00022C1F2310281
:100CC000964205D00022C1F23202964220D100BFE6
:100CD0008A684AB1012A14BFC0F814B0C0F810B035
:100CE0004FF0080914E000BF4FF0040910E000BF06
:100CF000CA6802F104090BE04FF0000908E000BFE8
:100D0000CA6802F1080903E0CA6802F10C0900BFD1
:100D100002462646B8F5807F24BF0432203E17687D
:100D20000F25B54027EA050509FA06F63543156093
:100D3000CA79D2067FF582AF41F21803C4F20203EA
:100D40001A68AEF57E7642F001021A601A6802F067
:100D500001020192019A2AF0030256F802B040F60D
:100D60000002C4F20102904208D040F60042C4F2F0
:100D7000010290427FF420AF012725E7002723E7F7
:100D800002B0BDE8F08F0000002A08BF090401612D
:100D90007047000040F2F410C2F200000068704793
:100DA00040F20C0040F2F411C2F20000C2F2000165
:100DB00000780A68104408607047000080B542F26D
:100DC0000000C4F20200016841F01001016003203C
:100DD00000F08CF80F2000F005F800F027F8002054
:100DE00080BD000070B540F20C06C2F2000640F271
:100DF00014013278C2F200014FF47A730968B3FB30
:100E0000F2F20446B1FBF2F1084600F099FC0F2C17
:100E10004FF0010508D838B94FF0FF3021460022C5
:100E2000002500F037F87460284670BD82B041F2AA
:100E30001800C4F202000168022241F001010160C1
:100E4000016801F0010101910199416841F080516F
:100E50004160406800F08050009000980420C4F287
:100E60000100016862F31A61016002B0704700007E
:100E7000002848BF704700F01F01012202FA01F16B
:100E80001C2202EAD0004EF20012CEF20002815083
:100E90007047000010B54EF60C5CCEF2000CDCF88A
:100EA0000030C3F3022E8EF00704042C28BF042464
:100EB000BEF103034FF0FF3E0EFA04F438BF0023E7
:100EC000A14399400EFA03F39A43114300F00F0235
:100ED00000F160430901043A03F5644362440028C9
:100EE00048BF02F10C03197010BD00004EF60C5102
:100EF000CEF200010A684FF6FF031A4060F30A229F
:100F000042F0806040F0FD7008607047012821D0F9
:100F100002280DD0102808D141F20401C4F20201C8
:100F20000A6851F8040CC00134D40020704700BF97
:100F300080B500F0C7F941F20401C4F2020109686A
:100F40000222C1F3813102EB4101B0FBF1F0BDE8B7
:100F50008040704741F20400C4F20200C16940F2CF
:100F600002320A40B2F5817F04BF4FF4004070475F
:100F700001F44071B1F5407F18D0B1F5007F1CBF7E
:100F800000207047006A49F64041800701EAE0709E
:100F9000704700BFC2F3834015A3185CD2030DD481
:100FA00040F60012C0F23D02504313E050F8040C2A
:100FB0004FF22441800301EAE07070470A6810A3F1
:100FC000C2F340429A5C41F20023C0F27A03B3FBC1
:100FD000F2F250430968490248BF70474AF6AB2114
:100FE0004000CAF6AA21A0FB01014808704700BFD3
:100FF00002030405060708090A0B0C0D0E0F10105A
:10100000010200002DE9F04182B00446007841F26F
:101010001C06C007C4F202064AD030685FEAC00866
:1010200008D4306840F080503060306800F0805064
:101030000190019847F20007C4F200073868C00524
:1010400012D4386840F480703860FFF7A3FE05467C
:101050003868C00508D4FFF79DFE401B6428F7D907
:10106000032002B0BDE8F081706810F4407012D027
:10107000616801F4407188420DD0706840F24042CE
:10108000C4F24222012320F4407113600023C00700
:101090001360716026D17068616820F44070084365
:1010A000B8F1000F706003D4306820F080503060D9
:1010B0002068810707D556F8181CA26821F4404122
:1010C000114346F8181CC00607D556F8180CE168FD
:1010D00020F48000084346F8180C002002B0BDE858
:1010E000F08100BFFFF756FE054641F2883700BF8A
:1010F00070688007CFD4FFF74DFE401BB8424FF019
:101100000300F5D9EAE70000002804BF012070477A
:101110002DE9F04381B042F20008C4F2020804460F
:10112000D8F800000D4600F0070088420CD2D8F82D
:10113000000020F007002843C8F80000D8F800009D
:1011400000F00700A8426CD1206841F20409810731
:10115000C4F2020917D5410705D5D9F8001041F4AA
:10116000E061C9F80010010705D5D9F8001041F475
:101170006051C9F80010D9F80010A26821F0F00100
:101180001143C9F80010C00742D1D8F8000000F0A0
:101190000700A8420CD9D8F8000020F00700284327
:1011A000C8F80000D8F8000000F00700A84238D1C5
:1011B0002068410707D5D9F80010E26821F4E06102
:1011C0001143C9F80010000708D5D9F800002169BB
:1011D00020F4605040EAC100C9F80000D9F80020AE
:1011E00002F00C00082841F20020C0F27A004DD134
:1011F00045F2B403C2F38341C0F60003595CD20345
:1012000038D440F60010C0F23D0048433EE000BF35
:10121000606859F8041C022808D0012826D18903E7
:1012200006D4012001B0BDE8F08300BF8901F8D5E4
:10123000D9F8001021F003010843C9F80000FFF7B6
:10124000A9FD064641F28837D9F80000616800F030
:101250000C00B0EB810F98D0FFF79CFD801BB842CB
:10126000F2D9032001B0BDE8F08300BF8907D8D5CB
:10127000DEE700BFD9F8002044F6C223C2F34042A3
:10128000C0F600039A5C4843B0FBF2F0D9F80010B6
:1012900044F6AA22C1F30311C0F60002515C40F2E9
:1012A000140220FA01F140F21000C2F200000068BE
:1012B000C2F200021160FFF795FD002001B0BDE809
:1012C000F083000040F2140041F20401C2F2000079
:1012D000C4F202010068096844F6BA22C1F3C221CF
:1012E000C0F60002515CC84070470000B0B586B03F
:1012F0000220039003200590002004904FF480709A
:1013000041F218050290C4F2020528680C4640F02C
:1013100004002860286802A900F0040001900198E8
:1013200040F60000C4F20100FFF726FC55F8140C4B
:1013300020F0E060204345F8140C06B0B0BD00007A
:10134000002804BF012070472DE9F04182B0044617
:10135000007841F20006C007C4F202060CD07068A3
:1013600000F00C00042840F081803068800303D531
:101370006068002800F04681207880071BD57068DF
:1013800010F00C0F09D0706800F00C00082840F035
:1013900087807068C00300F183803068800703D5C0
:1013A0002069012840F02E813068616920F0F80042
:1013B00040EAC10030602078000713D4207840074D
:1013C0002CD4E569002D00F01881706800F00C0045
:1013D000082840F0A780012D40F00481012002B0D0
:1013E000BDE8F081A069002800F084800020C4F2EC
:1013F00042200121C0F88014FFF7CCFC054600BF55
:10140000706A800700F1B280FFF7C4FC401B02281D
:10141000F6D9032002B0BDE8F08100BFF0695FEAB1
:10142000C00808D4F06940F08050F061F06900F025
:1014300080500090009847F20007C4F20007386817
:10144000C00549D4386840F480703860FFF7A2FCCA
:10145000054600BF3868C0053ED4FFF79BFC401B23
:101460006428F7D9032002B0BDE8F081706800F06D
:101470000C00082803D17068C0033FF576AF61689F
:101480003068002900F00C81B1F5A02F00F0008138
:10149000B1F5803F40F01A8140F480301CE100BF7C
:1014A0002069002840F20000C4F2422000F0888049
:1014B00001210160FFF76EFC054600BF3068800720
:1014C0003FF572AFFFF766FC401B0228F6D90320F8
:1014D00002B0BDE8F08100BFE168306A002900F089
:1014E0009D80052900F09280012940F0AF8040F0F6
:1014F0000100B1E00020C4F242200021C0F88014B5
:10150000FFF748FC054600BF706A80077FF556AFBD
:10151000FFF740FC401B0228F6D9032002B0BDE8CB
:10152000F08100BF0027C4F2422700203866FFF791
:1015300031FC022D05460DD13068800140F1DE807E
:10154000FFF728FC401B02284FF00300F4D902B03B
:10155000BDE8F081306880014FD5FFF71BFC401BD0
:1015600002284FF00300F5D9F1E700BF40F2140064
:10157000C2F20000006844F6D351C1F26201A0FB40
:101580000101480A019000BF00BF0198411E0028D8
:1015900001913FF413AF00BF0198411E0028019153
:1015A0003FF40CAF00BF0198411E002801913FF4A9
:1015B00005AF00BF0198411E00280191E4D1FDE66E
:1015C00000210160FFF7E6FB054600BF3068800799
:1015D0007FF5F1AEFFF7DEFB401B02284FF0030062
:1015E000F4D9B4E77068216A00F480328A4209D1E4
:1015F000616A00F47010884204D1002002B0BDE896
:10160000F08100BF012002B0BDE8F08140F004008D
:101610003062306A40F001001EE000BF20F001009F
:101620003062306A20F004003062FFF7B3FB0546F9
:1016300041F28837306A800720D5FFF7ABFB401BAB
:10164000B8424FF00300F5D981E700BF20F0010058
:101650003062306A20F004003062FFF79BFB0546E1
:1016600041F28837306A800708D4FFF793FB401BAC
:10167000B842F7D9032002B0BDE8F081B8F1000FFD
:101680003FF59FAEF06920F08050F06199E600BF11
:1016900040F480203060306840F480301CE000BFAF
:1016A00020F480303060306820F480203060FFF714
:1016B00071FB0546306880037FF55EAEFFF76AFB7D
:1016C000401B64284FF00300F4D940E720F4803039
:1016D0003060306820F480203060FFF75BFB054607
:1016E000306880033FF548AEFFF754FB401B642889
:1016F000F6D9032002B0BDE8F08100BF206AB0F542
:10170000803F05D17168A26821F4003111437160F6
:101710007168626A21F474111143084370600120FA
:101720003866FFF737FB0446306880013FF565AF48
:10173000FFF730FB001B02284FF00300F4D906E747
:10174000411E0020B0EB116F1CBF012070474EF20C
:101750001002CEF2000251604EF62351CEF200018B
:10176000F0230B70072190601160704770470000F4
:101770007047000090F83C20012A4FF0020236D05A
:1017800010B580F83D200268D2F804E0D2F808C015
:101790000C682EF07003234340F2FF74C4F200047F
:1017A000A24253600ADCB2F1804F13D040F20043F2
:1017B000C4F200039A420DD011E000BF42F600438C
:1017C000C4F201039A4205D040F60003C4F20003BC
:1017D0009A4204D149682CF0800319439160012199
:1017E000002280F83D1080F83C20BDE810401046F3
:1017F0007047000090F83D0070470000002804BFCB
:101800000120704710B590F83D1031B9002180F8E3
:101810003C10044600F070F82046022180F83D108C
:10182000016840F2FF740B68C4F2000442F6004CF9
:10183000A142C4F2010C15DCB1F1804F1AD040F284
:101840000042C4F20002914214D0A14218DCB1F16E
:10185000804F1DD040F20042C4F20002914217D0E6
:101860001AE000BF614505D040F60002C4F2000254
:101870009142EAD1826823F070031343A142E6DD6E
:10188000614505D040F60002C4F20002914203D146
:10189000026923F440731343846923F08002D0F873
:1018A00004E0C368224361450A60CB62C1F828E0C6
:1018B00002D14269CCF8302001224A610B69DB0772
:1018C00003D00B6923F001030B6180F8462080F8F8
:1018D0003E2080F83F2080F8402080F8412080F8AA
:1018E000422080F8432080F8442080F8452080F88A
:1018F0003D20002010BD000080B584B00068B0F12C
:10190000804F37D040F20041C4F20001884221D01C
:1019100042F60041C4F20101884228D141F21C0084
:10192000C4F2020050F8041C002241F4006140F8A7
:10193000041C50F8040C002100F40060039003988C
:101940001920FFF7A7FA192004B0BDE88040FFF77F
:101950008FBA00BF41F21C00C4F20200016841F0DE
:1019600002010160006800F002000190019804B0DB
:1019700080BD00BF41F21C00C4F2020001680022D9
:1019800041F0010101600068002100F001000290B7
:1019900002981C20FFF77EFA1C2004B0BDE88040AE
:1019A000FFF766BA90F83D1001291CBF012070476F
:1019B000022180F83D10006840F2FF71C4F200017E
:1019C000884209DCB0F1804F12D040F20041C4F2ED
:1019D000000188420CD012E042F60041C4F201013D
:1019E000884205D040F60001C4F20001884206D1C9
:1019F000816801F00701062904BF002070470168D3
:101A000041F00101016000207047000090F83D1096
:101A100001291CBF01207047022180F83D10006899
:101A200040F2FF72C168C4F20002904241F001012D
:101A3000C16009DCB0F1804F12D040F20041C4F225
:101A4000000188420CD012E042F60041C4F20101CC
:101A5000884205D040F60001C4F20001884206D158
:101A6000816801F00701062904BF00207047016862
:101A700041F001010160002070470000014600684C
:101A800041F21113026A1A4204D00122002081F8A7
:101A90003D207047026A40F244431A42F5D1026881
:101AA00022F0010202600122002081F83D207047EF
:101AB00090F83C20012A4FF002026CD080B580F8EB
:101AC0003D20D0F800C04FF67772DCF8083023EAEA
:101AD0000202CCF808200B684F2B29DC1F2B45DDB8
:101AE000202B46D0302B44D0402B40F0AF80D1F893
:101AF00004E0C968DCF82030DCF8202022F0010284
:101B0000CCF82020DCF8182022F0F00242EA011183
:101B100023F00A0242EA0E02CCF81810CCF820207A
:101B2000DCF8081041F0470121F0300128E000BF47
:101B30006F2B33DDB3F5005F74D0B3F5805F21D038
:101B4000702B40F08380D1E901E3C968DCF80820FC
:101B500043EA0E0322F47F4243EA01211143CCF809
:101B60000810DCF8081041F0770109E00BB1102BE8
:101B70006CD1DCF8081021F07001194341F0070125
:101B8000CCF808100022012180F83D10002180F8D7
:101B90003C10BDE880401046704700BF502B21D05C
:101BA000602B53D1D1F804E0C968DCF82030DCF8B0
:101BB000202022F01002CCF82020DCF8182022F49B
:101BC000704242EA013123F0A00242EA0E12CCF840
:101BD0001810CCF82020DCF8081041F0670121F043
:101BE0001001CDE7D1F804E0C968DCF82030DCF85A
:101BF000202022F00102CCF82020DCF8182022F06E
:101C0000F00242EA011123F00A0242EA0E02CCF885
:101C10001810CCF82020DCF8081041F0570121F012
:101C20002001ADE7D1E901E3C968DCF8082043EA07
:101C30000E0322F47F4243EA01211143CCF808103D
:101C4000DCF8081041F480419AE700BF01229AE7CE
:101C5000704700007047000070B504460068C56812
:101C60000669B10716D515F0020113D06FF0020115
:101C70000161012121778069800703D02046FFF7A9
:101C8000E7FF05E0204600F061F9204600F082FB06
:101C900000202077700719D515F0040016D02068B1
:101CA0006FF00401016102212177806910F4407F07
:101CB00004D02046FFF7CCFF06E000BF204600F02E
:101CC00045F9204600F066FB00202077300717D545
:101CD00015F0080014D020686FF00801016104219C
:101CE0002177C069800703D02046FFF7B1FF05E0E8
:101CF000204600F02BF9204600F04CFB0020207716
:101D0000F00619D515F0100016D020686FF01001FC
:101D1000016108212177C06910F4407F04D020467A
:101D2000FFF796FF06E000BF204600F00FF92046BF
:101D300000F030FB00202077F00718BF15F00100FD
:101D400002D1300609D412E020686FF00101016170
:101D5000204600F0E9FB300609D515F0800006D0DA
:101D600020686FF0800101612046FFF7FFFC7006DC
:101D700009D515F0400006D020686FF040010161E0
:101D8000204600F041FCB00658BF70BD15F02000A1
:101D900008D021686FF0200220460A61BDE870403B
:101DA000FFF7E6BC70BD000090F83C30012B04BF8B
:101DB000022070474FEAB202032A00F2C1802DE9E7
:101DC000F041DFE802F003852F5F00BF026842F6B2
:101DD0000045146A136AC4F2010523F0010313627B
:101DE0005368D2F818C0AA428D68D1F800E024F0F8
:101DF000020444EA05040BD1CD68D1E9056723F458
:101E0000407324F00C0425F0040533432C433B437A
:101E10002CF0730747EA0E075360976149685163D6
:101E200084E000BF026842F60045146A136AC4F2F7
:101E3000010523F4807313625368D2F81CC0AA42D0
:101E40008D68D1F800E024F4007444EA05240FD131
:101E5000CD68D1E905872D0240F2FF4624F44064A5
:101E6000B5432C4323F4405347EA080543EA0513DE
:101E70002CF0730747EA0E075360D7614968D163B6
:101E800054E000BF026842F60046D2F820C0136A50
:101E9000C4F2010623F4805313625368D4690D68B9
:101EA000D1F808E0B24204D14E6923F4804343EAFA
:101EB000861324F4E64646EA05265360D6612CF4E0
:101EC0000057496847EA0E33116413622FE000BFE0
:101ED000026842F60045146A136AC4F2010523F051
:101EE000100313625368D2F818C0AA428D68D1F863
:101EF00000E024F0200444EA05140FD1CD68D1E9B4
:101F000005876FF0400624F0C00406EA05152C434F
:101F100023F4406347EA080543EA85032CF4E647C7
:101F200047EA0E2753609761496891631462002164
:101F3000BDE8F041002280F83C200846704700BF11
:101F40000121002280F83C200846704770470000BD
:101F5000002804BF0120704710B590F83D1031B93A
:101F6000002180F83C10044600F070F82046022161
:101F700080F83D10016840F2FF740B68C4F2000461
:101F800042F6004CA142C4F2010C15DCB1F1804FC5
:101F90001AD040F20042C4F20002914214D0A14291
:101FA00018DCB1F1804F1DD040F20042C4F20002B3
:101FB000914217D01AE000BF614505D040F60002FB
:101FC000C4F200029142EAD1826823F07003134305
:101FD000A142E6DD614505D040F60002C4F20002F0
:101FE000914203D1026923F440731343846923F0BF
:101FF0008002D0F804E0C368224361450A60CB62E6
:10200000C1F828E002D14269CCF8302001224A61AF
:102010000B69DB0703D00B6923F001030B6180F828
:10202000462080F83E2080F83F2080F8402080F84D
:10203000412080F8422080F8432080F8442080F836
:10204000452080F83D20002010BD000070470000B2
:1020500090F83C30012B04BF022070474FEAB202D7
:10206000032A00F2F1802DE9F043DFE802F003A536
:102070003B7500BF036842F600461D6A1A6AC4F247
:10208000010622F001021A621A465C6852F818CF63
:10209000B3428E68D1F800E025F0020545EA060556
:1020A0000CD1CE68D1E9057824F4407425F00C05F4
:1020B00026F004063C43354344EA08042CF0730739
:1020C00047EA0E075C609F614F6809695F631D62A4
:1020D0009F6947F008079F619F6927F004079F6188
:1020E000A6E000BF036842F600461D6A1A6AC4F201
:1020F000010622F480721A621A46D3F804C052F81C
:102100001CEFB3428E680C6825F4007545EA06257D
:102110000FD1CE68D1E90598360240F2FF4725F489
:102120004065BE4335432CF4405748EA090647EA68
:10213000061C2EF073072743C3F804C0DF614F6805
:102140000969DF631D62DF6947F00807DF61DF6946
:1021500027F00407DF616BE0036842F60047D3F81D
:1021600020C01A6AC4F2010722F480521A621A4689
:102170005C6852F81C5FD1F800E08E68BB4204D165
:102180004F6924F4804444EA87142CF4005747EA4A
:10219000063725F4E64646EA0E265C60DE614E68A8
:1021A00009691E641F62DF6947F40067DF61DF6948
:1021B00027F48067DF613AE0036842F600461D6A53
:1021C0001A6AC4F2010622F010021A621A46D3F803
:1021D00004C052F8184FB3428E68D1F800E025F0E1
:1021E000200545EA06150FD1CE68D1E905986FF0B4
:1021F000400725F0C00507EA061635432CF4406772
:1022000048EA090647EA860C24F4E64444EA0E2725
:10221000C3F804C09F614F6809699F631D629F698D
:1022200047F400679F619F6927F480679F610902F7
:102230001368194311600021BDE8F043002280F8C3
:102240003C200846704700BF0121002280F83C2056
:1022500008467047002804BF0120704710B590F869
:102260003D1031B9002180F83C10044600F070F8B0
:102270002046022180F83D10016840F2FF740B688F
:10228000C4F2000442F6004CA142C4F2010C15DC79
:10229000B1F1804F1AD040F20042C4F200029142E4
:1022A00014D0A14218DCB1F1804F1DD040F20042A1
:1022B000C4F20002914217D01AE000BF614505D078
:1022C00040F60002C4F200029142EAD1826823F093
:1022D00070031343A142E6DD614505D040F60002DC
:1022E000C4F20002914203D1026923F44073134304
:1022F000846923F08002D0F804E0C368224361457A
:102300000A60CB62C1F828E002D14269CCF83020E3
:1023100001224A610B69DB0703D00B6923F001033B
:102320000B6180F8462080F83E2080F83F2080F83E
:10233000402080F8412080F8422080F8432080F837
:10234000442080F8452080F83D20002010BD00008A
:10235000006840F60001C4F20001884218BF7047CF
:1023600080B582B041F21C00C4F202000168002274
:1023700041F0040101600068002100F004000190B8
:1023800001981E20FEF786FD1E2002B0BDE88040A9
:10239000FEF76EBD70470000C1B1042908D00829BE
:1023A00014BF41224022825C012A05D016E000BF02
:1023B0003F22825C012A11D10222082910D004296F
:1023C00014BF80F8412080F83F200BE090F83E20B9
:1023D000012A03D1022280F83E2003E00120704749
:1023E00080F84020006801F01F010122036A8A4042
:1023F00023EA02010162036A42F64441C4F2010188
:102400001A43A1F14403984202620FD040F2FF71D7
:10241000C4F20001884213DCB0F1804F1CD040F2BE
:102420000041C4F20001884216D01CE00A6842F460
:1024300000420A6040F2FF71C4F200018842EBDD05
:1024400042F60041C4F20101884205D040F6000185
:10245000C4F20001884206D1816801F00701062913
:1024600004BF00207047016841F0010101600020B5
:102470007047000080B5026801F01F0C012303FAC9
:102480000CFE136A42F6444C23EA0E03C4F2010C1C
:102490001362D2F820E0ACF144039A42C2F820E083
:1024A00013D15CF824EC41F211131EEA030F0CD196
:1024B000D2F820E040F244431EEA030F05D1DCF8D5
:1024C000003023F40043CCF80030D2F820C041F2B1
:1024D00011131CEA030F06D1D2F820C040F2444386
:1024E0001CEA030F14D0082918D004290AD00029A7
:1024F0004FF0010114BF80F8411080F83E10002019
:1025000080BD00BF012180F83F10002080BD00BFCA
:10251000136823F0010313600829E6D1012180F834
:102520004010002080BD0000F0B581B00446006876
:1025300040F60006B0F1804FC4F2000608D0B04269
:1025400025D006F59231884242D001B0F0BD00BFDF
:1025500040F27807C2F200073869397801303861F3
:1025600021B1B96888420FD3002503E0F968884299
:102570000AD3012506F580304FF400412A46FEF7C4
:1025800003FC00203D7038612068B042D9D140F290
:102590007800C2F20000016A01310162016A406AFA
:1025A0008142D2D340F2AC15C2F200052846002188
:1025B000FFF760FF28460421FFF75CFF2868C16829
:1025C00021F00101C160206806F592318842BCD13A
:1025D00040F27804C2F20004A178E078002908BF34
:1025E0000A2809D0012908BF0A28AED101F04AFA09
:1025F0000020A07001B0F0BD0A2000F099FE01207B
:10260000A07001B0F0BD000070470000FEE70000C0
:10261000B0B584B040F2A40042F20041C2F2000022
:10262000C4F2010100244FF46022012504730475F3
:10263000C261C0E9001484600561FEF723F9002837
:1026400018BFFDF73DFF0820CDE9010540F2A400C9
:10265000C2F2000001A90394FDF7DAFF002818BFB9
:10266000FDF72EFF04B0B0BD2DE9F04F85B04FF05F
:10267000000941F21800CDE90399CDE90199C4F2AE
:102680000200016840F6004841F010010160016855
:10269000C4F2010801F0100100910099016808F5E9
:1026A000806741F0200101600168002201F02001F3
:1026B0000091009901684FF4005441F00401016059
:1026C000016801F0040100910099016841F00801DE
:1026D000016000684FF4005100F00800009000987D
:1026E0003846FEF751FBA8F58065284648F2FF0101
:1026F000002248F2FF0AFEF747FB404640F602710F
:102700000022FEF741FB01AE01944FF0010B0224C1
:1027100038463146CDE902B90494FEF72DFA284631
:102720003146CDE901ABCDE90394FEF725FA40F639
:102730000270CDE9010B40463146CDE90394FEF726
:102740001BFA4FF48050CDE9010940463146CDF8DF
:102750000C90FEF711FA4FF48070CDE90104284681
:1027600031460494FEF708FA102001900020C1F2CF
:102770002100CDE9020940463146FEF7FDF90A2065
:1027800000210022FEF786FB0A20FEF771FB05B050
:10279000BDE8F08F80B586B040F2D40042F600422A
:1027A0000021C2F20000C4F2010244F24F6340F281
:1027B000E73C0591CDE90311CDE90011C0E9002303
:1027C000C0E9021CC0E904118161FFF717F8002875
:1027D00018BFFDF775FE4FF48050029040F2D40010
:1027E000C2F2000002A9FFF763F9002818BFFDF745
:1027F00067FE40F2D400C2F200006946FEF7BAFF5D
:10280000002818BFFDF75CFE06B080BD10B58EB085
:1028100040F21C100021C2F2000009240D91CDE904
:102820000B110991CDE90711CDE90511CDE903118E
:10283000CDE901114FF0804241F61F43C0E9021477
:1028400001618021C0E900238161FEF7D7FF0028E4
:1028500018BFFDF735FE4FF480500A9040F21C106F
:10286000C2F200000AA9FFF723F9002818BFFDF7FC
:1028700027FE40F21C10C2F20000FFF769FB00289F
:1028800018BFFDF71DFE40F21C100024C2F200002C
:1028900008A9CDE90844FEF76DFF002818BFFDF731
:1028A0000FFECDE901440394059440F21C14C2F2DA
:1028B000000401A920460022FFF776FA002818BF7D
:1028C000FDF7FEFD2068816941F008018161204625
:1028D000FFF7BCFB1C2001210022FEF7DBFA1C20C5
:1028E000FEF7C6FA0EB010BD80B586B040F2641097
:1028F00040F200420021C2F20000C4F2000247236D
:102900004FF6FF7C0591CDE90311CDE90011C0E937
:102910000023C0E9021C01618161FEF76FFF0028FE
:1029200018BFFDF7CDFD4FF48050029040F26410C7
:10293000C2F2000002A9FFF7BBF8002818BFFDF79C
:10294000BFFD40F26410C2F200006946FEF712FFBC
:10295000002818BFFDF7B4FD40F26410C2F2000079
:10296000FFF778F906B080BDB0B590B040F600052D
:1029700040F2AC10C4F200050021C2F2000040F2A7
:102980000772CDE90811CDE90611CDE90411C0E9BE
:102990000051C0E9021201618161FFF75BFC002870
:1029A00018BFFDF78DFD40F2AC10C2F2000008A97F
:1029B000FEF7E0FE002818BFFDF782FD60200190C1
:1029C0004FF461700290002003900420059040F2C3
:1029D000AC10C2F2000001A90022FFF739FB002869
:1029E00018BFFDF76DFD40F2AC140220C2F20004E6
:1029F000039001A920460422FFF72AFB002818BFF4
:102A0000FDF75EFD21680020A942CDE90E000D9082
:102A10000C9001D010B0B0BD41F21800C4F2020019
:102A2000016841F00801016000680CA900F008008D
:102A30000B900B98C0200C9002200D900F9005F584
:102A40008230FEF799F810B0B0BD0000FEE700003C
:102A5000FEE7000070B540F600440025C4F2010412
:102A600045F0B000C0B200F03FFB102000F03CFB8E
:102A70000020002600F038FB20464FF400710122B0
:102A8000FEF782F920464FF480710122FEF77CF9AF
:102A900020464FF400710022FEF776F920464FF4ED
:102AA00080710022FEF770F9782000F029F84020AC
:102AB00000F026F8002000F023F820464FF4807143
:102AC0000022FEF761F920464FF400710022FEF764
:102AD0005BF920464FF480710122FEF755F920463C
:102AE0004FF400710122FEF74FF9701C46B2B6F1A7
:102AF000FF3FC1DCE8B20135072828BF70BDAFE752
:102B0000B0B540F60044C4F201040546C2092046AF
:102B10004FF40071FEF738F920464FF4807101221E
:102B2000FEF732F920464FF480710022FEF72CF9AF
:102B3000C5F3801220464FF40071FEF725F92046B8
:102B40004FF480710122FEF71FF920464FF4807187
:102B50000022FEF719F9C5F3401220464FF4007128
:102B6000FEF712F920464FF480710122FEF70CF9AE
:102B700020464FF480710022FEF706F9C5F30012DB
:102B800020464FF40071FEF7FFF820464FF48071A5
:102B90000122FEF7F9F820464FF480710022FEF77B
:102BA000F3F8C5F3C00220464FF40071FEF7ECF8CD
:102BB00020464FF480710122FEF7E6F820464FF4DC
:102BC00080710022FEF7E0F8C5F3800220464FF442
:102BD0000071FEF7D9F820464FF480710122FEF70C
:102BE000D3F820464FF480710022FEF7CDF8C5F3EC
:102BF000400220464FF40071FEF7C6F820464FF41D
:102C000080710122FEF7C0F820464FF48071002247
:102C1000FEF7BAF805F0010220464FF40071FEF706
:102C2000B3F820464FF480710122FEF7ADF820463C
:102C30004FF480710022FEF7A7F820464FF4007190
:102C40000122FEF7A1F820464FF480710122FEF721
:102C50009BF820464FF480710022BDE8B040FEF79B
:102C600093B80000B0B586B06420FDF75DFF00208A
:102C7000CDE90400CDE9020041F21800C4F20200DF
:102C8000016840F6004441F0080101600068C4F2A8
:102C9000010400F00800019001984FF48070029048
:102CA00001200390032002AD059020462946FDF740
:102CB00063FF4FF40070029020462946FDF75CFF49
:102CC00020464FF480710122FEF75EF820464FF453
:102CD00000710122FEF758F8AE2000F005FAD52069
:102CE00000F002FA802000F0FFF9A82000F0FCF9C3
:102CF0003F2000F0F9F9D32000F0F6F9002000F0B1
:102D0000F3F9402000F0F0F9A12000F0EDF9C8201F
:102D100000F0EAF9DA2000F0E7F9122000F0E4F917
:102D2000812000F0E1F9CF2000F0DEF9D92000F099
:102D3000DBF9F12000F0D8F9DB2000F0D5F93020E4
:102D400000F0D2F9A42000F0CFF9A62000F0CCF9D1
:102D50008D2000F0C9F9142000F0C6F9AF2000F072
:102D6000C3F9FFF777FE06B0B0BD00002DE9F047CC
:102D700080466FF0070000EBC1056FF0510000EBDB
:102D80004800C0B2A2F12004EEB200F0ADF9300963
:102D900000F11009484600F0A7F905F0080A50466E
:102DA00000F0A2F9E1B244F6C422C0F60002080124
:102DB000105C02EB011600F0D9F97078B778F4785E
:102DC000357900F0D3F9384600F0D0F9204600F00C
:102DD000CDF9284600F0CAF9707900F0C7F9B0794A
:102DE00000F0C4F9F07900F0C1F96FF0500000EB89
:102DF0004800C0B200F078F9484600F075F9504636
:102E000000F072F9307A00F0B1F9707A00F0AEF9A2
:102E1000B07A00F0ABF9F07A00F0A8F9307B00F05E
:102E2000A5F9707B00F0A2F9B07B00F09FF9F07B70
:102E3000BDE8F04700F09AB92DE9F04F83B0834622
:102E400010461D460E46019201F052FC0746002D29
:102E500050D0A5F1010AA81E4FF0000842F21079E7
:102E6000544602901DE000BF0120B7FBF0F04CF685
:102E7000CD41CCF6CC41A0FB0112D20802EB82027C
:102E8000A0EB420008EB060140F03000C2B2C9B22C
:102E90005846FFF76BFF08F10108A845A4F10104AB
:102EA00028D0D045E0D00298A0EB0800032801D23A
:102EB000012007E024F00301012000BF043900FBDA
:102EC00009F0FBD16FEA0801294411F00301CCD0CD
:102ED000012903D100EB80004000C6E74FF47A726D
:102EE000424302294FF0640108BF00FB01F2104683
:102EF000BBE700BF384601F01BFC0146019801F01A
:102F00005FFD0021C4F2C82101F08EFC01F0F0FB4E
:102F1000AC190746E1B258462E22FFF727FF4CF6C0
:102F2000CD40CCF6CC40A7FB000149F69A10CD0865
:102F3000C1F69910A5FB000101EB8101A5EB410150
:102F4000601C41F03001CAB2C1B25846FFF70EFF13
:102F500005EB8501A7EB4101A01C41F03001CAB28D
:102F6000C1B2584603B0BDE8F04FFFF7FFBE000006
:102F7000002B08BF70472DE9F04F81B05F1E1C4643
:102F800091468A468346A3F1020800263D4615E095
:102F90000120B9FBF0F006EB0A0100F00F0000F190
:102FA00037020A2838BF00F13002C9B25846FFF78D
:102FB000DDFE0136A642A5F101051FD0BE42E7D0D5
:102FC000A8EB0600032801D2012007E025F0030149
:102FD000012000BF04394FEA0040FBD1F1432144F6
:102FE00011F00301D5D0012902D10001D1E700BFC2
:102FF0000203022908BF02021046CAE701B0BDE879
:10300000F04F7047002B08BF70472DE9F04F81B09B
:10301000A3F1010B1C4691468A460746981E0026DE
:1030200042F210785D4600901CE000BF0120B9FB21
:10303000F0F04CF6CD41CCF6CC41A0FB0112D20809
:1030400002EB8202A0EB420006EB0A0140F03000E6
:10305000C2B2C9B23846FFF789FE0136A642A5F1D1
:10306000010527D05E45E1D00098801B032801D2DE
:10307000012007E025F00301012000BF043900FB17
:1030800008F0FBD1F143214411F00301CFD0012915
:1030900004D100EB80004000C9E700BF4FF47A7212
:1030A000424302294FF0640108BF00FB01F21046C1
:1030B000BDE700BF01B0BDE8F04F7047F0B581B08B
:1030C000144612786AB10D46064600277819C1B237
:1030D000D2B23046FFF74AFE0137F8B2225C002A2E
:1030E000F4D101B0F0BD0000B0B540F60044C4F228
:1030F0000104054620464FF400710122FDF744FE0D
:1031000020464FF480710122FDF73EFE20464FF429
:1031100000710022FDF738FE20464FF48071002236
:10312000FDF732FE7820FFF7EBFC0020FFF7E8FC0C
:103130002846FFF7E5FC20464FF480710022FDF79A
:1031400023FE20464FF400710022FDF71DFE2046AD
:103150004FF480710122FDF717FE20464FF40071F5
:103160000122BDE8B040FDF70FBE0000B0B540F64B
:103170000044C4F20104054620464FF400710122C8
:10318000FDF702FE20464FF480710122FDF7FCFDA1
:1031900020464FF400710022FDF7F6FD20464FF463
:1031A00080710022FDF7F0FD7820FFF7A9FC402098
:1031B000FFF7A6FC2846FFF7A3FC20464FF48071DA
:1031C0000022FDF7E1FD20464FF400710022FDF7DB
:1031D000DBFD20464FF480710122FDF7D5FD20462E
:1031E0004FF400710122BDE8B040FDF7CDBD0000F5
:1031F0007047000070470000FDF7D2BDB0B594B035
:1032000000240120CDE90F44CDE90D440A900E9031
:103210004FF4E0104FF48031022513900AA809946E
:10322000CDE90744CDE90544CDE90344CDE90144A6
:10323000CDE90B14CDE91151FEF782F8B0B141F29E
:103240000004C4F20104EFF3108072B6204604219A
:103250000022FDF799FD4FF47A70FDF765FC2046DA
:1032600004210122FDF790FDF0E700BF0F20CDE91A
:1032700005054FF48060CDE9080405A802210794F4
:10328000FDF742FFB0B141F20004C4F20104EFF3D4
:10329000108072B6204604210022FDF775FD4FF420
:1032A0007A70FDF741FC204604210122FDF76CFDF8
:1032B000F0E700BF022001904FF40040039001A806
:1032C000FDF7A0FEB0B141F20004C4F20104EFF337
:1032D000108072B6204604210022FDF755FD4FF400
:1032E0007A70FDF721FC204604210122FDF74CFDF8
:1032F000F0E700BF00204FF0C0610022FDF7F6FFAD
:1033000014B0B0BD7047000040F2D400C2F200001B
:10331000FEF7A2BC40F21C10C2F20000FEF79CBCFB
:1033200040F2AC10C2F20000FEF796BCFEE70000CF
:10333000B0B5012847DB40F60005C4F2010504469C
:10334000284601210122FDF71FFD012C3BD0284614
:1033500002210122FDF718FD032C34D32846042155
:103360000122FDF711FD032C2DD028460821012252
:10337000FDF70AFD052C26D3284610210122FDF772
:1033800003FD052C1FD0284620210122FDF7FCFC5F
:10339000072C18D3284640210122FDF7F5FC072C05
:1033A00011D005F58065284604210122FDF7ECFCCB
:1033B000092C38BFB0BD28464FF480610122FDF7CB
:1033C000E3FC092C00D1B0BD28464FF40061012276
:1033D000BDE8B040FDF7D8BC82B040F6004540F6ED
:1033E0000008C4F20105C4F20108FDF7E7FC4046FD
:1033F0004FF4004100224FF0000AFDF7C5FCFFF733
:10340000FDFEFFF731F9FFF7AFFAFFF7FFF9FFF71E
:10341000FFF8FFF769FAFFF7BDF940F2780BC2F247
:10342000000B8BF803A0FFF71DFC40F2A407C2F2CB
:1034300000073846FDF75CF83846FDF70DFB3846C7
:10344000FDF7A4F901F074F900F07CFF46F2666321
:10345000CCF20A034FF0663200F088FD0023C3F679
:103460003073002200F082FD47F6E1224EF247134E
:10347000CAF61462C3F6F67300F074FB49F6E04333
:10348000C3F671734FF0004200F014FC0023C4F245
:103490002003002200F066FB00F032FB0446FFF739
:1034A000D9FA45F2D502C0F6000201200121012619
:1034B000FFF704FE0FF2A85202200121FFF7FEFDE4
:1034C0000FF2A45203200121FFF7F8FD022005218D
:1034D000224602230194FFF7AFFC40F20004C2F23F
:1034E00000042288032005210323FFF78BFD092018
:1034F000C4E90166CBE90266CBF8240040F21C1057
:10350000C2F20000CBF820A0FEF780FA2088CBF8AA
:103510001CA001F00DF90021C4F2201100F0D6FF2B
:1035200001F0CAF8208005F5806420464FF4005170
:103530000122CBF814A0ABF804A0FDF725FC4FF650
:103540000C40CFF6FF7058F80010082341F010012E
:1035500048F8001058F800000521ABF8040082B2CA
:103560000420FFF705FD40F26416C2F200064FF09A
:1035700000081FE045F2C40201200121C0F600024C
:10358000FFF79CFD012004210FF2EC42FFF796FDAE
:103590003046FEF773FA30684FF40051C0F824A0AB
:1035A00020460122FDF7F0FB3846FDF7EFF8FA2040
:1035B000FDF7BAFA08F101081FFA88F20420012188
:1035C0000223FFF71FFD306840F2AC158BF801A015
:1035D000C0F824A00620C2F20005CBF8240028463B
:1035E0000021CBF820A0FEF7D7FE28460421FEF7E5
:1035F000D3FE2868C16841F00101C1603046CBF8B4
:103600001CA0FEF7CFF930684EF6AA31C0F824A00E
:10361000DBF81C00884207D8BBF80410081A41F2F6
:103620005541401AABF804003046CBF81CA0FEF719
:10363000E1F8022840F0FA8120464FF400510022C0
:10364000FDF7A2FB9BF80100CBF81CA0012891D14B
:1036500037688BF801A0786A01F06AF80021C4F29B
:103660007A41C7F824A000F031FFDBF81410CBF842
:1036700018004A1C042005210323CBF81420FFF76F
:10368000C1FC40F20007C2F20007388801F050F890
:10369000DBF8181002460846114601F0C5F84FF055
:1036A0007C5101F0C1F800258146CBF828000A20A2
:1036B000C4F220257860484629460A2700F0DEFE3D
:1036C000A0B14846294600F0E7FE002840F02681D8
:1036D00000214846C4F2342100F0D0FE002840F01A
:1036E0001D8109208BF8030002E000BF8BF80370F6
:1036F00045F2C40201200121C0F60002FFF7DEFC02
:1037000045F2D50201200121C0F60002FFF7D6FCE8
:10371000019A022005210223FFF78EFB40F20000F0
:10372000C2F2000000884FF47A7100FB01F203201E
:1037300005210323FFF766FCDBF828200120052183
:103740000423FFF779FB9BF8037040F60049002F34
:10375000C4F2010900F08880092F00F2BD8040F614
:103760000005C4F20105284601210022FDF70CFBEB
:10377000284602210022FDF707FB284604210022EB
:10378000FDF702FB284608210022FDF7FDFA284636
:1037900010210022FDF7F8FA284620210022FDF72B
:1037A000F3FA284640210022FDF7EEFA48460421AC
:1037B0000022FDF7E9FA48464FF480610022FDF748
:1037C000E3FA48464FF400610022FDF7DDFA28468F
:1037D00001210122FDF7D8FA012F7DD040F600002B
:1037E000C4F2010002210122FDF7CEFA032F73D3A8
:1037F00040F60000C4F2010004210122FDF7C4FAE2
:10380000032F69D040F60000C4F201000821012214
:10381000FDF7BAFA052F5FD340F60000C4F20100AD
:1038200010210122FDF7B0FA052F55D040F6000017
:10383000C4F2010020210122FDF7A6FA072F4BD385
:1038400040F60000C4F2010040210122FDF79CFA7D
:10385000072F41D0484604210122FDF795FA092F90
:103860003AD14FF4806133E040F60005C4F201051F
:10387000284601210122FDF787FA2846022101226C
:10388000FDF782FA284604210122FDF77DFA284639
:1038900008210122FDF778FA284610210122FDF7C0
:1038A00073FA284620210122FDF76EFA28464021AE
:1038B0000122FDF769FA484604210122FDF764FA66
:1038C00048464FF480610122FDF75EFA4FF4006133
:1038D00048460122FDF758FA9BF803004FF47A712D
:1038E00040F20002B1FBF0F10A38C2F2000218BF48
:1038F000A1F10A00516840F2A40700299060CBE9C9
:10390000021004BF0121CBF808100028C2F2000702
:103910007FF43EAE0120CBF80C0039E6002148468A
:10392000C4F2342100F0B8FD50B900214846C4F279
:10393000482100F0A3FD18B908208BF80300D7E652
:1039400000214846C4F2482100F0A6FD50B90021EC
:103950004846C4F25C2100F091FD18B907208BF8AD
:103960000300C5E600214846C4F25C2100F094FD46
:1039700050B900214846C4F2702100F07FFD18B90B
:1039800006208BF80300B3E600214846C4F27021FC
:1039900000F082FD50B900214846C4F28C2100F0AD
:1039A0006DFD18B905208BF80300A1E600214846FB
:1039B000C4F28C2100F070FD50B900214846C4F2D9
:1039C000A02100F05BFD18B904208BF803008FE6FE
:1039D00000214846C4F2A02100F05EFD50B900214C
:1039E0004846C4F2B42100F049FD18B903208BF811
:1039F00003007DE600214846C4F2B42100F04CFDEE
:103A000050B900214846C4F2C82100F037FD18B96A
:103A100002208BF803006BE601208BF8030040F2D4
:103A20000000C2F20000C0F804A061E6FFF712F83F
:103A30000FA201200121FFF741FBEFF3108072B6C6
:103A4000204604210022FDF79FF94FF47A70FDF71C
:103A50006BF8204604210122FDF796F9F0E700BF3C
:103A6000544D50200000000053504420000000003E
:103A70004552524F522100004E6F205369676E61CC
:103A80006C21000010B540F60004C4F20104204689
:103A900001210022FDF778F9204602210022FDF7DE
:103AA00073F9204604210022FDF76EF92046082113
:103AB0000022FDF769F9204610210022FDF764F984
:103AC000204620210022FDF75FF9204640210022F8
:103AD000FDF75AF904F58064204604210022FDF721
:103AE00053F920464FF480610022FDF74DF920463E
:103AF0004FF400610022BDE81040FDF745B9000019
:103B000021F0004201F00043A2F16052B2F5801FA3
:103B100028BFD2F17F6C0BD95FEA001C43EAC202D6
:103B200042EB507018BF704728BF20F0010070476B
:103B3000B2F5801FBCBF184670474FEA410C1CF518
:103B4000001F02D2084600F036BF70B500F0B8FA88
:103B500000000089FFF7F6BF4FF00040A0F580009D
:103B60007047000010B591EA030F48BF83F000438F
:103B700000F10283841A71EB030C05D2121943EB96
:103B80000C03001B61EB0C014FEA1154A4EB135C16
:103B9000DFF81CE11EEA430F18BF9EEA445F00F005
:103BA000748021EA045123EA0E0343F48013DCF10C
:103BB000200E32D322FA0CFE10EB0E0023FA0CFE7C
:103BC00041EB0E01CCF1200E03FA0EFE10EB0E00BD
:103BD000CCF1200E51F10001B1F5801F32D201EB82
:103BE000045112FA0EF2BDE8104058BF7047401C55
:103BF00038BF5FEA420218BF7047002814BF20F0A8
:103C0000010041F100014FEA410313F5001F38BFE5
:103C10007047A1F1C04100F0A1BA012A43EB0302B1
:103C2000ACF1200CDCF11F0E32BF4FF0000E23FA76
:103C30000CF310EB030041EB0451B4EB115FD0D057
:103C4000A1EB045101F58011490801EB04515FEA31
:103C500030000ED350F1000038BF12FA0EFE08D12A
:103C6000BDE81040C9E7401C38BF5FEA4202CAD134
:103C7000C3E7BDE810404FEA410313F5001F38BF0A
:103C80007047A1F1C04100F069BA9EEA445F08D0D4
:103C900011EA5E0FBDE8104004BF01F000410020B2
:103CA0007047BDE8104070B500F00AFA64FBBE3EF4
:103CB0000000E0FF2DE9C04130B4DFF8A8C23CEAC3
:103CC000111418BF3CEA131400F0F0801CEA111420
:103CD00081EA030544EAD57418BF1CEA131500F005
:103CE000CB80A4EB050404F17F7404F500344FF09D
:103CF000004545EAC12145EAC32341EA505143EA60
:103D000052534FEAC0204FEAC222994208BF904264
:103D100000F0A0804FEA13650FF24816765D4FEA77
:103D2000134506FB05F7C7F1807706FB07F74FEA57
:103D3000D737A7FB03687642A7FB06CEC8F58038C5
:103D400038BFA8F1010807FB08E6A6FB028C4FF07C
:103D5000000EE6FB03CED8F100086FEA0C0C5CF114
:103D6000000C6FEA0E0E4EF1004EA6FB0C584FF001
:103D70000007E6FB0E87A1FB08C6A0FB07CE16EBEB
:103D80000E064FF0000545F10005E1FB076515F152
:103D9000E04E7EBFA4F580345FEA46066D4116F121
:103DA000800745F100054FEA172747EA05674FEA04
:103DB00015254FEA0666A6F1DE46B6F1805F20D9EA
:103DC000384605EBC47124F0010C01EB0C11BCF179
:103DD000FE6F02D8F0BCBDE8008124425CBF01F553
:103DE000801E9EEAC47F02D4F0BCBDE8008124425C
:103DF00000F13980A1F1C041F0BCBDE8004100F004
:103E0000ADB94FEAD02040EA41504FEAD1214FEA04
:103E1000D22242EA43524FEAD323A7FB028607FB92
:103E2000036605FB02661EEA0E0F58BFA6EB00569E
:103E3000B6EB00564FEA520E4EEAC37E18EB0E0E5A
:103E400056EB530EBCD518EB02085E417F1C55F1B2
:103E50000005B5E74FF480154FF000074FF000065E
:103E60004FF00008ACE701F1C04101F000414FF014
:103E70000000F0BCBDE800810CEA131511EA0C1F2C
:103E800000D00CE013EA0C1F00F025804FF000007A
:103E900081EA030101F00041F0BCBDE80081F0BC03
:103EA000BDE8004181EA030100F058B9F0BCBDE86B
:103EB000004170B500F004F9097EFC3E00F007B83F
:103EC0004FF0000081EA030101F00041704781EAF0
:103ED000030100F043B9F0BCBDE8004122494FF0B6
:103EE00000007047FFFDFBF9F7F5F4F2F0EEEDEBA3
:103EF000E9E8E6E4E3E1E0DEDDDBDAD8D7D5D4D3E8
:103F0000D1D0CFCDCCCBCAC8C7C6C5C4C2C1C0BF33
:103F1000BEBDBCBBBAB9B8B7B6B5B4B3B2B1B0AF39
:103F2000AEADACABAAA9A8A8A7A6A5A4A3A3A2A11D
:103F3000A09F9F9E9D9C9C9B9A99999897979695D8
:103F400095949393929191908F8F8E8E8D8C8C8B74
:103F50008B8A8989888887878685858484838382FC
:103F6000828181800000FF070000F87F70B5DFF8D4
:103F700048C11CEA111E1EBF1CEA13159EEA0C0F55
:103F800095EA0C0F00F06F8081EA03044EEAD47EBC
:103F9000AE4421EA4C1123EA4C1341F4801143F45E
:103FA0008013AEF17F7EA1FB024CA0FB03653619A6
:103FB00055EB0C05A1FB034C4CF10003A0FB021CCC
:103FC00016EB0C06654153F10003094218BF46F099
:103FD000010613F4007F0BD14FEA03314FEA05309D
:103FE00041EA155140EA165034036FF003020AE02B
:103FF0004FEAC3214FEAC52041EA555140EA5650E5
:10400000F4026FF0020202EB2E4201EB025585EA48
:10401000CE710AD05FEA440C18BF24F0004450F17E
:10402000000041F1000120EAD47040F2FE7C6245BC
:1040300000D270BDA84214BF4FF080444FF04044FE
:10404000002E08BF0024BEF1806FA8BFA1F1C041BF
:10405000BDE8704080F2828001F1C04101F0004172
:104060004FF0000070470CEA13159EEA0C0F18BFC2
:1040700095EA0C0F06D081EA030E4FF000000EF017
:10408000004170BD00F01CF88900013E00F007B847
:1040900000F009B84FEA430C5FEA5C5C08D081EAA3
:1040A000030100F05BB84FEA410C5FEA5C5CF6D1BB
:1040B00002494FF0000070470000FF070000F87F42
:1040C0000EF1020E2EF0030E5EF8046B364205D49C
:1040D000012A43EB030515F5001F12D8012841EB17
:1040E000010C1CF5001F0CD80ED14FEAD17C0CEB53
:1040F0004C0C0CF1020C15F5001F08BF4CEBD37CE7
:1041000004E04FF0080C01E04FEAD37C0CEB4C05C7
:1041100026FA05F606F00706B6F1040C06D20EEBF9
:10412000860CBDE870404CF0010C6047DFE80CF0F5
:10413000090B02024FF00041A1F500214FF00000F1
:1041400070BD19461046012851EB010418BFD4F583
:10415000001484BF002001F0004170BD0808A0F5E4
:1041600000114FEA3101704710B591EA030F48BFC3
:1041700083F000433FF5FEAC841A71EB030C07D2C9
:104180008CF0004C121943EB0C03001B61EB0C018B
:104190004FEA1154A4EB135CDFF8A4E11EEA430FCD
:1041A00018BF9EEA445F00F0B48021EA045123EA7C
:1041B0006E035242C3EB6E0338BF5B1EDCF1200E70
:1041C00025D322FA0CFE10EB0E0043FA0CFE41EB55
:1041D0000E01CCF1200E03FA0EFE10EB0E00CCF116
:1041E000200E51F1000129D401EB045112FA0EF214
:1041F000BDE8104058BF7047401C1CBFB2F1004FD3
:10420000704700280CBF491C20F00100704712EBDA
:10421000020E43EB030218BF4FF0010E4EEA4202BA
:10422000ACF1200CDCF11E0E56D943FA0CFE10EB5B
:104230000E00CCF11E0E51F1FF31D5D50EF1010E5D
:1042400012FA0EFE404141EB010101EB445C5FEAD2
:104250005C5C10D901EB045110EBDE7038BFBEF18D
:10426000004FBDE8104018BF704700280CBF491C24
:1042700020F00100704734D24FEAD42C24F40064BB
:1042800011F500111BD0B1FA81F20B3AA41AA41E49
:10429000D2F12003914030FA03F31943904001EB2F
:1042A000CC7101EB0451002CBDE81040A8BF704751
:1042B00001F1C04101F000414FF000007047B0FA39
:1042C00080F310FA03F102D1BDE810407047E41A00
:1042D000173C4805C90AE2E701EB0451BDE810406C
:1042E000704749104FEA300001EB0451BDE810401F
:1042F00002E04FF0000170474A0008BF0042F8D0CA
:10430000B2F5001F28BF704701F000414FF00000D8
:1043100070479EEA445F07D011EA5E0FBDE8104087
:1043200004BF002100207047BDE8104070B5FFF7C2
:10433000C7FE00BF40DFF63E104683F000417047E5
:104340000000E0FF43004FEAD30C4FEA3C0C43402F
:104350001FBF40070CF1605113F0FE4F70471CF077
:10436000006F03D10CF00041002070470CF00043B7
:1043700043EA507040EACC0010B500F0D6FA00BF16
:10438000000000924FEA0001FFF7E8BE4FF0004145
:10439000A1F500214FF000007047000090EA010FE6
:1043A00048BF81F0004100F11283421A3CBF801ADD
:1043B00089184FEAD052A2EBD1534FF07F4C1CEA40
:1043C000410F18BF9CEA026F00F03B804FF0004C99
:1043D0004CEA00204CEA012121FA03FC10EB0C0C02
:1043E0001ED202F1FF325FEA1C2040EBC25038BF00
:1043F00070471CF07F0F4FEA400C18BFBCF17F4F95
:1044000038BF7047C3F12003994008BF20F0010076
:10441000BCF17F4F38BF7047A0F1C04000F0CBBA6D
:104420004FEA3C00000A40EBC25028BF1CF0FF0FCF
:104430004FEA400CE6D018BFBCF17F4F38BF704741
:10444000EAE79CEA026F05D010EA5C0F08BF00F0B3
:104450000040704710B500F068FA00BF64FBBE3E34
:1044600010B500F0F5F80CBF0120002010BD10B50C
:1044700000F0EEF814BF0120002010BD10B500F0D0
:104480006BF98CBF0120002010BD10B500F064F95D
:104490002CBF0120002010BD10B500F091F994BF91
:1044A0000120002010BD10B500F08AF934BF0120B2
:1044B000002010BD401058BFC0F14040491058BF07
:1044C000C1F140418142EFF3008070474FF47F0C0F
:1044D0001CEAD0121EBF1CEAD11392EA0C0F93EA19
:1044E0000C0F00F0858090EA010F48BF42F4807203
:1044F00040F4000C41F400002CF07F4120F07F409C
:1045000000B5A2EB030281420FF2081CACEB504E47
:104510009EF800E0C0F100004FEA4E0E00FB0EFCDA
:1045200038BF49004FEA2C1C0CFB0EF34FEACE1E9D
:104530000EEB635E4FEA112C0EFB0CFC4FEAC1211F
:104540004FEA1C5300FB031102F5FA024FEA112C4B
:104550000EFB0CFC4FEA01314FEADC4C00FB0C1166
:1045600042EB2242C14228BF09184CEB03335DF8ED
:1045700004EB10EB410143EBC250B2F57C0F38BFA6
:10458000704729D512F0F00F1CBF00F1C04000F0B9
:1045900000407047008182838485868788898B8C60
:1045A0008D8E8F919293959697999A9C9D9FA0A29C
:1045B000A3A5A7A8AAACAEB0B2B3B5B7B9BCBEC0EC
:1045C000C2C5C7C9CCCED1D4D7D9DCDFE2E6E9EC8D
:1045D000F0F3F7FAFE0000004FEA400C0CF1807C8B
:1045E000BCF17E4F28BF7047B0F1C04000F0E3B986
:1045F0000CEAD11390EA010F48BF42F48072624581
:1046000038BF634507D213F47F0F16D080EA01004C
:1046100000F00040704710B500F087F9097EFC3EBD
:1046200000F005B880EA010000F00040704780EA21
:10463000010000F0004000F0BEB912F47F0F04BF8B
:104640000248704780EA010000F0B5B90000C07F61
:1046500050EA010C00F113801CF5000F58BFBCF5A7
:10466000000F01D48842704707D710F5000F58BFDC
:1046700011F5000F15D488427047894270471CF528
:10468000000F04D5BCF5000FF7D5814270474FF0FD
:10469000807C1CEB400F38BF1CEB410F01D28142E4
:1046A000704710B500F041F9922449004FF00050D6
:1046B0004FF08051FFF7FEBE41000B0ED3F19E027A
:1046C00008D950F400034FEA032323FA02F048BF4D
:1046D0004042704710B500F028F900BF499224808D
:1046E000002070476FF0004282EA2000704700000F
:1046F000C10DD1F19E0206DB4FEA002343F00043D7
:1047000023FA02F07047004207D54FEA4001B1F1A9
:10471000FE4F02D24FF00000704710B500F005F9CF
:1047200049922480002070476FEA20007047000003
:10473000B0FA80F310FA03F2C3F19D030AD0D90551
:1047400001EB1220530638BF704700F1010008BF8B
:1047500020F001007047000050EA010C00F11380C6
:104760001CF5000F58BFBCF5000F01D488427047FC
:1047700007D710F5000F58BF11F5000F15D4884268
:104780007047894270471CF5000F04D5BCF5000F37
:10479000F7D5814270474FF0807C1CEB400F38BF4B
:1047A0001CEB410F01D28142704710B500F0BDF8FB
:1047B000922449004FF080504FF00051FFF77ABE2D
:1047C00050EA010C00F113801CF5000F58BFBCF536
:1047D000000F01D48842704707D710F5000F58BF6B
:1047E00011F5000F15D488427047894270471CF5B7
:1047F000000F04D5BCF5000FF7D5814270474FF08C
:10480000807C1CEB400F38BF1CEB410F01D2814272
:10481000704710B500F089F8922449004FF000501D
:104820004FF08051FFF746BE4FF47F0C1CEAD012C8
:104830001EBF1CEAD11392EA0C0F93EA0C0F00F092
:10484000478090EA010F48BF42F480724FF0004C5D
:104850004CEA00204CEA012102EB0302A0FB011309
:10486000A2F50002002918BF43F001035B0028BF36
:104870004FEA330342EB22425FEA132C4CEBC25067
:104880002EBFBCEB436FB2F57C0F70474FEA036C51
:10489000BCF1004F08BF20F00100B2F57C0F38BF1B
:1048A00070470BD582F0FF0212F5803FC8BF7047FA
:1048B00000F1C040D8BF00F00040704700F5000C88
:1048C0005FEA4C0C48BF7047B0F1C04000F073B8CD
:1048D0000CEAD11390EA010F48BF42F4807262459E
:1048E00038BF634504D280EA010000F00040704701
:1048F00010B500F01AF800BF8900013E00F007B8BB
:1049000000F009B85FEA410C5FEA1C6C08D080EA4D
:10491000010000F050B85FEA400C5FEA1C6CF6D171
:104920004FF00040A0F5800070470EF1020E2EF00F
:10493000030E5EF8044B244204D44FEA4102B2F164
:104940007F4F11D84FEA4003B3F17F4F0CD80ED1FF
:104950004FEAD07C0CEB4C0C0CF1020CB2F17F4F07
:1049600008BF4CEBD17C04E04FF0080C01E04FEAAB
:10497000D17C0CEB4C0324FA03F404F00704B4F1EB
:10498000040C06D20EEB840CBDE810404CF0010C78
:104990006047DFE80CF0070802024FF00040A0F586
:1049A000800010BD0846420018BFD2F1807288BF57
:1049B00000F0004010BDFF2141EAD050C005704713
:1049C00090EA010F48BF81F000413FF5EEAC421A7A
:1049D00004D882F00042A0EB020011444FEAD0520A
:1049E000A2EBD1534FF07F4C1CEA410F18BF9CEA59
:1049F000026F4AD04FF0004C4CEA00204CEA0121F3
:104A000021FA03FCB0EB0C0C0FD412F0FE0F36D0E1
:104A10005FEA4C001DD5001240EBC25038BF704712
:104A20001CF03F0F18BF70470BE05FEA1C20A2F19B
:104A3000010240EBC25038BF70471CF07F0F18BF17
:104A40007047C3F12003994014BF401E20F00100BD
:104A500070474FEA1223800808BF7047B0FA80FC05
:104A6000A2EB0C02CCF1280C60FA0CF093EA122FA6
:104A700004BF00EBC25070474FEAC3707047130A7F
:104A80005FEADC1008BF7047F6E79CEA026F04D0CB
:104A900010EA5C0F08BF0020704710B5FFF745FF14
:104AA00040DFF63E81F0004070470000000000004B
:104AB00000000102030406070809000000000102CB
:104AC00003040102000000000000000000000000DC
:104AD00000000000000000F80000000000000033AB
:104AE0003000000000100C06100C06000000000052
:104AF0000000000040C07840C0784000043F04043B
:104B00003F040400007088FC08300000001820FFFB
:104B1000211E0000F008F000E018000000211C0336
:104B20001E211E0000F00888700000001E212324B2
:104B30001927211010160E000000000000000000D0
:104B400000000000000000E0180402000000000760
:104B50001820400000020418E00000000040201867
:104B600007000000404080F0804040000202010F3A
:104B700001020200000000F0000000000101011F1E
:104B800001010100000000000000000080B0700082
:104B90000000000000000000000000000001010112
:104BA00001010101000000000000000000303000A1
:104BB000000000000000000080601804006018067B
:104BC0000100000000E010080810E000000F1020B5
:104BD00020100F00001010F8000000000020203FFF
:104BE0002020000000700808088870000030282489
:104BF000222130000030088888483000001820202A
:104C000020110E000000C02010F80000000704244E
:104C1000243F240000F80888880808000019212093
:104C200020110E0000E0108888180000000F1120ED
:104C300020110E0000380808C83808000000003FA6
:104C4000000000000070880808887000001C222105
:104C500021221C0000E010080810E00000003122B2
:104C600022110F00000000C0C00000000000003052
:104C700030000000000000800000000000008060A4
:104C80000000000000008040201008000001020425
:104C9000081020004040404040404000040404040C
:104CA00004040400000810204080000000201008C8
:104CB00004020100007048080808F00000000030FD
:104CC00036010000C030C828E810E000071827248B
:104CD00023140B000000C038E0000000203C230239
:104CE0000227382008F8888888700000203F20209C
:104CF00020110E00C03008080808380007182020CE
:104D00002010080008F808080810E000203F2020C4
:104D100020100F0008F88888E8081000203F2020A5
:104D20002320180008F88888E8081000203F200099
:104D300003000000C03008080838000007182020D1
:104D4000221E020008F808000008F808203F210190
:104D500001213F20000808F8080800000020203F3B
:104D60002020000000000808F8080800C0808080AB
:104D70007F00000008F888C028180800203F2001A4
:104D80002638200008F8080000000000203F2020FE
:104D90002020300008F8F800F8F80800203F003F15
:104DA000003F200008F830C00008F808203F20002D
:104DB00007183F00E01008080810E0000F1020203E
:104DC00020100F0008F808080808F000203F210113
:104DD00001010000E01008080810E0000F1824246A
:104DE00038504F0008F8888888887000203F2000DD
:104DF000030C302000708808080838000038202193
:104E000021221C00180808F8080818000000203F9C
:104E10002000000008F808000008F808001F202003
:104E200020201F000878880000C8380800000738D4
:104E30000E010000F80800F80008F800033C070025
:104E4000073C0300081868808068180820302C038D
:104E5000032C30200838C800C83808000000203F64
:104E60002000000010080808C83808002038262153
:104E700020201800000000FE020202000000007F57
:104E800040404000000C30C0000000000000000165
:104E90000638C00000020202FE0000000040404050
:104EA0007F00000000000402020204000000000075
:104EB00000000000000000000000000080808080F2
:104EC00080808080000202040000000000000000DA
:104ED0000000000000008080808000000019242273
:104EE00022223F2008F8008080000000003F1120AF
:104EF00020110E000000008080800000000E1120B4
:104F000020201100000000808088F800000E112091
:104F100020103F200000808080800000001F22229F
:104F200022221300008080F0888888180020203F0B
:104F3000202000000000808080808000006B94941E
:104F40009493600008F8008080800000203F2100DA
:104F500000203F2000809898000000000020203FA3
:104F600020200000000000809898000000C0808091
:104F7000807F000008F8000080808000203F24022D
:104F80002D302000000808F8000000000020203F1D
:104F9000202000008080808080808000203F2000D2
:104FA0003F20003F8080008080800000203F210063
:104FB00000203F200000808080800000001F202013
:104FC00020201F00808000808000000080FFA12042
:104FD00020110E000000008080808000000E112053
:104FE00020A0FF80808080008080800020203F21E2
:104FF0002000010000008080808080000033242495
:1050000024241900008080E0808000000000001F40
:10501000202000008080000000808000001F2020F1
:1050200020103F20808080000080808000010E30B2
:105030000806010080800080008080800F300C0313
:105040000C300F0000808000808080000020312E16
:105050000E312000808080000080808080818E70F2
:105060001806010000808080808080000021302CA4
:105070002221300000000000807C020200000000BD
:10508000003F404000000000FF0000000000000062
:10509000FF0000000002027C800000000040403F52
:1050A00000000000000601010202040400000000EC
:1050B0000000000002030405060708090A0B0C0D96
:1050C0000E0F101020202020202020202020202023
:1050D00020202020004453542000000000510008EC
:1050E00000000020180000005001000818510008BE
:1050F00018000020E0070000700100080000000018
:1051000054010000F4010000F4010000010000005F
:085110001000000000127A00FB
:04000005080000ED02
:00000001FF
