:020000040800F2
:1000000010080020B5010008553500089930000897
:10001000513500080D0400082142000800000000CE
:10002000000000000000000000000000953B0008F8
:100030008104000800000000553B0008ED3B00086B
:10004000CF010008CF010008CF010008CF01000850
:10005000CF010008CF010008CF010008CF01000840
:10006000CF010008CF01000885040008CF01000877
:10007000CF010008CF010008CF010008CF01000820
:10008000CF010008CF010008BD020008CF01000821
:10009000CF010008CF010008CF010008CF01000800
:1000A000CF010008953C0008CF010008CF010008EF
:1000B000A53C0008CF010008B53C0008CF010008AE
:1000C000CF010008CF010008CF010008CF010008D0
:1000D000CF010008CF010008CF010008CF010008C0
:1000E000CF010008CF010008CF01000800F002F89E
:1000F00000F050F814A696E8000CB244B344DA4578
:1001000001D100F047F8BAE80F000FA696E83000DA
:10011000A5EB040504EB0607AAEB0704A7F101070A
:100120004FEA15154FEA3414A4F10104AC4201D38F
:1001300000F030F813F0010F18BFFB1A43F0010371
:1001400000F001F8DBE718476864000088640000ED
:10015000103A24BF78C878C1FAD8520724BF30C8F3
:1001600030C144BF04680C60704700007047000055
:100170000023002400250026103A28BF78C1FBD8B0
:10018000520728BF30C148BF0B6070471FB51FBD65
:1001900010B510BD00F058F81146FFF7F7FF04F056
:1001A000D7F900F076F803B4FFF7F2FF03BC00F0D4
:1001B0007DF800000948804709480047FEE7FEE750
:1001C000FEE7FEE7FEE7FEE7FEE7FEE7FEE7FEE707
:1001D00004480549054A064B70470000913C000859
:1001E000ED0000081002002010080020100400207C
:1001F000100400204FF0000200B5134694469646C6
:10020000203922BFA0E80C50A0E80C50B1F1200129
:10021000BFF4F7AF090728BFA0E80C5048BF0CC0D7
:100220005DF804EB890028BF40F8042B08BF704735
:1002300048BF20F8022B11F0804F18BF00F8012BA7
:100240007047704770477047754600F02BF8AE4610
:1002500005006946534620F00700854618B020B5D2
:10026000FFF7B6FFBDE820404FF000064FF0000753
:100270004FF000084FF0000BAC46ACE8C009ACE80A
:10028000C009ACE8C009ACE8C00921F007018D46FF
:10029000704710B50446AFF300802046BDE810401B
:1002A000FFF781BF00487047200000200149182057
:1002B000ABBEFEE7260002007047000080B540F2AA
:1002C000A000C2F2000000F0AFFA80BD80B584B09B
:1002D000029000200190029800688068C00770B307
:1002E000FFE702980168886820F00100886000F04C
:1002F00083FF0190FFE7029800688068C007E8B1BB
:10030000FFE700F079FF0199401A032815D3FFE7B2
:10031000029800688068C00770B1FFE70299886A98
:1003200040F0100088620299C86A40F00100C8627B
:1003300001208DF80F0006E0FFE7DCE7FFE7002073
:100340008DF80F00FFE79DF80F0004B080BD00009E
:1003500080B584B00290002001900090029800685F
:100360008068C007002849D1FFE7029801688868C3
:1003700040F00100886040F20000C2F20000006816
:100380004DF68361C4F21B31A0FB0110800C00907C
:10039000FFE7009820B1FFE7009801380090F8E7E8
:1003A00000F02AFF0190FFE7029800688068C0070C
:1003B00018BBFFE700F020FF0199401A03281BD368
:1003C000FFE7029800688068C007A0B9FFE70299BC
:1003D000886A40F0100088620299C86A40F0010003
:1003E000C862FFE70299002081F82400FFE701209E
:1003F0008DF80F0006E0FFE7D6E7FFE700208DF855
:100400000F00FFE79DF80F0004B080BDFFE7FEE797
:1004100081B00120009040F20800C2F200000068A4
:100420000099B0FBF1F140F28400C2F200000160DB
:1004300040F20C01C2F200010968009AB1FBF2F12E
:1004400040F28C02C2F200021160006838B9FFE786
:1004500040F28401C2F2000101200860FFE740F28F
:100460008C00C2F20000006838B9FFE740F28C014E
:10047000C2F2000101200860FFE701B070470000F0
:100480007047000080B5102000F0F2FC80BD000035
:1004900080B584B0EFF3108072B60390FFE741F2AD
:1004A0000000C4F20100019004210291002200F03A
:1004B0008BFE4FF47A7000F0ADFC01980299012296
:1004C00000F082FEEBE7000080B586B004900020CB
:1004D0008DF80F000190FFE7049890F824000128A0
:1004E00004D1FFE702208DF81700AEE00499012047
:1004F00081F82400FFE7FFE70498FFF7E7FE8DF897
:100500000F000498FFF724FF8DF80F009DF80F00EF
:10051000002840F08F80FFE70498806A40F00200D6
:1005200020F488500499886240F20000C2F2000072
:1005300000680090022000F027FF01460098B0FB01
:10054000F1F040000190FFE7019820B1FFE701982A
:1005500001380190F8E704980168886840F00800C5
:10056000886000F049FE0290FFE704980068806808
:100570000007002822D5FFE700F03EFE0299401A4E
:100580000B281AD3FFE7049800688068000700284A
:1005900012D5FFE70498806A40F0100020F00200B6
:1005A00004998862FFE70499002081F82400FFE79E
:1005B00001208DF8170048E0FFE7D6E704980168AE
:1005C000886840F00400886000F016FE0290FFE7A3
:1005D0000498006880684007002822D5FFE700F0F3
:1005E0000BFE0299401A0B281AD3FFE70498006803
:1005F00080684007002812D5FFE70498806A40F021
:10060000100020F0020004998862FFE7049900209E
:1006100081F82400FFE701208DF8170015E0FFE7BF
:10062000D6E70498806A40F0010020F002000499A7
:100630008862FFE7FFE70499002081F82400FFE7C4
:100640009DF80F008DF81700FFE79DF8170006B022
:1006500080BD000081B0009001B0704785B003906C
:10066000029100208DF807000090FFE7039890F8B2
:100670002400012804D1FFE702208DF81300C3E015
:100680000399012081F82400FFE7FFE70298406802
:10069000062812D8FFE703980068406B029A116899
:1006A000526802EB8202053A1F239340984391401F
:1006B000084303990968486329E0029840680C28B8
:1006C00012D8FFE703980068006B029A116852681D
:1006D00002EB8202233A1F23934098439140084340
:1006E00003990968086311E003980068C06A029AD8
:1006F0001168526802EB8202413A1F2393409843EB
:100700009140084303990968C862FFE7FFE7029830
:1007100000680A2812D3FFE703980068C0680299AE
:100720000A68896802EB42021E3A07239340984305
:100730009140084303990968C86010E00398006875
:10074000006902990A68896802EB42020723934014
:10075000984391400843039909680861FFE70298AC
:100760000068102805D0FFE702980068112840D1E2
:10077000FFE70398006842F20041C4F20101884299
:100780002DD1FFE70398006880680002002825D477
:10079000FFE703980168886840F4000088600298C9
:1007A0000068102819D1FFE740F20000C2F20000F3
:1007B00000684DF68361C4F21B31A0FB0110800C70
:1007C00000EB800040000090FFE7009820B1FFE7B9
:1007D000009801380090F8E7FFE7FFE708E0039989
:1007E000886A40F02000886201208DF80700FFE74A
:1007F000FFE7FFE70399002081F82400FFE79DF859
:1008000007008DF81300FFE79DF8130005B070474F
:1008100081B0009001B0704781B0009000980068EE
:10082000C06C01B07047000080B584B0039003989D
:1008300000680068029003980068406801909DF885
:1008400004008006002841D5FFE79DF808008007D6
:1008500000283AD5FFE70398806AC006002806D42E
:10086000FFE70399886A40F400708862FFE7039805
:100870000068806800F46020B0F5602F1CD1FFE7AD
:100880000398007BC0B9FFE703980168486820F02F
:10089000200048600399886A20F480708862039879
:1008A000806AC004002806D4FFE70399886A40F0F4
:1008B00001008862FFE7FFE70398FFF7A9FF0398AD
:1008C00001686FF012000860FFE7FFE79DF8040081
:1008D0000006002851D5FFE79DF8080040070028D2
:1008E0004AD5FFE70398806AC006002806D4FFE7D0
:1008F0000399886A40F400508862FFE70398006813
:10090000806800F4E040B0F5E04F14D0FFE70398B2
:10091000006840684005002825D4FFE70398006878
:10092000806800F46020B0F5602F1CD1FFE70398C9
:10093000007BC0B9FFE703980168486820F0800099
:1009400048600399886A20F4805088620398806A1E
:10095000C005002806D4FFE70399886A40F001002B
:100960008862FFE7FFE70398FFF774FE03980168CA
:100970006FF00C000860FFE7FFE79DF804004006F9
:10098000002814D5FFE79DF80800C00770B1FFE705
:100990000399886A40F480308862039800F014F963
:1009A000039801686FF001000860FFE7FFE704B0FB
:1009B00080BD000080B588B0069000208DF817003B
:1009C000049003900290069820B9FFE701208DF86B
:1009D0001F00F4E00698806830B1FFE70698007DBC
:1009E00008B1FFE7FFE7FFE70698806A50B9FFE725
:1009F00006990020C862069981F82400069800F044
:100A0000E7F8FFE70698FFF761FC8DF817000698F6
:100A1000806AC006002800F1C480FFE79DF8170037
:100A2000002840F0BE80FFE70698806A40F0020090
:100A300020F488500699886206994868CA6910436C
:100A4000097B40EA410103980843039006988168B6
:100A50000120B1F5807F019008D0FFE706988068FB
:100A60000138B0FA80F040090190FFE7019904983D
:100A7000CA0740F48071002A18BF084604900698FF
:100A8000007D01281ED1FFE70698007B70B9FFE7C3
:100A9000069881694EF20000CFF6FF7000EB4130FE
:100AA0000499084340F4006004900AE00699886ABB
:100AB00040F0200088620699C86A40F00100C862D0
:100AC000FFE7FFE706980068406820F46940049952
:100AD00008430699096848600698006880684FF2E4
:100AE000FD71CFF6E1710840039908430699096842
:100AF0008860069881680120B1F5807F009008D059
:100B0000FFE7069880680138B0FA80F0400900904D
:100B1000FFE7009800F00100002818BF4FF4807034
:100B2000B0F5807F09D1FFE7069801690020CFF674
:100B3000F07000EB01500290FFE706980068C06A71
:100B400020F470000299084306990968C862069863
:100B50000068806840F6FE61CFF61F710840039977
:100B600088420CD1FFE706990020C8620698806A87
:100B700040F0010020F002000699886210E006981B
:100B8000806A40F0100020F0020006998862069901
:100B9000C86A40F00100C86201208DF81700FFE725
:100BA00008E00699886A40F01000886201208DF8FC
:100BB0001700FFE79DF817008DF81F00FFE79DF86D
:100BC0001F0008B080BD000081B0009001B07047E8
:100BD00080B588B00790002006900590049003909F
:100BE0000798006842F20041C4F20101884233D103
:100BF000FFE7FFE741F21800C4F20200016841F488
:100C000000710160006800F4007002900298FFE734
:100C1000FFE741F21800C4F20200016841F0080148
:100C20000160006800F0080001900198FFE70120D2
:100C300003900320049040F60040C4F2010003A991
:100C400000F032F9122000900022114600F07AFBE9
:100C5000009800F06DFBFFE708B080BD80B584B060
:100C6000029000208DF80700FFE7029890F824001A
:100C7000012804D1FFE702208DF80F00C5E002999A
:100C8000012081F82400FFE7FFE70298FFF760FBEF
:100C90008DF807009DF80700002840F0AA80FFE7C4
:100CA0000298806A40F4807040F2012188430299E2
:100CB00088620298006842F60001C4F2010188428D
:100CC00009D1FFE742F20440C4F20100006810F4C9
:100CD000702F03D018E00020B0B9FFE70299886AAE
:100CE00020F480108862029800684068400500285F
:100CF00009D5FFE70298806A40F4805020F4005044
:100D000002998862FFE72CE00299886A40F480101B
:100D100088620298006842F20041C4F201018842F0
:100D200009D0FFE70298006842F60001C4F2010111
:100D3000884209D1FFE742F20440C4F20100006892
:100D40004005002803D40BE0012048B9FFE70298D2
:100D5000806A40F4805020F4005002998862FFE7D6
:100D6000FFE70298806AC004002806D5FFE70299D1
:100D7000C86A20F00600C86203E002990020C86239
:100D8000FFE7FFE70299002081F82400FFE70298BF
:100D900001686FF00200086002980068806800F443
:100DA0006020B0F5602F1CD1FFE70298006842F682
:100DB0000001C4F20101884209D1FFE742F2044078
:100DC000C4F20100006810F4702F03D009E0002085
:100DD00038B9FFE702980168886840F4A00088608D
:100DE00006E002980168886840F480108860FFE798
:100DF00006E0FFE70299002081F82400FFE7FFE703
:100E00009DF807008DF80F00FFE79DF80F0004B074
:100E100080BD000080B584B0039000F0EDF9029031
:100E2000039801900198013048B1FFE740F21000AB
:100E3000C2F200000178019808440190FFE7FFE743
:100E400000F0DAF90299401A0199884201D2FFE7CD
:100E5000F6E704B080BD000081B0ADF8020040F2BA
:100E60009C01C2F200010120087001B0704700002F
:100E700080B582B0ADF8060040F21440C4F2010023
:100E80000068BDF8061008420CD0FFE7BDF8060068
:100E900040F21441C4F201010860BDF80600FFF7FA
:100EA000DBFFFFE702B080BD90B00F900E910020F5
:100EB0000D900990FFE70E9800680D99C840002832
:100EC00000F07F81FFE70D99012088400C900E987B
:100ED00000680C9908400B900B980C99884240F0E0
:100EE0006C81FFE70E9840680590002851D0FFE71D
:100EF000059801283AD0FFE7059802283FD0FFE780
:100F0000059803285FD0FFE70598112832D0FFE746
:100F10000598122838D0FFE705980021C1F2110189
:100F2000884236D0FFE705980021C1F212018842BD
:100F30002FD0FFE705980021C1F22101884228D077
:100F4000FFE705980021C1F22201884221D0FFE786
:100F500005980021C1F2310188421AD0FFE70598B7
:100F60000021C1F23201884213D02FE00E98C068F0
:100F700009902CE00E98C0680430099027E00E9884
:100F8000C0680830099022E00E98C0680C300990C3
:100F90001DE00E98806818B9FFE70420099011E061
:100FA0000E988068012806D1FFE7082009900C9868
:100FB0000F99086105E0082009900C980F99486185
:100FC000FFE7FFE703E00020099000E0FFE70B9850
:100FD000FF2803D8FFE70F98049003E00F98043030
:100FE0000490FFE7049808900B98FF2804D8FFE7C7
:100FF0000D988000039006E00D996FF01F0000EB44
:1010000081000390FFE70398079008980068079A0B
:101010000F2191408843099991400843089908603D
:101020000E98C079C006002840F1C680FFE7FFE7B0
:1010300041F21800C4F20200016841F001010160B0
:10104000006800F0010006900698FFE70D9820F078
:1010500003000821C4F2010140580A900D9800F0E5
:10106000030081000F2000FA01F10A9888430A90DA
:101070000F9840F60001C4F20101884203D1FFE756
:101080000020029026E00F9840F60041C4F20101D2
:10109000884203D1FFE70120019018E00F9841F248
:1010A0000001C4F20101884203D1FFE70220009051
:1010B0000AE00F9941F20042C4F201020420914279
:1010C00008BF03200090FFE700980190FFE7019818
:1010D0000290FFE702980D9901F00301890000FAE0
:1010E00001F10A9808430A900A980D9921F003012A
:1010F0000822C4F2010288500E988079C0060028A8
:1011000009D5FFE70B9A40F20841C4F201010868D3
:101110001043086008E00B9A40F20841C4F2010154
:10112000086890430860FFE70E98807980060028E1
:1011300009D5FFE70B9A40F20C41C4F2010108689F
:101140001043086008E00B9A40F20C41C4F2010120
:10115000086890430860FFE70E98807980070028B0
:1011600009D5FFE70B9A40F20441C4F20101086877
:101170001043086008E00B9A40F20441C4F20101F8
:10118000086890430860FFE70E988079C00748B16F
:10119000FFE70B9A40F20041C4F2010108681043D6
:1011A000086008E00B9A40F20041C4F201010868AF
:1011B00090430860FFE7FFE7FFE70D9801300D90CF
:1011C00079E610B07047000082B00190ADF80210CF
:1011D0008DF801209DF8010028B1FFE7BDF802005D
:1011E0000199086105E0BDF8020000040199086159
:1011F000FFE702B07047000040F20820C2F2000092
:101200000068704740F21000C2F20000027840F21D
:101210000821C2F20001086810440860704700000D
:1012200080B542F20001C4F20201086840F01000EB
:101230000860032000F0A0F80F2000F005F800F08F
:101240003BF8002080BD000080B582B0009040F2E5
:101250000000C2F20000006840F21001C2F200017A
:101260000A784FF47A71B1FBF2F1B0FBF1F000F0C3
:101270004FFF20B1FFE701208DF8070018E000982C
:101280000F280DD8FFE700994FF0FF30002200F043
:1012900059F8009840F21401C2F20001086003E01E
:1012A00001208DF8070003E000208DF80700FFE71C
:1012B0009DF8070002B080BD83B0FFE741F218003F
:1012C000C4F20200016841F001010160006800F011
:1012D000010002900298FFE7FFE741F21C00C4F210
:1012E0000200016841F080510160006800F0805008
:1012F00001900198FFE7FFE70421C4F201010868AB
:101300000090009820F0E0600090009840F000709D
:10131000009000980860FFE703B0704780B582B086
:101320008DF807009DF9070002F07CFF02B080BD38
:1013300080B582B08DF807009DF9070002F08EFF9E
:1013400002B080BD80B586B08DF81700049103927D
:101350000020029002F09AFF02909DF91700019080
:1013600002980499039A02F0F7F80146019802F0F6
:1013700095FF06B080BD000080B582B00190019855
:1013800002F0AEFF02B080BD80B588B007900020AB
:101390000690059004900390029007980190012810
:1013A00066D0FFE70198022800F0A580FFE70198CA
:1013B000102840F0B080FFE741F20400C4F20200C0
:1013C0000068039041F20000C4F202000068C0010E
:1013D00000284CD5FFE70398C0F3834145F66670BB
:1013E000C0F60000405C04909DF80E00C007F0B10C
:1013F000FFE741F20400C4F202000068C0F340417C
:1014000045F67670C0F60000405C06909DF80E0030
:10141000C00758B1FFE7069941F20020C0F27A00F8
:10142000B0FBF1F0049948430590FFE707E004980A
:1014300040F60011C0F23D0148430590FFE741F23C
:101440000400C4F2020000684002002803D5FFE750
:10145000059802900AE0059840004AF6AB21CAF6CA
:10146000AA21A0FB011040080290FFE7FFE753E02C
:1014700041F22000C4F2020000680390039800F4D7
:101480004070B0F5807F0AD1FFE79DF80C0080071F
:10149000002804D5FFE74FF4004002902AE00398AB
:1014A00000F44070B0F5007F0DD1FFE741F2240059
:1014B000C4F2020000688007002804D5FFE749F65F
:1014C0004040029015E0039800F44070B0F5407F72
:1014D0000DD1FFE741F20000C4F202000068800372
:1014E000002804D5FFE74FF22440029000E0FFE718
:1014F000FFE7FFE710E000F029FA41F20401C4F22F
:101500000201096801F44042022101EB5231B0FBB3
:10151000F1F0029000E0FFE7029808B080BD000003
:1015200080B586B004900020039002900498007863
:10153000C007002800F0AC80FFE700208DF807000E
:1015400041F21C00C4F202000068C000002813D45D
:10155000FFE7FFE741F21C00C4F20200016841F01E
:1015600080510160006800F0805000900098FFE713
:1015700001208DF80700FFE747F20000C4F20000E9
:101580000068C005002822D4FFE747F20001C4F23A
:101590000001086840F480700860FFF72DFE03909A
:1015A000FFE747F20000C4F200000068C005002811
:1015B0000CD4FFE7FFF720FE0399401A652804D3F7
:1015C000FFE703208DF817008AE0EAE7FFE741F222
:1015D0002000C4F20200006800F4407002900298FB
:1015E000E0B3FFE702980499496801F4407188422A
:1015F00034D0FFE741F22001C4F20201086820F470
:101600004070029040F24042C4F242220120106039
:1016100000201060029808609DF80800C007E0B143
:10162000FFE7FFF7E9FD0390FFE741F22000C4F276
:1016300002000068800700280ED4FFE7FFF7DCFDFA
:101640000399401A41F28931884204D3FFE703200D
:101650008DF8170044E0E8E7FFE7FFE741F22001DB
:10166000C4F20201086820F44070049A52681043E2
:1016700008609DF80700012809D1FFE741F21C012D
:10168000C4F20201086820F080500860FFE7FFE71D
:1016900004980078800700280CD5FFE741F2040188
:1016A000C4F20201086820F44040049A9268104392
:1016B0000860FFE704980078C00600280CD5FFE713
:1016C00041F20401C4F20201086820F48000049A87
:1016D000D26810430860FFE700208DF81700FFE78D
:1016E0009DF8170006B080BD80B584B002900191CE
:1016F000029820B9FFE701208DF80F001BE1019847
:1017000042F20001C4F20201096801F007018842B7
:1017100016D9FFE742F20000C4F20200016821F08E
:101720000701019A11430160006800F00700019968
:10173000884204D0FFE701208DF80F00FBE0FFE7AF
:1017400002980078800700282AD5FFE702980078E1
:101750004007002809D5FFE741F20401C4F2020165
:10176000086840F4E0600860FFE70298007800072E
:10177000002809D5FFE741F20401C4F2020108681C
:1017800040F460500860FFE741F20401C4F2020136
:10179000086820F0F000029A926810430860FFE7A2
:1017A00002980078C007002860D0FFE702984068E0
:1017B00001280ED1FFE741F20000C4F202000068E8
:1017C0008003002804D4FFE701208DF80F00B2E069
:1017D00021E00298406802280ED1FFE741F20000A4
:1017E000C4F2020000688001002804D4FFE7012051
:1017F0008DF80F009FE00DE041F20000C4F20200FE
:1018000000688007002804D4FFE701208DF80F004E
:1018100091E0FFE7FFE741F20401C4F2020108682A
:1018200020F00300029A526810430860FFF7E4FCBE
:101830000090FFE741F20400C4F20200006800F0EB
:101840000C0002994968B0EB810F0ED0FFE7FFF75B
:10185000D3FC0099401A41F28931884204D3FFE752
:1018600003208DF80F0066E0E4E7FFE7019842F2FD
:101870000001C4F20201096801F00701884216D292
:10188000FFE742F20000C4F20200016821F0070104
:10189000019A11430160006800F007000199884235
:1018A00004D0FFE701208DF80F0044E0FFE7029825
:1018B0000078400700280CD5FFE741F20401C4F28C
:1018C0000201086820F4E060029AD26810430860C0
:1018D000FFE702980078000700280DD5FFE741F2E6
:1018E0000401C4F20201086820F46050029A1269EF
:1018F00040EAC2000860FFE700F03AF841F2040154
:10190000C4F202010968C9B20A0945F64E71C0F66F
:101910000001895CC84040F20001C2F20001086089
:1019200040F21400C2F200000068FFF78DFC0020B6
:101930008DF80F00FFE79DF80F0004B080BD000098
:1019400040F20000C2F200000068704780B5FFF767
:10195000F7FF41F20401C4F202010968C1F3C22297
:1019600045F65E71C0F60001895CC84080BD00008C
:1019700086B000200590049003900290019041F2FF
:101980000400C4F2020000680590059800F00C0005
:101990000146009100283FD0FFE70098042804D0BA
:1019A000FFE70098082806D037E041F20020C0F297
:1019B0007A00019037E00598C0F3834145F67870CE
:1019C000C0F60000405C02909DF81600C007C0B150
:1019D000FFE741F20400C4F202000068C0F3404196
:1019E00045F68870C0F60000405C0490029841F211
:1019F0000021C0F27A0148430499B0FBF1F0039052
:101A000007E0029840F60011C0F23D014843039000
:101A1000FFE70398019006E0FFE741F20020C0F2E3
:101A20007A000190FFE7019806B0704780B588B052
:101A30000790069105920020049003900290019077
:101A4000022102910321049103904FF480700190D0
:101A5000FFE741F21800C4F20200016841F00401FE
:101A60000160006800F0040000900098FFE740F675
:101A70000000C4F2010001A9FFF716FA41F20401C7
:101A8000C4F20201086820F0E060069A1043086082
:101A900008B080BD80B586B00490049820B9FFE7F7
:101AA00001208DF817002EE304980078C007002865
:101AB00000F0AE80FFE741F20400C4F202000068CB
:101AC00000F00C00042813D0FFE741F20400C4F238
:101AD0000200006800F00C0008281BD1FFE741F26B
:101AE0000400C4F202000068C003002812D5FFE71A
:101AF00041F20000C4F2020000688003002808D50B
:101B0000FFE70498406820B9FFE701208DF817002F
:101B1000F9E27CE0FFE704984068B0F5803F09D126
:101B2000FFE741F20001C4F20201086840F480308E
:101B3000086032E00498406868B9FFE741F20001AC
:101B4000C4F20201086820F480300860086820F4BC
:101B50008020086020E004984068B0F5A02F0DD1E7
:101B6000FFE741F20001C4F20201086840F480205E
:101B70000860086840F4803008600CE041F2000121
:101B8000C4F20201086820F480300860086820F47C
:101B900080200860FFE7FFE7FFE7FFE70498406861
:101BA000D0B1FFE7FFF728FB0390FFE741F2000009
:101BB000C4F202000068800300280CD4FFE7FFF79E
:101BC0001BFB0399401A652804D3FFE703208DF817
:101BD000170098E2EAE719E0FFF70EFB0390FFE732
:101BE00041F20000C4F202000068800300280CD516
:101BF000FFE7FFF701FB0399401A652804D3FFE7CD
:101C000003208DF817007EE2EAE7FFE7FFE7FFE732
:101C1000049800788007002840F18D80FFE741F2AA
:101C20000400C4F20200006810F00C0F13D0FFE7AC
:101C300041F20400C4F20200006800F00C00082821
:101C400029D1FFE741F20400C4F202000068C0039A
:101C5000002820D4FFE741F20000C4F2020000682F
:101C60008007002809D5FFE704980069012804D0FF
:101C7000FFE701208DF8170045E241F20001C4F2B0
:101C80000201086820F0F800049A526940EAC20094
:101C90000860FFE74EE00498006958B3FFE70021B1
:101CA000C4F2422101200860FFF7A6FA0390FFE783
:101CB00041F20000C4F202000068800700280CD442
:101CC000FFE7FFF799FA0399401A032804D3FFE7C7
:101CD00003208DF8170016E2EAE741F20001C4F292
:101CE0000201086820F0F800049A526940EAC20034
:101CF00008601EE00021C4F2422100200860FFF7C6
:101D00007BFA0390FFE741F20000C4F20200006892
:101D1000800700280CD5FFE7FFF76EFA0399401AF9
:101D2000032804D3FFE703208DF81700EBE1EAE76F
:101D3000FFE7FFE7FFE7049800780007002848D591
:101D4000FFE70498806918B3FFE740F28041C4F2CE
:101D5000422101200860FFF74FFA0390FFE741F2AC
:101D60002400C4F202000068800700280CD4FFE7BA
:101D7000FFF742FA0399401A032804D3FFE7032030
:101D80008DF81700BFE1EAE7012001F0E5FE1FE052
:101D900040F28041C4F2422100200860FFF72CFA93
:101DA0000390FFE741F22400C4F2020000688007BC
:101DB00000280CD5FFE7FFF71FFA0399401A032804
:101DC00004D3FFE703208DF817009CE1EAE7FFE763
:101DD000FFE7049800784007002840F1D880FFE72B
:101DE00000208DF8070041F21C00C4F202000068D8
:101DF000C000002813D4FFE7FFE741F21C00C4F243
:101E00000200016841F080510160006800F08050DC
:101E100000900098FFE701208DF80700FFE747F2E8
:101E20000000C4F200000068C005002822D4FFE7CB
:101E300047F20001C4F20001086840F480700860B5
:101E4000FFF7DAF90390FFE747F20000C4F2000061
:101E50000068C00500280CD4FFE7FFF7CDF903990F
:101E6000401A652804D3FFE703208DF817004AE1E4
:101E7000EAE7FFE7FFE70498C068012809D1FFE718
:101E800041F22001C4F20201086840F0010008603C
:101E900031E00498C06868B9FFE741F22001C4F25C
:101EA0000201086820F001000860086820F00400C2
:101EB00008601FE00498C06805280DD1FFE741F2D3
:101EC0002001C4F20201086840F0040008600868BC
:101ED00040F0010008600CE041F22001C4F2020170
:101EE000086820F001000860086820F0040008601D
:101EF000FFE7FFE7FFE7FFE70498C068E0B1FFE70F
:101F0000FFF77AF90390FFE741F22000C4F20200E4
:101F10000068800700280ED4FFE7FFF76DF90399EA
:101F2000401A41F28931884204D3FFE703208DF83B
:101F30001700E8E0E8E71BE0FFF75EF90390FFE732
:101F400041F22000C4F202000068800700280ED58C
:101F5000FFE7FFF751F90399401A41F289318842AE
:101F600004D3FFE703208DF81700CCE0E8E7FFE794
:101F70009DF80700012809D1FFE741F21C01C4F2D6
:101F80000201086820F080500860FFE7FFE704982E
:101F9000C069002800F0B380FFE741F20400C4F2FA
:101FA0000200006800F00C00082800F08280FFE7C3
:101FB0000498C06902285CD1FFE76021C4F2422185
:101FC00000200860FFF718F90390FFE741F20000D6
:101FD000C4F202000068800100280CD5FFE7FFF77B
:101FE0000BF90399401A032804D3FFE703208DF867
:101FF000170088E0EAE70498006AB0F5803F0CD14A
:10200000FFE741F20401C4F20201086820F4003045
:10201000049A926810430860FFE741F20401C4F299
:102020000201086820F47410049B1A6A5B6A1A4360
:10203000104308606021C4F2422101200860FFF7CC
:10204000DBF80390FFE741F20000C4F202000068F1
:10205000800100280CD4FFE7FFF7CEF80399401A5F
:10206000032804D3FFE703208DF817004BE0EAE7CD
:102070001EE06021C4F2422100200860FFF7BCF896
:102080000390FFE741F20000C4F202000068800103
:1020900000280CD5FFE7FFF7AFF80399401A032893
:1020A00004D3FFE703208DF817002CE0EAE7FFE7F1
:1020B00024E00498C069012804D1FFE701208DF8CD
:1020C000170020E041F20400C4F202000068029010
:1020D000029800F480300499096A884208D1FFE729
:1020E000029800F470100499496A884204D0FFE70E
:1020F00001208DF8170006E0FFE7FFE7FFE700206B
:102100008DF81700FFE79DF8170006B080BD0000AE
:1021100080B582B00190019801F03EFD02B080BD13
:1021200081B0009001B0704781B0009001B070475D
:1021300085B003900291FFE7039890F83C000128D6
:1021400004D1FFE702208DF813005BE00399012022
:1021500081F83C00FFE7FFE70399022081F83D008A
:1021600003980068406801900398006880680090B8
:10217000019820F0700001900298016801980843CE
:10218000019001980399096848600398006842F635
:102190000041C4F20101884218D0FFE703980068AB
:1021A000B0F1804F12D0FFE70398006840F2004181
:1021B000C4F20001884209D0FFE70398006840F6A6
:1021C0000001C4F2000188420ED1FFE7009820F020
:1021D00080000090029841680098084300900098A1
:1021E000039909688860FFE70399012081F83D00A1
:1021F000FFE70399002081F83C00FFE700208DF8FD
:102200001300FFE79DF8130005B0704781B0009000
:10221000009890F83D0001B07047000080B582B092
:102220000090009820B9FFE701208DF807003FE0FB
:10223000009890F83D0040B9FFE70099002081F830
:102240003C00009800F038F8FFE70099022081F880
:102250003D00009951F8040B01F034FD0099012074
:1022600081F84600FFE70099012081F83E000099BF
:1022700081F83F00009981F84000009981F8410001
:10228000FFE7FFE70099012081F84200009981F8FB
:102290004300009981F84400009981F84500FFE768
:1022A0000099012081F83D0000208DF80700FFE72C
:1022B0009DF8070002B080BD80B586B005900598F6
:1022C000006842F60041C4F20101884219D1FFE7DB
:1022D000FFE741F21800C4F20200016841F4006116
:1022E0000160006800F4006004900498FFE7192082
:1022F000019000221146FFF725F80198FFF718F822
:1023000039E005980068B0F1804F19D1FFE7FFE789
:1023100041F21C00C4F20200016841F001010160B9
:10232000006800F0010003900398FFE71C20009074
:1023300000221146FFF706F80098FEF7F9FF19E0B2
:102340000598006840F20041C4F20001884210D1B3
:10235000FFE7FFE741F21C00C4F20200016841F010
:1023600002010160006800F0020002900298FFE79D
:10237000FFE7FFE7FFE706B080BD000083B00190F4
:10238000019890F83D00012804D0FFE701208DF866
:102390000B0041E00199022081F83D00019800689E
:1023A00042F60041C4F20101884218D0FFE70198CB
:1023B0000068B0F1804F12D0FFE70198006840F24A
:1023C0000041C4F20001884209D0FFE7019800688B
:1023D00040F60001C4F20001884212D1FFE70198E3
:1023E0000068806800F0070000900098062807D079
:1023F000FFE701980168086840F001000860FFE706
:1024000006E001980168086840F001000860FFE7F5
:1024100000208DF80B00FFE79DF80B0003B070471C
:1024200083B00190019890F83D00012804D0FFE7A7
:1024300001208DF80B0047E00199022081F83D0052
:1024400001980168C86840F00100C8600198006800
:1024500042F60041C4F20101884218D0FFE701981A
:102460000068B0F1804F12D0FFE70198006840F299
:102470000041C4F20001884209D0FFE701980068DA
:1024800040F60001C4F20001884212D1FFE7019832
:102490000068806800F0070000900098062807D0C8
:1024A000FFE701980168086840F001000860FFE755
:1024B00006E001980168086840F001000860FFE745
:1024C00000208DF80B00FFE79DF80B0003B070476C
:1024D00081B00090FFE700980068006A41F2111196
:1024E000084210D1FFE700980068006A40F24441BA
:1024F000084207D1FFE700980168086820F0010052
:102500000860FFE7FFE7FFE70099012081F83D0041
:10251000002001B07047000080B586B004900391A0
:1025200000208DF80B00FFE7049890F83C0001288C
:1025300004D1FFE702208DF81700ABE004990120D9
:1025400081F83C00FFE7FFE70499022081F83D0095
:102550000498006880680190019820F0770001904D
:10256000019820F47F4001900198049909688860DF
:10257000039800680090002872D0FFE700981028A8
:102580006ED0FFE7009820286AD0FFE70098302837
:1025900066D0FFE70098402855D0FFE70098502804
:1025A00037D0FFE70098602840D0FFE700987028F8
:1025B0000BD0FFE70098B0F5805F05D0FFE70098EB
:1025C000B0F5005F16D052E055E004980068039B18
:1025D0005A689968DB6801F015FC04980068806807
:1025E0000190019840F077000190019804990968E2
:1025F000886040E004980068039B5A689968DB682B
:1026000001F000FC04980168886840F4804088600C
:1026100031E004980068039A5168D26801F0AEFD79
:1026200004980068502101F007FC24E00498006839
:10263000039A5168D26801F0C9FD049800686021CE
:1026400001F0FAFB17E004980068039A5168D26819
:1026500001F094FD04980068402101F0EDFB0AE0D0
:10266000049800680399096801F0E6FB03E0012083
:102670008DF80B00FFE70499012081F83D00FFE78A
:102680000499002081F83C00FFE79DF80B008DF8CD
:102690001700FFE79DF8170006B080BD81B00090DD
:1026A00001B0704781B0009001B0704780B584B030
:1026B000039003980068C06802900398006800695E
:1026C00001909DF804008007002824D5FFE79DF8BD
:1026D0000800800700281DD5FFE7039801686FF008
:1026E0000200086103990120087703980068806957
:1026F000800720B1FFE70398FFF7D0FF06E00398BB
:1027000000F064F9039800F0CFFAFFE70399002086
:102710000877FFE7FFE79DF804004007002825D56C
:10272000FFE79DF80800400700281ED5FFE7039843
:1027300001686FF00400086103990220087703988C
:102740000068806910F4407F04D0FFE70398FFF72A
:10275000A5FF06E0039800F039F9039800F0A4FA09
:10276000FFE7039900200877FFE7FFE79DF80400E3
:102770000007002824D5FFE79DF80800000700287F
:102780001DD5FFE7039801686FF008000861039901
:102790000420087703980068C069800720B1FFE72C
:1027A0000398FFF77BFF06E0039800F00FF903980A
:1027B00000F07AFAFFE7039900200877FFE7FFE7C8
:1027C0009DF80400C006002825D5FFE79DF8080005
:1027D000C00600281ED5FFE7039801686FF01000BF
:1027E000086103990820087703980068C06910F40D
:1027F000407F04D0FFE70398FFF750FF06E00398FF
:1028000000F0E4F8039800F04FFAFFE70399002086
:102810000877FFE7FFE79DF80400C00778B1FFE7FE
:102820009DF80800C00748B1FFE7039801686FF002
:1028300001000861039800F05DFBFFE7FFE79DF8EA
:1028400004000006002810D5FFE79DF808000006E8
:10285000002809D5FFE7039801686FF08000086140
:102860000398FFF75DFCFFE7FFE79DF804004006D3
:10287000002810D5FFE79DF808004006002809D57C
:10288000FFE7039801686FF040000861039800F0CB
:10289000FFFBFFE7FFE79DF804008006002810D546
:1028A000FFE79DF808008006002809D5FFE7039898
:1028B00001686FF0200008610398FFF735FCFFE71F
:1028C000FFE704B080BD000080B586B00590002011
:1028D00004900390029001900598006840F6000172
:1028E000C4F2000188421CD1FFE7FFE741F2180063
:1028F000C4F20200016841F008010160006800F0C4
:10290000080000900098FFE7C0200190022002908C
:10291000049040F60040C4F2010001A9FEF7C4FA99
:10292000FFE706B080BD000080B586B0049003913B
:10293000029200208DF80700FFE7049890F83C0011
:10294000012804D1FFE702208DF817003AE004992E
:10295000012081F83C00FFE7FFE7029800900C2877
:1029600021D80099DFE801F0071F1F1F0D1F1F1F4F
:10297000131F1F1F190004980068039901F072FAD1
:1029800015E004980068039901F0D4FA0FE0049868
:102990000068039901F03AFB09E004980068039984
:1029A00001F0A0FB03E001208DF80700FFE7FFE73F
:1029B0000499002081F83C00FFE79DF807008DF89E
:1029C0001700FFE79DF8170006B080BD81B00090AA
:1029D00001B0704780B582B00090009820B9FFE741
:1029E00001208DF807003FE0009890F83D0040B9C5
:1029F000FFE70099002081F83C00009800F038F8CB
:102A0000FFE70099022081F83D00009951F8040B7E
:102A100001F058F90099012081F84600FFE700997C
:102A2000012081F83E00009981F83F00009981F86B
:102A30004000009981F84100FFE7FFE7009901207D
:102A400081F84200009981F84300009981F8440020
:102A5000009981F84500FFE70099012081F83D00C9
:102A600000208DF80700FFE79DF8070002B080BD49
:102A700081B0009001B0704780B586B0049003919A
:102A8000029200208DF80700FFE7049890F83C00C0
:102A9000012804D1FFE702208DF8170089E004998E
:102AA000012081F83C00FFE7FFE7029800900C2826
:102AB00000F270800099DFE801F0076D6D6D206D08
:102AC0006D6D3A6D6D6D530004980068039901F0C7
:102AD000C9F904980168886940F008008861049881
:102AE0000168886920F004008861039802690498ED
:102AF000016888691043886150E004980068039970
:102B000001F018FA04980168886940F4006088614F
:102B100004980168886920F48060886103980269DC
:102B200004980168886940EA0220886136E00498C8
:102B30000068039901F06AFA04980168C86940F0D6
:102B40000800C86104980168C86920F00400C861E1
:102B50000398026904980168C8691043C8611DE0C0
:102B600004980068039901F0BDFA04980168C869E7
:102B700040F40060C86104980168C86920F480606E
:102B8000C8610398026904980168C86940EA022094
:102B9000C86103E001208DF80700FFE7FFE7049913
:102BA000002081F83C00FFE79DF807008DF8170032
:102BB000FFE79DF8170006B080BD000080B582B029
:102BC0000090009820B9FFE701208DF807003FE052
:102BD000009890F83D0040B9FFE70099002081F887
:102BE0003C00009800F038F8FFE70099022081F8D7
:102BF0003D00009951F8040B01F064F800990120A0
:102C000081F84600FFE70099012081F83E00009915
:102C100081F83F00009981F84000009981F8410057
:102C2000FFE7FFE70099012081F84200009981F851
:102C30004300009981F84400009981F84500FFE7BE
:102C40000099012081F83D0000208DF80700FFE782
:102C50009DF8070002B080BD80B584B00390039852
:102C6000006840F60001C4F20001884219D1FFE774
:102C7000FFE741F21C00C4F20200016841F00401C8
:102C80000160006800F0040002900298FFE71E2037
:102C9000019000221146FEF755FB0198FEF748FB14
:102CA000FFE704B080BD000081B0009001B0704724
:102CB00080B58AB008900791079828B9FFE708986F
:102CC00090F83E0005901CE00798042805D1FFE726
:102CD000089890F83F00049010E00798082805D164
:102CE000FFE7089890F84000039004E0089890F8F7
:102CF00041000390FFE703980490FFE704980590D4
:102D0000FFE70598012804D0FFE701208DF8270090
:102D10007AE0079828B9FFE70899022081F83E0079
:102D20001EE00798042806D1FFE70899022081F8E1
:102D30003F00029012E00798082806D1FFE70899A3
:102D4000022081F84000019005E00899022081F8F6
:102D500041000190FFE701980290FFE70298FFE72A
:102D6000089800680799012201F030F80898006877
:102D700042F60041C4F20101884207D1FFE70898FA
:102D80000168486C40F400404864FFE70898006818
:102D900042F60041C4F20101884218D0FFE70898CA
:102DA0000068B0F1804F12D0FFE70898006840F249
:102DB0000041C4F20001884209D0FFE7089800688A
:102DC00040F60001C4F20001884212D1FFE70898E2
:102DD0000068806800F0070006900698062807D073
:102DE000FFE708980168086840F001000860FFE705
:102DF00006E008980168086840F001000860FFE7F5
:102E000000208DF82700FFE79DF827000AB080BD5D
:102E100080B584B003900291039800680299002263
:102E200000F0D4FF0398006842F60041C4F20101AB
:102E300088421BD1FFE7FFE703980068006A41F270
:102E40001111084210D1FFE703980068006A40F2B0
:102E50004441084207D1FFE703980168486C20F419
:102E600000404864FFE7FFE7FFE7FFE7FFE703985D
:102E70000068006A41F21111084210D1FFE703987F
:102E80000068006A40F24441084207D1FFE7039816
:102E90000168086820F001000860FFE7FFE7FFE72E
:102EA000029828B9FFE70399012081F83E001EE04F
:102EB0000298042806D1FFE70399012081F83F001A
:102EC000019012E00298082806D1FFE7039901203B
:102ED00081F84000009005E00399012081F841004D
:102EE0000090FFE700980190FFE70198FFE70020BE
:102EF00004B080BD80B584B0039003980068B0F141
:102F0000804F58D1FFE740F28001C2F2000108680B
:102F10000130086040F28800C2F20000007820B35F
:102F2000FFE740F28000C2F20000006840F2840136
:102F3000C2F200010968884216D3FFE740F600009C
:102F4000C4F201004FF4004100220292FEF73CF966
:102F5000029840F28801C2F20001087040F280013C
:102F6000C2F200010860FFE724E040F28000C2F2F4
:102F70000000006840F28C01C2F20001096888423A
:102F800017D3FFE740F60000C4F201004FF4004100
:102F900001220192FEF718F9019840F28801C2F26D
:102FA0000001087040F28001C2F2000100200860B8
:102FB000FFE7FFE7FFE70398006840F60001C4F26F
:102FC0000001884224D1FFE740F2F810C2F200006D
:102FD000016801310160006840F2FC11C2F2000199
:102FE0000968884213D3FFE740F2A810C2F200003C
:102FF00000900021FFF70CFF00980421FFF708FF65
:1030000000980168C86820F00100C860FFE7FFE78A
:103010000398006842F60041C4F20101884234D1AD
:10302000FFE740F29D00C2F20000007890B9FFE790
:1030300040F2F410C2F2000000780A280AD1FFE73B
:103040000A2001F0B9F940F29D01C2F2000101200D
:10305000087019E040F29D00C2F2000000780128DB
:1030600011D1FFE740F2F410C2F2000000780A2804
:1030700009D1FFE701F028FF40F29D01C2F20001F3
:1030800000200870FFE7FFE7FFE704B080BD000005
:1030900081B0009001B07047FFE7FEE780B584B0D3
:1030A000002103910291019140F2A000C2F20000C0
:1030B000009042F20042C4F201020260816001739A
:1030C00001754FF46022C261416001210161FDF789
:1030D00071FC18B1FFE7FDF7DBF9FFE7082001906D
:1030E000012002900020039040F2A000C2F20000F4
:1030F00001A9FDF7B3FA18B1FFE7FDF7C9F9FFE73A
:1031000004B080BD80B594B000201390129011904F
:103110001090FFE741F21800C4F20200016841F08C
:1031200010010160006800F010000F900F98FFE799
:10313000FFE741F21800C4F20200016841F02001EB
:103140000160006800F020000E900E98FFE7FFE796
:1031500041F21800C4F20200016841F0040101606C
:10316000006800F004000D900D98FFE7FFE741F2C2
:103170001800C4F20200016841F008010160006813
:1031800000F008000C900C98FFE741F20000C4F238
:10319000010002904FF40051019100220A92FEF7C3
:1031A00013F80A9A40F60000C4F20100079048F2B2
:1031B000FF010391FEF708F80A9A40F60040C4F2B6
:1031C0000100089040F602710591FDF7FDFF019A9C
:1031D00002980A99109201220492119212910221EE
:1031E0000691139110A90991FDF75EFEDDF810C05C
:1031F000069A079809990A9BDDF80CE0CDF840E0A3
:10320000CDF844C012931392FDF74EFEDDF810C0C6
:10321000069A089809990A9BDDF814E0CDF840E079
:10322000CDF844C012931392FDF73EFE0898099919
:103230000A9A4FF48053109311921292FDF734FEC4
:10324000069A079809994FF480731093119213927C
:10325000FDF72AFE089809990A9A10231093002373
:10326000C1F2210311931292FDF71EFE0A9A0A2061
:103270000B901146FEF766F80B98FEF759F814B05C
:1032800080BD000080B588B00021009107910691B3
:10329000059104910391029140F2D000C2F2000026
:1032A000019042F60042C4F20102026044F24F6211
:1032B0004260816040F2E732C26001614161816138
:1032C000FEF7ACFF18B1FFE7FDF7E2F8FFE74FF4B8
:1032D0008050049040F2D000C2F2000004A9FFF731
:1032E0001BF918B1FFE7FDF7D3F8FFE700200290C4
:1032F000039040F2D000C2F2000002A9FEF718FFCE
:1033000018B1FFE7FDF7C4F8FFE708B080BD000083
:1033100080B590B0002102910F910E910D910C910A
:103320000B910A91099108910791069105910491D9
:10333000039140F21810C2F200004FF08042026088
:1033400041F61F42426081600922C2600161802112
:103350008161FEF763FF18B1FFE7FDF799F8FFE71A
:103360004FF480500C9040F21810C2F200000CA9EB
:10337000FFF7D2F818B1FFE7FDF78AF8FFE740F250
:103380001810C2F20000FFF725FB18B1FFE7FDF7A8
:103390007FF8FFE700200A900B9040F21810C2F26D
:1033A00000000AA9FEF7C4FE18B1FFE7FDF770F8A8
:1033B000FFE70022039204920592079240F2181050
:1033C000C2F2000003A9FFF7AFFA18B1FFE7FDF75B
:1033D0005FF8FFE740F21810C2F20000026891693E
:1033E00041F008019161FFF743FB1C20019001218E
:1033F0000022FDF7A7FF0198FDF79AFF10B080BDEE
:1034000080B588B000210191079106910591049142
:103410000391029140F26010C2F2000040F20042BB
:10342000C4F2000202604722426081604FF6FF72E0
:10343000C26001618161FEF7F1FE18B1FFE7FDF79F
:1034400027F8FFE74FF48050049040F26010C2F27A
:10345000000004A9FFF760F818B1FFE7FDF718F8BE
:10346000FFE700200290039040F26010C2F20000DB
:1034700002A9FEF75DFE18B1FFE7FDF709F8FFE7C7
:1034800040F26010C2F20000FFF70CF908B080BDF6
:1034900080B58AB0002100910991089107910691A9
:1034A00005910491039102910191069140F2A810B7
:1034B000C2F2000040F60002C4F200020260416065
:1034C000816040F20772C26001618161FFF776FBA3
:1034D00018B1FFE7FCF7DCFFFFE700200890099038
:1034E00040F2A810C2F2000008A9FEF721FE18B1B0
:1034F000FFE7FCF7CDFFFFE7602001904FF461701C
:103500000290002203920420059040F2A810C2F21B
:10351000000001A9FFF7B0FA18B1FFE7FCF7B8FF08
:10352000FFE70220039040F2A810C2F2000001A9B8
:103530000422FFF7A1FA18B1FFE7FCF7A9FFFFE7A4
:1035400040F2A810C2F20000FFF7BEF90AB080BD39
:10355000FFE7FEE7FFE7FEE788B0079006910592D8
:10356000079800F0070004900498C0F107000528B0
:1035700003D3FFE70420019004E00498C0F10700A2
:103580000190FFE70198039004980430062803D8BF
:10359000FFE70020009003E0049803380090FFE765
:1035A0000098029006980399012202FA01F101396C
:1035B0000840029B984005999A40013A11400843FF
:1035C00008B0704780B582B000208DF80600FFE794
:1035D0009DF80600072820DCFFE79DF80600002183
:1035E000009100F05BF900988DF80700FFE79DF867
:1035F00007007F280ADCFFE7002000F097FAFFE7CA
:103600009DF8070001308DF80700F0E7FFE79DF80F
:10361000060001308DF80600DAE702B080BD000038
:1036200080B58AB000200990089007900690FFE7C7
:1036300041F21800C4F20200016841F00801016083
:10364000006800F0080005900598FFE74FF48070CF
:10365000019006900120049007900320099040F605
:103660000040C4F20100029006A90091FDF71CFC85
:10367000009902984FF4007203920692FDF714FC31
:1036800001990298049AFDF79FFD02980399049A04
:10369000FDF79AFD0AB080BD80B586B08DF81700A1
:1036A00000208DF81600FFE79DF81600072836DC8D
:1036B000FFE79DF81700000600280AD5FFE740F64F
:1036C0000040C4F201004FF400710122FDF77CFDBF
:1036D00009E040F60040C4F201004FF400710022FE
:1036E000FDF772FDFFE740F60040C4F201000390D1
:1036F0004FF4807104910122FDF766FD039804994F
:103700000022FDF761FD9DF8170040008DF81700BD
:10371000FFE79DF8160001308DF81600C4E740F66B
:103720000040C4F2010001904FF4007101220092A8
:10373000FDF74AFD009A01984FF480710291FDF760
:1037400043FD019802990022FDF73EFD06B080BDC1
:1037500080B586B040F60040C4F2010003904FF4FB
:103760000071029101220192FDF72EFD019A03984A
:103770004FF480710491FDF727FD02990398002210
:103780000592FDF721FD03980499059AFDF71CFDAC
:1037900006B080BD80B586B040F60040C4F201009E
:1037A00003904FF48071029100220192FDF70CFD0D
:1037B000019A03984FF400710491FDF705FD0299F9
:1037C000039801220592FDF7FFFC03980499059ADE
:1037D000FDF7FAFC06B080BD80B56420FDF71AFB4A
:1037E000FFF71EFFAE2000F08DF9D52000F08AF91A
:1037F000802000F087F9A82000F084F93F2000F035
:1038000081F9D32000F07EF9002000F07BF9402000
:1038100000F078F9A12000F075F9C82000F072F9E5
:10382000DA2000F06FF9122000F06CF9812000F02E
:1038300069F9CF2000F066F9D92000F063F9F12092
:1038400000F060F9DB2000F05DF9302000F05AF95B
:10385000A42000F057F9A62000F054F98D2000F0C4
:1038600051F9142000F04EF9AF2000F04BF9FFF7AA
:10387000A9FE80BD83B00290019101200090FFE776
:103880000198411E019128B1FFE702990098484331
:103890000090F5E7009803B07047000080B582B053
:1038A0008DF807008DF806109DF80700B030C0B203
:1038B00000F028F99DF806000009103000F022F908
:1038C0009DF8060000F00F0000F01CF902B080BD6A
:1038D00080B582B08DF807008DF806108DF80520B0
:1038E0009DF8050020388DF803009DF807106FF053
:1038F000010000EB41009DF806206FF0070101EB8D
:10390000C201C0B2C9B2FFF7C9FF00208DF80400A0
:10391000FFE79DF80400072814DCFFE79DF803107B
:1039200045F68A70C0F6000000EB01109DF8041007
:10393000405C00F0FBF8FFE79DF8040001308DF8D3
:103940000400E6E79DF807104FF0FF3000EB410060
:103950009DF806206FF0070101EBC201C0B2C9B2A9
:10396000FFF79CFF00208DF80400FFE79DF804009E
:10397000072815DCFFE79DF8031045F68A70C0F6AE
:10398000000000EB01119DF804000844007A00F0EB
:10399000CDF8FFE79DF8040001308DF80400E5E75D
:1039A00002B080BD80B586B08DF817008DF8161076
:1039B00004928DF80F30049802F0D4F80190019829
:1039C00002F008F90146049802F04CFA04906420D1
:1039D0000290029802F0FEF8049902F077F902F0E2
:1039E000C1F800909DF817009DF81610019A9DF8F7
:1039F0000F3000F01BF89DF817009DF816109DF889
:103A00000F201144C9B22E22FFF762FF9DF8170064
:103A10009DF816109DF80F2011440131009AC9B28B
:103A2000022300F003F806B080BD000080B586B028
:103A30008DF817008DF8161004928DF80F300020C5
:103A40008DF80E00FFE79DF80E009DF80F108842DC
:103A50002FDAFFE79DF8170002909DF816109DF8E9
:103A60000E0001440191049900919DF80F10C0438C
:103A700001440A20FFF7FEFE009A019903460298CE
:103A8000B2FBF3F24CF6CD43CCF6CC43A2FB03C31E
:103A9000DB0803EB8303A2EB430242F03002C9B21E
:103AA000FFF716FFFFE79DF80E0001308DF80E00BE
:103AB000C9E706B080BD000080B584B08DF80F0066
:103AC0008DF80E10029200208DF80700FFE7029893
:103AD0009DF80710405C90B1FFE79DF80F009DF83E
:103AE0000E109DF807301944029AD25CC9B2FFF754
:103AF000EFFE9DF8070001308DF80700E7E704B0FE
:103B000080BD000080B582B08DF80700FFF720FE71
:103B10007820FFF7C1FD0020FFF7BEFD9DF80700EC
:103B2000FFF7BAFDFFF736FE02B080BD80B582B068
:103B30008DF80700FFF70CFE7820FFF7ADFD402061
:103B4000FFF7AAFD9DF80700FFF7A6FDFFF722FE8D
:103B500002B080BD7047000082B00190019840F231
:103B60000001C2F200010968C90844F6D352C1F24B
:103B70006202A1FB0221890948430090FFE700BFD0
:103B8000FFE70098411E00910028F8D1FFE702B03E
:103B9000704700007047000080B582B00090009828
:103BA0000138B0F1807F03D3FFE70120019019E0D5
:103BB000009801384EF21401CEF2000108604FF077
:103BC000FF300F2100F06AFB4EF21801CEF2000127
:103BD000002008604EF21002CEF2000207211160B0
:103BE0000190FFE7019802B080BD000080B5FDF7AD
:103BF00009FB80BD80B596B00CA801902821FCF788
:103C0000F9FA0198002302930B930A9309930893FE
:103C10000793069305930493039301220C924FF4A8
:103C200080310D910E9310920222139214914FF451
:103C3000E0111591FDF72EFF18B1FFE7FCF728FC06
:103C4000FFE70F20079002210891002009904FF410
:103C500080620A920B9007A8FDF746FD18B1FFE7B6
:103C6000FCF716FCFFE7022003904FF4004005909C
:103C700003A8FDF755FC18B1FFE7FCF709FCFFE7C7
:103C80004FF0C06100221046FDF7D0FE16B080BD97
:103C90007047000080B540F2D000C2F20000FEF78D
:103CA00005FD80BD80B540F21810C2F20000FEF79D
:103CB000FDFC80BD80B540F2A810C2F20000FEF706
:103CC000F5FC80BD83B002900191029800680090DD
:103CD000029842F60041C4F20101884215D0FFE784
:103CE0000298B0F1804F10D0FFE7029840F20041F7
:103CF000C4F20001884208D0FFE7029840F60001B4
:103D0000C4F2000188420AD1FFE7009820F0700059
:103D1000009001984168009808430090FFE70298DE
:103D200042F60041C4F20101884215D0FFE7029833
:103D3000B0F1804F10D0FFE7029840F20041C4F28A
:103D40000001884208D0FFE7029840F60001C4F263
:103D5000000188420AD1FFE7009820F440700090EB
:103D60000198C168009808430090FFE7009820F090
:103D70008000019949690843009000980299086001
:103D8000019880680299C862019800680299886267
:103D9000029842F60041C4F20101884205D1FFE7D2
:103DA0000198006902990863FFE7029901204861C0
:103DB00002980069C00730B1FFE70299086920F056
:103DC00001000861FFE703B07047000084B0039072
:103DD00002910192029800F01F010120884000909A
:103DE000009A0399086A904308620198029901F0C9
:103DF0001F0100FA01F20399086A1043086204B037
:103E00007047000085B004900391029201930498DA
:103E100080680090009820F47F40009003980299F9
:103E2000019A41EA0221014300980843009000985A
:103E30000499886005B0704783B0029001910298A0
:103E400080680090009820F0700000900198009920
:103E5000084340F00700009000980299886003B082
:103E60007047000085B0049003910498006A0190A7
:103E70000499086A20F001000862049840680090E4
:103E8000049880690290029820F0700002900298D5
:103E900020F0030002900398016802980843029002
:103EA000019820F00200019003988168019808436E
:103EB0000190049842F60041C4F2010188420ED1FB
:103EC000FFE7019820F0080001900398C16801986D
:103ED00008430190019820F004000190FFE7049846
:103EE00042F60041C4F20101884213D1FFE7009875
:103EF00020F480700090009820F4007000900398E7
:103F0000416900980843009003988169009808432C
:103F10000090FFE70098049948600298049988612E
:103F2000039840680499486301980499086205B0B1
:103F30007047000085B0049003910498006A0190D6
:103F40000499086A20F01000086204984068009004
:103F5000049880690290029820F4E0400290029850
:103F600020F44070029003980168029840EA012012
:103F70000290019820F02000019003988168019838
:103F800040EA01100190049842F60041C4F2010198
:103F900088420FD1FFE7019820F08000019003983C
:103FA000C168019840EA01100190019820F040009A
:103FB0000190FFE7049842F60041C4F201018842F3
:103FC00015D1FFE7009820F480600090009820F45D
:103FD0000060009003984169009840EA81000090D9
:103FE00003988169009840EA81000090FFE70098FB
:103FF000049948600298049988610398406804997C
:10400000886301980499086205B0704785B00490F0
:1040100003910498006A01900499086A20F4807062
:1040200008620498406800900498C0690290029861
:1040300020F070000290029820F003000290039894
:104040000168029808430290019820F400700190E2
:1040500003988168019840EA01200190049842F693
:104060000041C4F2010188420FD1FFE7019820F41A
:10407000006001900398C168019840EA0120019016
:10408000019820F480600190FFE7049842F6004117
:10409000C4F20101884215D1FFE7009820F4805056
:1040A0000090009820F40050009003984169009817
:1040B00040EA0110009003988169009840EA0110DD
:1040C0000090FFE700980499486002980499C8613D
:1040D000039840680499C86301980499086205B080
:1040E0007047000085B0049003910498006A019025
:1040F0000499086A20F4805008620498406800908F
:104100000498C0690290029820F4E040029002985E
:1041100020F44070029003980168029840EA012060
:104120000290019820F40050019003988168019852
:1041300040EA01300190049842F60041C4F20101C6
:1041400088420BD1FFE7009820F48040009003984C
:104150004169009840EA81100090FFE700980499B7
:10416000486002980499C8610398406804990864FB
:1041700001980499086205B07047000085B004906A
:10418000039102920498006A00900499086A20F052
:1041900001000862049880690190019820F0F00005
:1041A00001900299019840EA01100190009820F0D6
:1041B0000A00009003990098084300900198049920
:1041C000886100980499086205B0704785B0049032
:1041D000039102920498006A00900499086A20F002
:1041E00010000862049880690190019820F47040E2
:1041F00001900299019840EA01300190009820F066
:10420000A00000900399009840EA011000900198E6
:104210000499886100980499086205B0704700000D
:10422000FFE7FEE781B08DF803009DF90300002849
:1042300012D4FFE79DF9031001F01F020120904006
:104240004A094EF28011CEF2000141F82200BFF37C
:104250004F8FBFF36F8FFFE701B0704781B08DF8CC
:1042600003009DF9030000280ED4FFE79DF9031019
:1042700001F01F02012090404A094EF20011CEF2D7
:10428000000141F82200FFE701B070474EF60C50E4
:10429000CEF200000068C0F30220704782B08DF8B3
:1042A000070000919DF9070000280AD4FFE7009855
:1042B00000019DF907104EF20042CEF20002885430
:1042C0000BE0009800019DF8071001F00F014EF679
:1042D0001452CEF200028854FFE702B0704700008B
:1042E00083B00290029800F0070000904EF60C5147
:1042F000CEF200010868019001984FF6FF021040CD
:1043000001900198009A40EA02200022C0F2FA527D
:10431000104301900198086003B0704780B582B0E7
:104320008DF807009DF8070040F2FC11C2F2000171
:10433000086040F2F810C2F200000021016040F273
:10434000A810C2F200000090FEF7B2FC0098042111
:10435000FEF7AEFC00980168C86840F00100C86034
:1043600002B080BD80B582B08DF807009DF80700CF
:1043700018B9FFE700F0AAF81CE09DF80700012833
:104380000CDBFFE79DF80700092807DCFFE700F0DA
:104390009BFD9DF8070000F00FF80AE09DF807006C
:1043A0000A2805D1FFE79DF8070000F005F8FFE7B0
:1043B000FFE7FFE702B080BD80B582B001900198B1
:1043C000012809DBFFE740F60000C4F201000122EA
:1043D0001146FCF7F9FEFFE70198022809DBFFE729
:1043E00040F60000C4F2010002210122FCF7ECFEBD
:1043F000FFE70198032809DBFFE740F60000C4F25D
:10440000010004210122FCF7DFFEFFE701980428E8
:1044100009DBFFE740F60000C4F201000821012299
:10442000FCF7D2FEFFE70198052809DBFFE740F61D
:104430000000C4F2010010210122FCF7C5FEFFE7D5
:104440000198062809DBFFE740F60000C4F20100EE
:1044500020210122FCF7B8FEFFE70198072809DBBD
:10446000FFE740F60000C4F2010040210122FCF702
:10447000ABFEFFE70198082809DBFFE740F60040A4
:10448000C4F2010004210122FCF79EFEFFE701981F
:1044900009280ADBFFE740F60040C4F201004FF4B0
:1044A00080610122FCF790FEFFE701980A280ADBF1
:1044B000FFE740F60040C4F201004FF40061012222
:1044C000FCF782FEFFE702B080BD000080B584B03B
:1044D00040F60000C4F20100009001220392114650
:1044E000FCF772FE0098039A0221FCF76DFE00981B
:1044F000039A04210191FCF767FE0098039A0821B2
:10450000FCF762FE0098039A1021FCF75DFE00980C
:10451000039A2021FCF758FE0098039A4021FCF7EB
:1045200053FE0199039A40F60040C4F20100029044
:10453000FCF74AFE0298039A4FF48061FCF744FEB0
:104540000298039A4FF40061FCF73EFE04B080BD70
:1045500080B5A2B000201D902190FCF761FE1D9A4D
:1045600040F60000C4F201004FF40041FCF72CFEBD
:10457000FFF740FBFEF7C6FDFEF78AFFFEF7C8FE19
:10458000FEF78CFDFEF73CFFFEF77CFE1D9840F227
:10459000F411C2F200010870FFF71EF940F2A0000A
:1045A000C2F200001790FBF78FFF1798FCF756FB3D
:1045B0001798FCF731F9ADF88200BDF8820001F0E0
:1045C00009FB43F23331CCF2530101F07FFB4FF092
:1045D0008B4101F0D1F901F00BF947F6E122CAF65F
:1045E00014624EF24713C3F6F67300F0E1FC4FF08D
:1045F000004249F6E043C3F6717300F081FD1D9A55
:104600000023CCF2390300F0D3FC1D9A48F20003DA
:10461000CCF2510300F0CCFC00F098FC1F90FEF7A8
:10462000D1FF46F29552C0F6000201211C910846C6
:10463000FFF742FA1C9946F29052C0F6000202209F
:104640001B90FFF739FA1C9946F28B52C0F6000214
:1046500003201990FFF730FA1F9801F083FA024601
:104660001B98052118910423FFF7E0F91899199B6D
:1046700040F21800C2F2000002881846FFF7D6F98F
:104680001D9840F20801C2F20001086040F20C01DE
:10469000C2F200014FF4C8700860FBF7B9FE40F2A7
:1046A000D000C2F200001A90FDF7BAFE1A991D98C8
:1046B0000A68D16841F00101D16040F2FC12C2F2F7
:1046C00000020921116040F2F811C2F200010860F5
:1046D00040F21810C2F20000FDF7A2FE1B991C9ACE
:1046E0001D9840F2F013C2F200031860ADF87A1082
:1046F00040F29001C2F20001086040F20021C2F2D3
:104700000001088041F20000C4F201004FF40051A2
:10471000FCF75AFDFFE740F29400C2F20000006887
:1047200040F29801C2F200010860BDF87A2004202E
:1047300001210323FFF77AF940F29C01C2F2000144
:1047400000201590087040F26011C2F2000116912D
:10475000096848620A201290FCF7E0FD1698FDF700
:104760000DFE9DF87A00FFF7D9FD1599169840F2D5
:10477000F012C2F200021492116011600068406AE7
:1047800001F028FA0146129840F20422C2F2000217
:1047900013921160FCF7CCFD16980068406A01F096
:1047A00019FADDF84CC0149A159903461698CCF8FE
:1047B00000301160FDF72AFD02280DD0FFE7FEF75B
:1047C00001FF46F29A52C0F6000201210846FFF7A7
:1047D00073F9FBF75DFEFFE741F20000C4F2010050
:1047E0004FF400510022FCF7EFFCFFE740F29C0081
:1047F000C2F2000001780020012911900FD0FFE7DC
:1048000040F2F010C2F2000001684FF68042C0F2A0
:104810000A020020914238BF01201190FFE7119851
:10482000C00778B1FFE740F2F011C2F2000108685A
:104830000130086040F20021C2F200010888013016
:104840000880D3E740F2F011C2F2000100200860B6
:1048500040F29C00C2F200000078012840F06B8218
:10486000FFE740F26010C2F200000F900068406A5B
:1048700001F0B0F90F99024640F20420C2F20000A4
:10488000109002600A680021516200680021C4F2A1
:104890007A4101F071F81099086040F29000C2F27C
:1048A0000000016801310160026804200521032332
:1048B000FFF7BCF840F21800C2F20000008801F0D7
:1048C00071F91099096801F001FA0021C4F2A011F0
:1048D00001F052F8014640F29400C2F2000001607B
:1048E00040F20802C2F2000201211160016840F2A8
:1048F0009802C2F20002116000680021C4F2202177
:1049000001F012F850B9FFE740F2F411C2F20001D1
:104910000A2008700420ADF87A008BE140F2940080
:10492000C2F2000000680021C4F2202101F00AF860
:1049300018BBFFE740F29400C2F2000000680021BB
:10494000C4F2342100F0F0FFB8B9FFE740F2F411EF
:10495000C2F20001092008700820ADF87A0040F288
:104960009400C2F200000E9000680021CBF6807126
:1049700000F06AFF0E9908605BE140F29400C2F219
:10498000000000680021C4F2342100F0DBFF10BBFE
:10499000FFE740F29400C2F2000000680021C4F278
:1049A000482100F0C1FFB0B9FFE740F2F411C2F2B4
:1049B000000108200870ADF87A0040F29400C2F2BD
:1049C00000000D9000680021CBF6807100F03CFFE4
:1049D0000D9908602CE140F29400C2F200000068DA
:1049E0000021C4F2482100F0ADFF18BBFFE740F200
:1049F0009400C2F2000000680021C4F25C2100F0C3
:104A000093FFB8B9FFE740F2F411C2F200010720AA
:104A100008701020ADF87A0040F29400C2F2000055
:104A20000C9000680021CCF2400100F00DFF0C99C1
:104A30000860FCE040F29400C2F20000006800212F
:104A4000C4F25C2100F07EFF18BBFFE740F2940047
:104A5000C2F2000000680021C4F2702100F064FF7F
:104A6000B8B9FFE740F2F411C2F200010620087065
:104A70001020ADF87A0040F29400C2F200000B90D2
:104A800000680021CCF2400100F0DEFE0B990860C6
:104A9000CCE040F29400C2F2000000680021C4F2B1
:104AA000702100F04FFF18BBFFE740F29400C2F204
:104AB000000000680021C4F28C2100F035FFB8B975
:104AC000FFE740F2F411C2F2000105200870102047
:104AD000ADF87A0040F29400C2F200000A9000683B
:104AE0000021CCF2400100F0AFFE0A9908609CE082
:104AF00040F29400C2F2000000680021C4F28C2150
:104B000000F020FF18BBFFE740F29400C2F2000063
:104B100000680021C4F2A02100F006FFB8B9FFE749
:104B200040F2F411C2F20001042008702020ADF818
:104B30007A0040F29400C2F200000990006800215F
:104B4000CCF2400100F080FE099908606CE040F270
:104B50009400C2F2000000680021C4F2A02100F01D
:104B6000F1FE18BBFFE740F29400C2F200000068BB
:104B70000021C4F2B42100F0D7FEB8B9FFE740F23B
:104B8000F411C2F20001032008702020ADF87A0071
:104B900040F29400C2F20000089000680021CCF2BC
:104BA000400100F051FE089908603CE040F294009A
:104BB000C2F2000000680021C4F2B42100F0C2FE7D
:104BC00018BBFFE740F29400C2F200000068002129
:104BD000C4F2C82100F0A8FEB8B9FFE740F2F41112
:104BE000C2F20001022008704020ADF87A0040F2C5
:104BF0009400C2F20000079000680021CCF240014E
:104C000000F022FE079908600CE040F2F411C2F2B5
:104C100000010120087040F20801C2F200010020EA
:104C20000860FFE7FFE7FFE7FFE7FFE7FFE7FFE7D2
:104C3000FFE7FFE740F29400C2F2000000680021A5
:104C4000C4F2C82100F07EFE70B9FFE740F2940084
:104C5000C2F20000069000680021CCF2201100F0A2
:104C6000F3FD06990860FFE740F2F410C2F200007D
:104C700005900078FFF776FB46F27A52C0F6000204
:104C8000012103910846FEF717FF039946F295525A
:104C9000C0F600020846FEF70FFF1F9A0521049197
:104CA00002231846FEF77EFE049940F21800C2F275
:104CB0000000028803231846FEF7B8FE0398049B01
:104CC00040F29401C2F200010A681946FEF76AFE3A
:104CD00005980078FFF746FB059802784FF47A7143
:104CE000B1FBF2F1013940F20C02C2F20002116094
:104CF00000780A2807D1FFE740F20C01C2F2000158
:104D000001200860FFE7FBF783FB40F26010C2F26E
:104D100000000290FDF7DCFB029801680020486269
:104D200040F29C01C2F20001087040F20401C2F29C
:104D30000001087032E040F29C00C2F200000078EE
:104D400001282AD0FFE746F27A52C0F6000201217C
:104D500001910846FEF7B0FE019846F2A152C0F656
:104D600000020421FEF7A8FE40F26010C2F200002B
:104D70000090FDF7ADFB009801680020486240F20A
:104D80000801C2F200010860FBF742FB019840F203
:104D90000401C2F200010870FFE7FFE741F20000E2
:104DA000C4F201004FF400510122FCF70DFA40F269
:104DB000A000C2F20000FBF72FFDADF88200BDF8A5
:104DC000820000F007FF43F23331CCF2530100F0D0
:104DD0007DFF4FF08B4100F0CFFD00F009FD47F65D
:104DE000E122CAF614624EF24713C3F6F67300F0DE
:104DF000DFF84FF0004249F6E043C3F6717300F06C
:104E00007FF900220023CCF2390300F0D1F800F042
:104E10009DF81F901F9800F0A5FE02460521022371
:104E20001846FEF703FE1F980021C4F2A00100F00F
:104E300089FD18BBFFE71F980021C4F2C81100F0DC
:104E40007AFDD8B9FFE71F9800F0D2FC4FF033325B
:104E500043F23333C3F6E37300F0DEFA4FF0663209
:104E60004BF26663C4F2740300F0A2F800F0A4FAF7
:104E700040F21801C2F200010880FFE740F204008E
:104E8000C2F200000078012806D1FFE7BDF87A00E1
:104E90004000ADF87A0008E040F20400C2F20000E1
:104EA000007808B9FFE7FFE7FFE7BDF87A00B0F543
:104EB000007F04DDFFE70220ADF87A00FFE7FA206B
:104EC000FBF7A8FFFFF727BC80B584B040F60000D1
:104ED000C4F201000090012100220392FCF774F952
:104EE0000098039A0221FCF76FF90098039A0421B5
:104EF0000191FCF769F90098039A0821FCF764F91D
:104F00000098039A1021FCF75FF90098039A20217A
:104F1000FCF75AF90098039A4021FCF755F90199DA
:104F2000039A40F60040C4F201000290FCF74CF9ED
:104F30000298039A4FF48061FCF746F90298039AAD
:104F40004FF40061FCF740F904B080BD21F000424D
:104F500001F00043A2F16052B2F5801F28BFD2F1E8
:104F60007F6C0BD95FEA001C43EAC20242EB50702F
:104F700018BF704728BF20F001007047B2F5801FAE
:104F8000BCBF184670474FEA410C1CF5001F02D207
:104F9000084600F062BF70B500F0E8FA0000008932
:104FA000FFF7F6BF4FF00040A0F58000704700000B
:104FB00010B591EA030F48BF83F0004300F132833C
:104FC000841A71EB030C05D2121943EB0C03001B7E
:104FD00061EB0C014FEA1154A4EB135CDFF81CE108
:104FE0001EEA430F18BF9EEA445F00F0748021EA76
:104FF000045123EA0E0343F48013DCF1200E32D374
:1050000022FA0CFE10EB0E0023FA0CFE41EB0E010F
:10501000CCF1200E03FA0EFE10EB0E00CCF1200EA8
:1050200051F10001B1F5801F32D201EB045112FAA7
:105030000EF2BDE8104058BF7047401C38BF5FEA11
:10504000420218BF7047002814BF20F0010041F150
:1050500000014FEA410313F5001F38BF7047A1F16B
:10506000C04100F0D1BA012A43EB0302ACF1200C9D
:10507000DCF11F0E32BF4FF0000E23FA0CF310EBE1
:10508000030041EB0451B4EB115FD0D0A1EB04510C
:1050900001F58011490801EB04515FEA30000ED39D
:1050A00050F1000038BF12FA0EFE08D1BDE81040E2
:1050B000C9E7401C38BF5FEA4202CAD1C3E7BDE876
:1050C00010404FEA410313F5001F38BF7047A1F1AC
:1050D000C04100F099BA9EEA445F08D011EA5E0F21
:1050E000BDE8104004BF01F0004100207047BDE85A
:1050F000104070B500F03AFA64FBBE3E0000E0FFDD
:105100002DE9C04130B4DFF8A8C23CEA111418BF41
:105110003CEA131400F0F0801CEA111481EA030544
:1051200044EAD57418BF1CEA131500F0CB80A4EB39
:10513000050404F17F7404F500344FF0004545EA9E
:10514000C12145EAC32341EA505143EA52534FEA91
:10515000C0204FEAC222994208BF904200F0A080CE
:105160004FEA13650FF24816765D4FEA134506FBCA
:1051700005F7C7F1807706FB07F74FEAD737A7FB9C
:1051800003687642A7FB06CEC8F5803838BFA8F181
:10519000010807FB08E6A6FB028C4FF0000EE6FBB9
:1051A00003CED8F100086FEA0C0C5CF1000C6FEA3A
:1051B0000E0E4EF1004EA6FB0C584FF00007E6FB1A
:1051C0000E87A1FB08C6A0FB07CE16EB0E064FF01C
:1051D000000545F10005E1FB076515F1E04E7EBFD6
:1051E000A4F580345FEA46066D4116F1800745F16B
:1051F00000054FEA172747EA05674FEA15254FEAEA
:105200000666A6F1DE46B6F1805F20D9384605EB8A
:10521000C47124F0010C01EB0C11BCF1FE6F02D83B
:10522000F0BCBDE8008124425CBF01F5801E9EEA0F
:10523000C47F02D4F0BCBDE80081244200F1398073
:10524000A1F1C041F0BCBDE8004100F0DDB94FEA7A
:10525000D02040EA41504FEAD1214FEAD22242EA1F
:1052600043524FEAD323A7FB028607FB036605FBE5
:1052700002661EEA0E0F58BFA6EB0056B6EB0056AC
:105280004FEA520E4EEAC37E18EB0E0E56EB530E4B
:10529000BCD518EB02085E417F1C55F10005B5E74F
:1052A0004FF480154FF000074FF000064FF0000854
:1052B000ACE701F1C04101F000414FF00000F0BC4B
:1052C000BDE800810CEA131511EA0C1F00D00CE0B8
:1052D00013EA0C1F00F025804FF0000081EA030163
:1052E00001F00041F0BCBDE80081F0BCBDE8004128
:1052F00081EA030100F088B9F0BCBDE8004170B557
:1053000000F034F9097EFC3E00F007B84FF00000D1
:1053100081EA030101F00041704781EA030100F0D6
:1053200073B9F0BCBDE8004122494FF0000070475E
:10533000FFFDFBF9F7F5F4F2F0EEEDEBE9E8E6E45A
:10534000E3E1E0DEDDDBDAD8D7D5D4D3D1D0CFCDE1
:10535000CCCBCAC8C7C6C5C4C2C1C0BFBEBDBCBB1A
:10536000BAB9B8B7B6B5B4B3B2B1B0AFAEADACAB15
:10537000AAA9A8A8A7A6A5A4A3A3A2A1A09F9F9EEF
:105380009D9C9C9B9A9999989797969595949393A1
:10539000929191908F8F8E8E8D8C8C8B8B8A898938
:1053A00088888787868585848483838282818180BB
:1053B0000000FF070000F87F4FEA41034FEA535314
:1053C000A3F58063D3F11E03C8BFD3F1210C0CDD1C
:1053D0004FF0004242EAC12242EA505232FA03FC44
:1053E0008CEAE17CACEBE1707047102BC4BF00206D
:1053F000704703F5787CBCF1FF3F04D06FF00042AA
:1054000082EA2100704770B500F0B0F8499224801C
:1054100000207047F2E7000070B5DFF848C11CEAD1
:10542000111E1EBF1CEA13159EEA0C0F95EA0C0F05
:1054300000F06F8081EA03044EEAD47EAE4421EA94
:105440004C1123EA4C1341F4801143F48013AEF164
:105450007F7EA1FB024CA0FB0365361955EB0C05C2
:10546000A1FB034C4CF10003A0FB021C16EB0C0645
:10547000654153F10003094218BF46F0010613F4D9
:10548000007F0BD14FEA03314FEA053041EA155155
:1054900040EA165034036FF003020AE04FEAC321DA
:1054A0004FEAC52041EA555140EA5650F4026FF0E8
:1054B000020202EB2E4201EB025585EACE710AD0C0
:1054C0005FEA440C18BF24F0004450F1000041F1A1
:1054D000000120EAD47040F2FE7C624500D270BD2B
:1054E000A84214BF4FF080444FF04044002E08BF44
:1054F0000024BEF1806FA8BFA1F1C041BDE870409B
:1055000080F2828001F1C04101F000414FF00000C3
:1055100070470CEA13159EEA0C0F18BF95EA0C0FA2
:1055200006D081EA030E4FF000000EF0004170BD7E
:1055300000F01CF88900013E00F007B800F009B83F
:105540004FEA430C5FEA5C5C08D081EA030100F09B
:105550005BB84FEA410C5FEA5C5CF6D102494FF060
:10556000000070470000FF070000F87F0EF1020EF8
:105570002EF0030E5EF8046B364205D4012A43EB8D
:10558000030515F5001F12D8012841EB010C1CF58D
:10559000001F0CD80ED14FEAD17C0CEB4C0C0CF157
:1055A000020C15F5001F08BF4CEBD37C04E04FF054
:1055B000080C01E04FEAD37C0CEB4C0526FA05F60B
:1055C00006F00706B6F1040C06D20EEB860CBDE819
:1055D00070404CF0010C6047DFE80CF0090B020250
:1055E0004FF00041A1F500214FF0000070BD1946B9
:1055F0001046012851EB010418BFD4F5001484BFF4
:10560000002001F0004170BD0808A0F500114FEA2C
:105610003101704710B591EA030F48BF83F0004392
:105620003FF5CEAC841A71EB030C07D28CF0004C22
:10563000121943EB0C03001B61EB0C014FEA1154F0
:10564000A4EB135CDFF8A4E11EEA430F18BF9EEA47
:10565000445F00F0B48021EA045123EA6E03524211
:10566000C3EB6E0338BF5B1EDCF1200E25D322FA9C
:105670000CFE10EB0E0043FA0CFE41EB0E01CCF1D8
:10568000200E03FA0EFE10EB0E00CCF1200E51F1AD
:10569000000129D401EB045112FA0EF2BDE81040CA
:1056A00058BF7047401C1CBFB2F1004F7047002824
:1056B0000CBF491C20F00100704712EB020E43EBB7
:1056C000030218BF4FF0010E4EEA4202ACF1200C6B
:1056D000DCF11E0E56D943FA0CFE10EB0E00CCF195
:1056E0001E0E51F1FF31D5D50EF1010E12FA0EFE4C
:1056F000404141EB010101EB445C5FEA5C5C10D985
:1057000001EB045110EBDE7038BFBEF1004FBDE875
:10571000104018BF704700280CBF491C20F0010042
:10572000704734D24FEAD42C24F4006411F50011F0
:105730001BD0B1FA81F20B3AA41AA41ED2F12003B5
:10574000914030FA03F31943904001EBCC7101EB27
:105750000451002CBDE81040A8BF704701F1C041C2
:1057600001F000414FF000007047B0FA80F310FAEA
:1057700003F102D1BDE810407047E41A173C480518
:10578000C90AE2E701EB0451BDE810407047491037
:105790004FEA300001EB0451BDE8104002E04FF049
:1057A000000170474A0008BF0042F8D0B2F5001F60
:1057B00028BF704701F000414FF0000070479EEA9B
:1057C000445F07D011EA5E0FBDE8104004BF00211E
:1057D00000207047BDE8104070B5FFF7C7FE00BF5E
:1057E00040DFF63E104683F0004170470000E0FFC6
:1057F00043004FEAD30C4FEA3C0C43401FBF400725
:105800000CF1605113F0FE4F70471CF0006F03D194
:105810000CF00041002070470CF0004343EA507048
:1058200040EACC0010B500F0D2FA00BF00000092B0
:105830004FEA0001FFF7E8BE4FF00041A1F500215B
:105840004FF000007047000090EA010F48BF81F060
:10585000004100F10E83421A3CBF801A89184FEABA
:10586000D052A2EBD1534FF07F4C1CEA410F18BF2E
:105870009CEA026F00F03B804FF0004C4CEA0020A5
:105880004CEA012121FA03FC10EB0C0C1ED202F1B0
:10589000FF325FEA1C2040EBC25038BF70471CF05B
:1058A0007F0F4FEA400C18BFBCF17F4F38BF7047E5
:1058B000C3F12003994008BF20F00100BCF17F4FE5
:1058C00038BF7047A0F1C04000F0C7BA4FEA3C00B3
:1058D000000A40EBC25028BF1CF0FF0F4FEA400CFB
:1058E000E6D018BFBCF17F4F38BF7047EAE79CEAAB
:1058F000026F05D010EA5C0F08BF00F0004070474F
:1059000010B500F064FA00BF64FBBE3E10B500F0B5
:10591000F5F80CBF0120002010BD10B500F0EEF826
:1059200014BF0120002010BD10B500F067F98CBF36
:105930000120002010BD10B500F060F92CBF01203F
:10594000002010BD10B500F08DF994BF012000209B
:1059500010BD10B500F086F934BF0120002010BD45
:10596000401058BFC0F14040491058BFC1F14041FC
:105970008142EFF3008070474FF47F0C1CEAD01295
:105980001EBF1CEAD11392EA0C0F93EA0C0F00F031
:10599000858090EA010F48BF42F4807240F4000C09
:1059A00041F400002CF07F4120F07F4000B5A2EBD5
:1059B000030281420FF2081CACEB504E9EF800E04F
:1059C000C0F100004FEA4E0E00FB0EFC38BF49004C
:1059D0004FEA2C1C0CFB0EF34FEACE1E0EEB635E5F
:1059E0004FEA112C0EFB0CFC4FEAC1214FEA1C536D
:1059F00000FB031102F5FA024FEA112C0EFB0CFC1E
:105A00004FEA01314FEADC4C00FB0C1142EB224221
:105A1000C14228BF09184CEB03335DF804EB10EBCF
:105A2000410143EBC250B2F57C0F38BF704729D516
:105A300012F0F00F1CBF00F1C04000F000407047B2
:105A4000008182838485868788898B8C8D8E8F9157
:105A50009293959697999A9C9D9FA0A2A3A5A7A87B
:105A6000AAACAEB0B2B3B5B7B9BCBEC0C2C5C7C9A7
:105A7000CCCED1D4D7D9DCDFE2E6E9ECF0F3F7FA0B
:105A8000FE0000004FEA400C0CF1807CBCF17E4F20
:105A900028BF7047B0F1C04000F0DFB90CEAD11365
:105AA00090EA010F48BF42F48072624538BF6345F7
:105AB00007D213F47F0F16D080EA010000F00040F7
:105AC000704710B500F083F9097EFC3E00F005B880
:105AD00080EA010000F00040704780EA010000F019
