:020000040800F2
:10000000A0070020B5010008312E0008152A0008BD
:100010002D2E0008810300083D3500080000000077
:10002000000000000000000000000000093400088B
:100030001105000800000000053400080D34000818
:10004000CF010008CF010008CF010008CF01000850
:10005000CF010008CF010008CF010008CF01000840
:10006000CF010008CF010008CF010008CF01000830
:10007000CF010008CF010008CF010008CF01000820
:10008000CF010008CF01000871020008CF0100086D
:10009000CF010008CF010008CF010008CF01000800
:1000A000CF010008CF010008CF010008CF010008F0
:1000B000193500082535000831350008CF01000842
:1000C000CF010008CF010008CF010008CF010008D0
:1000D000CF010008CF010008CF010008CF010008C0
:1000E000CF010008CF010008CF01000800F002F89E
:1000F00000F050F814A696E8000CB244B344DA4578
:1001000001D100F047F8BAE80F000FA696E83000DA
:10011000A5EB040504EB0607AAEB0704A7F101070A
:100120004FEA15154FEA3414A4F10104AC4201D38F
:1001300000F030F813F0010F18BFFB1A43F0010371
:1001400000F001F8DBE71847D8450000F84500004B
:10015000103A24BF78C878C1FAD8520724BF30C8F3
:1001600030C144BF04680C60704700007047000055
:100170000023002400250026103A28BF78C1FBD8B0
:10018000520728BF30C148BF0B6070471FB51FBD65
:1001900010B510BD00F031F81146FFF7F7FF03F07E
:1001A000CFF900F04FF803B4FFF7F2FF03BC00F003
:1001B00057F800000948804709480047FEE7FEE776
:1001C000FEE7FEE7FEE7FEE7FEE7FEE7FEE7FEE707
:1001D00004480549054A064B7047000015350008DC
:1001E000ED000008A0010020A0070020A0030020CF
:1001F000A0030020704770477047754600F02CF848
:10020000AE4605006946534620F00700854618B003
:1002100020B5FFF7DDFFBDE820404FF000064FF0AE
:1002200000074FF000084FF0000BAC46ACE8C009E7
:10023000ACE8C009ACE8C009ACE8C00921F007018E
:100240008D46704710B50446AFF300802046BDE8E8
:100250001040FFF7A8BF00000048704718000020BA
:1002600001491820ABBEFEE72600020070470000DF
:1002700040F29000C2F2000000F0B6BAB0B50446F9
:1002800000688168C90709D0816821F00101816097
:1002900000F09EFD21688968C90701D10020B0BD2A
:1002A000054602E08068C007F8D000F091FD411BD0
:1002B00020680329F6D38168C907F3D0A06A40F00B
:1002C0001000A062E06A40F00100E0620120B0BDD1
:1002D000B0B582B004460020019021688A68D20738
:1002E0004BD1886840F00100886040F21000C2F2F3
:1002F000000000684DF68361C4F21B31A0FB0101D0
:10030000880C01900198A0B10198013801900198E2
:1003100078B1019801380190019850B101980138E5
:100320000190019828B101980138019001980028A6
:10033000EAD100F04DFD21688968C9071CD1054646
:1003400003E000BF8068C00716D100F041FD411BEB
:1003500020680329F6D38168C907F3D1A06A40F069
:100360001000A062E06A40F00100E062002084F822
:100370002400012002B0B0BD002002B0B0BD0000DA
:10038000FEE7000010B5044640F25010C2F2000033
:10039000002102F041FA18B100F0BCF80BE000BFF8
:1003A00040F25010C2F20000042102F035FA002899
:1003B00018BF00F0AFF8204600F0E0FB40F250100C
:1003C000C2F20000002102F095FA48B940F2501044
:1003D000C2F20000042102F08DFA002808BF10BD0F
:1003E000BDE8104000F096B8B0B58EB000250446C8
:1003F000CDE90C55CDE90A55CDE90855CDE90655AD
:10040000CDE90455CDE90255CDE9005500F078FF5E
:1004100041F20401C4F20201096844F2402211F4DD
:10042000E06118BF012188404DF68361C4F21B31A1
:10043000A0FB0101C0F20F024FF0FF30B2FBF4F459
:1004400000EB914140F25010621EC2F20000416088
:10045000C26002F03FF9002818BF00F05BF860208E
:10046000079060087021CDE90805CDE90010022051
:10047000029040F25010C2F2000007A900220B9532
:10048000049502F025F818B100F044F80CE000BF24
:1004900040F25010C2F200006946042202F018F83F
:1004A000002818BF00F036F840F25010C2F20000E9
:1004B000002102F0B1F918B100F02CF80EB0B0BD77
:1004C00040F25010C2F20000042102F0A5F9002809
:1004D00018BF00F01FF80EB0B0BD000080B540F2AC
:1004E0005010C2F20000002102F004FA48B940F2B4
:1004F0005010C2F20000042102F0FCF9002808BFED
:1005000080BDBDE8804000F005B80000FFF76CBF7B
:100510007047000041F20004C4F20104EFF31080C0
:1005200072B600BF20460421002200F04BFC4FF4BD
:100530007A7000F023FB20460421012200F042FCE7
:10054000F0E7000070B582B004460020019094F8F6
:100550002400012802D1022002B070BD012084F8DD
:1005600024002046FFF78AFE2046FFF7B1FE28B19F
:10057000002184F8241002B070BD00BF0646A06AB6
:1005800041F2021188430230A06240F21000C2F230
:1005900000000568022000F0D7FCB5FBF0F0400039
:1005A00001900198A8B100BF01980138019001980D
:1005B00078B1019801380190019850B10198013843
:1005C0000190019828B10198013801900198002804
:1005D000EAD12068816841F00801816000F0F8FBF1
:1005E00021688A6812070FD4886840F00400886088
:1005F00000F0EEFB21688968490715D401216FF0EE
:100600000302304622E000BF054602E0886800078A
:10061000EAD500F0DDFB401B21680B28F6D3886883
:100620000007F3D50EE000BF054602E080684007F2
:10063000E4D500F0CDFB411B20680B29F6D381687F
:100640004907F3D5012010216FF01202A36A1A4066
:100650001143A162002184F8241002B070BD000093
:100660007047000010B581B00022009290F824205D
:10067000012A03D10221084601B010BD4B680122B6
:10068000062B80F8242033D8D0F800C003EB830376
:100690005A1F1F23DCF834E003FA02F40B682EEA39
:1006A000040403FA02F22243CCF83420092B03EBB2
:1006B000430249D9DCF80CE01E3A072489689440CB
:1006C0002EEA0404914023F001022143102ACCF8C1
:1006D0000C1043D142F20841C4F20101A1F1080219
:1006E000944543D0816A41F020018162012136E0C6
:1006F000D0F800C00C2B03EB830213D8233A1F233E
:10070000DCF830E003FA02F40B682EEA040403FA82
:1007100002F22243CCF83020092B03EB4302C9D864
:1007200012E000BF413A1F23DCF82CE003FA02F488
:100730000B682EEA040403FA02F22243CCF82C20C0
:10074000092B03EB4302B5D8DCF810300724896885
:100750009440A34391401943CCF81010002100228B
:1007600080F82420084601B010BD00BF0A681202BC
:10077000F4D40A68102B42F400020A60EED140F271
:100780001001C2F2000109684DF68362C4F21B3207
:10079000A1FB0212910C01EB81014900009100992B
:1007A0000029DBD000990139009100990029D5D0AA
:1007B00000990139009100990029CFD000990139A1
:1007C000009100990029C9D0009901390091009940
:1007D00000294FF00001E5D1C1E70000704700009B
:1007E0000068C06C7047000070B50446006805687A
:1007F0004668B10627D515F0020124D0A16AC906C2
:1008000003D4A16A41F40071A162816801F46021FE
:10081000B1F5602F10D1217B71B9416821F0200121
:100820004160A06A20F48070A062A06AC00403D472
:10083000A06A40F00100A0622046FFF7CFFF2068C9
:100840006FF012010160310633D515F0040130D08C
:10085000A16AC90603D4A16A41F40051A16281686A
:1008600001F4E041B1F5E04F10D1416821F0800181
:100870004160A06A20F48050A062A06AC00511D433
:10088000A06A40F00100A0620CE000BF4168490589
:1008900008D4816801F46021B1F5602F02D1217B79
:1008A0000029E2D02046FFF7DBFE20686FF00C0144
:1008B000016070060ED515F0010008BF70BDA06A7A
:1008C00040F48030A062204600F0B2F820686FF05B
:1008D0000101016070BD0000002804BF01207047C5
:1008E000B0B50446806A28B121688868C0070CD179
:1008F00015E000BF0020E06284F82400204600F0EC
:1009000099F821688868C00709D0886820F001003C
:10091000886000F05DFA21688A68D20726D1A06A53
:10092000C0063AD4A06A41F2021290430230A0629B
:10093000E069D4E9013240EA030C531EB3FA83F3B1
:100940005D091346B2F5807F18BF2B02207D257B01
:1009500001284CEA45002CD135B3A56A45F02005A5
:10096000A562E56A45F00105E56222E0054602E080
:100970008868C007D3D000F02BFA401B21680328F9
:10098000F6D38868C007F3D0A06A40F01000A062D8
:10099000E06A40F00100E062A06AA06A40F0100046
:1009A000A0620120B0BD00BFA56903EB4533A3F5EC
:1009B000C0534D68B2F5807F25F4694543EA0503CD
:1009C0004B608B684FF2FD75CFF6E17503EA0503C6
:1009D00043EA00038B6001D0012A07D1226900237A
:1009E000CFF6F07303EB025201E000BF0022CB6AA6
:1009F00023F470031A43CA62896840F6FE62CFF698
:100A00001F721140814207D10020E062A16A0122D9
:100A100062F30101A162B0BDA06A40F0100020F0B5
:100A20000200A062E06A40F00100E0620120B0BD77
:100A30007047000080B586B0014640F60040C4F221
:100A40000100096800F5C05291424FF00001CDE964
:100A50000411CDE9021101D006B080BD41F21801A8
:100A6000C4F202010A6842F400720A600A6802F4E1
:100A700000720192019A0A6842F008020A6009684D
:100A800001F00801019101990121029103210391D3
:100A900002A900F087F812200021002200F018FAC5
:100AA000122000F003FA06B080BD000010B5044625
:100AB00090F82400012804BF022010BD012084F812
:100AC00024002046FFF704FC20B1002084F8240015
:100AD000012010BD42F2044C2068A16AC4F2010C4E
:100AE00040F2013291430CF57F7201F58071904222
:100AF000A16229D0A16A21F48011A162416849054F
:100B000004D5A16A012363F30D31A162A16A002318
:100B1000C9044FF0000144BFE16A21F00601E1621F
:100B20006FF0020184F824300160816801F46021D3
:100B3000B1F5602F1BD1904214D0816841F4A0011F
:100B40008160002010BD00BFDCF8001011F4702F90
:100B5000D0D0A16A41F48011A162DCF800104905EF
:100B6000CFD4D3E7DCF8001011F4702FE5D0816802
:100B700041F480118160002010BD0000B0B5044632
:100B800000F026F9054640F20800C2F200000078A5
:100B9000611C18BF044400BF00F01AF9401BA042BA
:100BA000FAD3B0BD2DE9F04F82B00E68002E00F0F0
:100BB000FD8041F20042C4F20102042340F2004EE3
:100BC000904208BF03234FF6FF7CC4F2010E00934E
:100BD00000240123C1F2100C4FF0000A4FF000096D
:100BE0004BE000BF41F20002C4F20102009F9042BC
:100BF00008BF022704F00C030F229A402BEA0202DE
:100C000007FA03F34FEA9A051A4346F825204E687F
:100C100040F20C45F202DEF8082054BF22EA080236
:100C200042EA0802C4F20105CEF808202A68B3029D
:100C300054BF22EA080242EA08022A60B303DEF83F
:100C4000042054BF22EA080242EA0802F303CEF865
:100C50000420DEF800204FF0010354BF22EA08020E
:100C600042EA0802CEF800200E680AF1010A36FABC
:100C70000AF204F1040400F0998003FA0AFB16EA70
:100C80000B08F1D04E68664512DC122E56D8DFE80C
:100C900006F0350B4D495555555555555555555536
:100CA00055555545510000BFD1F80C9046E000BFA6
:100CB0004FF6FF72C1F2210296420FDC0022C1F210
:100CC000110296421AD00022C1F21202964215D0A9
:100CD0000022C1F22102964210D02FE00022C1F280
:100CE000220296420AD00022C1F23102964205D079
:100CF0000022C1F23202964220D100BF8A684AB176
:100D0000012A14BFC0F814B0C0F810B04FF00809A1
:100D100014E000BF4FF0040910E000BFCA6802F100
:100D200004090BE04FF0000908E000BFCA6802F1B7
:100D3000080903E0CA6802F10C0900BF0246264612
:100D4000B8F5807F24BF0432203E17680F25B540D8
:100D500027EA050509FA06F635431560CA79D20671
:100D60007FF582AF41F21803C4F202031A68AEF5B0
:100D70007E7642F001021A601A6802F001020192C6
:100D8000019A2AF0030256F802B040F60002C4F2BB
:100D90000102904208D040F60042C4F201029042A3
:100DA0007FF420AF012725E7002723E702B0BDE845
:100DB000F08F0000C26802EA0103914341EA034157
:100DC00001617047002A08BF0904016170470000F3
:100DD00040F29810C2F200000068704740F208002C
:100DE00040F29811C2F20000C2F2000100780A68D5
:100DF000104408607047000080B542F20000C4F261
:100E00000200016841F010010160032000F08CF83D
:100E10000F2000F005F800F027F8002080BD00004A
:100E200070B540F20806C2F2000640F210013278B6
:100E3000C2F200014FF47A730968B3FBF2F2044680
:100E4000B1FBF2F1084600F0ADFC0F2C4FF00105AC
:100E500008D838B94FF0FF3021460022002500F0B5
:100E600037F87460284670BD82B041F21800C4F2B1
:100E700002000168022241F001010160016801F0F5
:100E8000010101910199416841F080514160406840
:100E900000F08050009000980420C4F20100016826
:100EA00062F31A61016002B070470000002848BF79
:100EB000704700F01F01012202FA01F11C2202EA30
:100EC000D0004EF20012CEF20002815070470000B6
:100ED00010B54EF60C5CCEF2000CDCF80030C3F31B
:100EE000022E8EF00704042C28BF0424BEF1030355
:100EF0004FF0FF3E0EFA04F438BF0023A14399409F
:100F00000EFA03F39A43114300F00F0200F160431D
:100F10000901043A03F564436244002848BF02F122
:100F20000C03197010BD00004EF60C51CEF20001FA
:100F30000A684FF6FF031A4060F30A2242F080600D
:100F400040F0FD7008607047012821D002280DD0C4
:100F5000102808D141F20401C4F202010A6851F8D4
:100F6000040CC00134D40020704700BF80B500F0ED
:100F7000DBF941F20401C4F2020109680222C1F363
:100F8000813102EB4101B0FBF1F0BDE880407047D8
:100F900041F20400C4F20200C16940F202320A4088
:100FA000B2F5817F04BF4FF40040704701F44071F7
:100FB000B1F5407F18D0B1F5007F1CBF002070470D
:100FC000006A49F64041800701EAE070704700BFBF
:100FD000C2F3834015A3185CD2030DD440F600126F
:100FE000C0F23D02504313E050F8040C4FF224418C
:100FF000800301EAE07070470A6810A3C2F3404220
:101000009A5C41F20023C0F27A03B3FBF2F2504340
:101010000968490248BF70474AF6AB214000CAF64A
:10102000AA21A0FB01014808704700BF0203040584
:10103000060708090A0B0C0D0E0F10100102000024
:101040002DE9F04182B00446007841F21C06C00749
:10105000C4F202064AD030685FEAC00808D430689B
:1010600040F080503060306800F08050019001986E
:1010700047F20007C4F200073868C00512D4386888
:1010800040F480703860FFF7A3FE05463868C0055D
:1010900008D4FFF79DFE401B6428F7D9032002B057
:1010A000BDE8F081706810F4407012D0616801F4FE
:1010B000407188420DD0706840F24042C4F2422232
:1010C000012320F4407113600023C0071360716096
:1010D00026D17068616820F440700843B8F1000FB1
:1010E000706003D4306820F0805030602068810741
:1010F00007D556F8181CA26821F44041114346F860
:10110000181CC00607D556F8180CE16820F48000BA
:10111000084346F8180C002002B0BDE8F08100BF7B
:10112000FFF756FE054641F2883700BF706880071A
:10113000CFD4FFF74DFE401BB8424FF00300F5D966
:10114000EAE70000002804BF012070472DE9F043C2
:1011500081B042F20008C4F202080446D8F8000048
:101160000D4600F0070088420CD2D8F8000020F0AD
:1011700007002843C8F80000D8F8000000F0070076
:10118000A8426CD1206841F204098107C4F2020927
:1011900017D5410705D5D9F8001041F4E061C9F829
:1011A0000010010705D5D9F8001041F46051C9F8C5
:1011B0000010D9F80010A26821F0F0011143C9F81D
:1011C0000010C00742D1D8F8000000F00700A84284
:1011D0000CD9D8F8000020F007002843C8F8000018
:1011E000D8F8000000F00700A84238D12068410775
:1011F00007D5D9F80010E26821F4E0611143C9F87D
:101200000010000708D5D9F80000216920F46050CB
:1012100040EAC100C9F80000D9F8002002F00C0033
:10122000082841F20020C0F27A004DD144F2DE637A
:10123000C2F38341C0F60003595CD20338D440F6B0
:101240000010C0F23D0048433EE000BF606859F81E
:10125000041C022808D0012826D1890306D40120C5
:1012600001B0BDE8F08300BF8901F8D5D9F80010BE
:1012700021F003010843C9F80000FFF7A9FD064665
:1012800041F28837D9F80000616800F00C00B0EB3B
:10129000810F98D0FFF79CFD801BB842F2D9032044
:1012A00001B0BDE8F08300BF8907D8D5DEE700BFF5
:1012B000D9F8002044F2EC03C2F34042C0F6000328
:1012C0009A5C4843B0FBF2F0D9F8001044F2D40223
:1012D000C1F30311C0F60002515C40F2100220FA83
:1012E00001F140F20C00C2F200000068C2F20002FC
:1012F0001160FFF795FD002001B0BDE8F08300000C
:1013000040F2100041F20401C2F20000C4F20201F6
:101310000068096844F2E402C1F30221C0F6000249
:10132000515CC8407047000040F2100041F20401D7
:10133000C2F20000C4F202010068096844F2E4024B
:10134000C1F3C221C0F60002515CC84070470000E2
:10135000B0B586B0022003900320059000200490D1
:101360004FF4807041F218050290C4F2020528681B
:101370000C4640F004002860286802A900F0040030
:101380000190019840F60000C4F20100FFF70AFC4A
:1013900055F8140C20F0E060204345F8140C06B01A
:1013A000B0BD0000002804BF012070472DE9F041C6
:1013B00082B00446007841F20006C007C4F202067B
:1013C0000CD0706800F00C00042840F08180306878
:1013D000800303D56068002800F0468120788007EC
:1013E0001BD5706810F00C0F09D0706800F00C006D
:1013F000082840F087807068C00300F1838030685F
:10140000800703D52069012840F02E81306861698A
:1014100020F0F80040EAC10030602078000713D4C3
:10142000207840072CD4E569002D00F01881706801
:1014300000F00C00082840F0A780012D40F0048146
:10144000012002B0BDE8F081A069002800F084808E
:101450000020C4F242200121C0F88014FFF7B8FC3C
:10146000054600BF706A800700F1B280FFF7B0FC4C
:10147000401B0228F6D9032002B0BDE8F08100BF6E
:10148000F0695FEAC00808D4F06940F08050F0616C
:10149000F06900F080500090009847F20007C4F215
:1014A00000073868C00549D4386840F48070386057
:1014B000FFF78EFC054600BF3868C0053ED4FFF735
:1014C00087FC401B6428F7D9032002B0BDE8F081F7
:1014D000706800F00C00082803D17068C0033FF565
:1014E00076AF61683068002900F00C81B1F5A02F5B
:1014F00000F00081B1F5803F40F01A8140F4803067
:101500001CE100BF2069002840F20000C4F2422024
:1015100000F0888001210160FFF75AFC054600BFFA
:10152000306880073FF572AFFFF752FC401B02287E
:10153000F6D9032002B0BDE8F08100BFE168306A4F
:10154000002900F09D80052900F09280012940F0DB
:10155000AF8040F00100B1E00020C4F24220002141
:10156000C0F88014FFF734FC054600BF706A80079E
:101570007FF556AFFFF72CFC401B0228F6D903205D
:1015800002B0BDE8F08100BF0027C4F2422700206E
:101590003866FFF71DFC022D05460DD1306880012D
:1015A00040F1DE80FFF714FC401B02284FF00300DF
:1015B000F4D902B0BDE8F081306880014FD5FFF763
:1015C00007FC401B02284FF00300F5D9F1E700BFEC
:1015D00040F21000C2F20000006844F6D351C1F29C
:1015E0006201A0FB0101480A019000BF00BF019801
:1015F000411E002801913FF413AF00BF0198411E26
:10160000002801913FF40CAF00BF0198411E002853
:1016100001913FF405AF00BF0198411E00280191E0
:10162000E4D1FDE600210160FFF7D2FB054600BFD3
:10163000306880077FF5F1AEFFF7CAFB401B022838
:101640004FF00300F4D9B4E77068216A00F48032E7
:101650008A4209D1616A00F47010884204D10020E6
:1016600002B0BDE8F08100BF012002B0BDE8F0810A
:1016700040F004003062306A40F001001EE000BF1C
:1016800020F001003062306A20F004003062FFF781
:101690009FFB054641F28837306A800720D5FFF767
:1016A00097FB401BB8424FF00300F5D981E700BF1C
:1016B00020F001003062306A20F004003062FFF751
:1016C00087FB054641F28837306A800708D4FFF768
:1016D0007FFB401BB842F7D9032002B0BDE8F08180
:1016E000B8F1000F3FF59FAEF06920F08050F06137
:1016F00099E600BF40F480203060306840F48030CC
:101700001CE000BF20F480303060306820F480207E
:101710003060FFF75DFB0546306880037FF55EAE05
:10172000FFF756FB401B64284FF00300F4D940E755
:1017300020F480303060306820F480203060FFF783
:1017400047FB0546306880033FF548AEFFF740FB96
:10175000401B6428F6D9032002B0BDE8F08100BF29
:10176000206AB0F5803F05D17168A26821F400318C
:10177000114371607168626A21F474111143084366
:10178000706001203866FFF723FB04463068800153
:101790003FF565AFFFF71CFB001B02284FF003006D
:1017A000F4D906E7411E0020B0EB116F1CBF0120E9
:1017B00070474EF21002CEF2000251604EF62351F5
:1017C000CEF20001F0230B7007219060116070478A
:1017D000704700007047000090F83C20012A4FF04D
:1017E000020236D010B580F83D200268D2F804E03D
:1017F000D2F808C00C682EF07003234340F2FF7447
:10180000C4F20004A24253600ADCB2F1804F13D04C
:1018100040F20043C4F200039A420DD011E000BF31
:1018200042F60043C4F201039A4205D040F6000399
:10183000C4F200039A4204D149682CF08003194392
:1018400091600121002280F83D1080F83C20BDE825
:10185000104010467047000090F83D0070470000AF
:10186000002804BF0120704710B590F83D1031B931
:10187000002180F83C10044600F070F82046022158
:1018800080F83D10016840F2FF740B68C4F2000458
:1018900042F6004CA142C4F2010C15DCB1F1804FBC
:1018A0001AD040F20042C4F20002914214D0A14288
:1018B00018DCB1F1804F1DD040F20042C4F20002AA
:1018C000914217D01AE000BF614505D040F60002F2
:1018D000C4F200029142EAD1826823F070031343FC
:1018E000A142E6DD614505D040F60002C4F20002E7
:1018F000914203D1026923F440731343846923F0B6
:101900008002D0F804E0C368224361450A60CB62DC
:10191000C1F828E002D14269CCF8302001224A61A6
:101920000B69DB0703D00B6923F001030B6180F81F
:10193000462080F83E2080F83F2080F8402080F844
:10194000412080F8422080F8432080F8442080F82D
:10195000452080F83D20002010BD00000068B0F157
:10196000804F18BF704780B582B041F21C00C4F2AE
:1019700002000168002241F00101016000680021BD
:1019800000F00100019001981C20FFF7A1FA1C2033
:1019900002B0BDE88040FFF789BA000090F83D1022
:1019A00001291CBF01207047022180F83D1000680A
:1019B00040F2FF72C168C4F20002904241F001019E
:1019C000C16009DCB0F1804F12D040F20041C4F296
:1019D000000188420CD012E042F60041C4F201013D
:1019E000884205D040F60001C4F20001884206D1C9
:1019F000816801F00701062904BF002070470168D3
:101A000041F00101016000207047000090F83C2087
:101A1000012A4FF002026CD080B580F83D20D0F84A
:101A200000C04FF67772DCF8083023EA0202CCF8E7
:101A300008200B684F2B29DC1F2B45DD202B46D0BF
:101A4000302B44D0402B40F0AF80D1F804E0C9687F
:101A5000DCF82030DCF8202022F00102CCF8202035
:101A6000DCF8182022F0F00242EA011123F00A0209
:101A700042EA0E02CCF81810CCF82020DCF808104E
:101A800041F0470121F0300128E000BF6F2B33DD2A
:101A9000B3F5005F74D0B3F5805F21D0702B40F0B8
:101AA0008380D1E901E3C968DCF8082043EA0E032A
:101AB00022F47F4243EA01211143CCF80810DCF8FC
:101AC000081041F0770109E00BB1102B6CD1DCF864
:101AD000081021F07001194341F00701CCF80810FB
:101AE0000022012180F83D10002180F83C10BDE863
:101AF00080401046704700BF502B21D0602B53D13F
:101B0000D1F804E0C968DCF82030DCF8202022F0AD
:101B10001002CCF82020DCF8182022F4704242EAAF
:101B2000013123F0A00242EA0E12CCF81810CCF8D2
:101B30002020DCF8081041F0670121F01001CDE70A
:101B4000D1F804E0C968DCF82030DCF8202022F06D
:101B50000102CCF82020DCF8182022F0F00242EA42
:101B6000011123F00A0242EA0E02CCF81810CCF858
:101B70002020DCF8081041F0570121F02001ADE7EA
:101B8000D1E901E3C968DCF8082043EA0E0322F436
:101B90007F4243EA01211143CCF80810DCF8081019
:101BA00041F480419AE700BF01229AE7016840F2C0
:101BB0000042C4F20002914200D07047017F012927
:101BC00018BF704710B540F20811C2F20001044678
:101BD0000846002100F034FA2046002100F00CFFF6
:101BE00040F27801C2F200010861086944F6D3525C
:101BF000C1F26202A0FB020290094861BDE81040F8
:101C00007047000090F83C30012B04BF0220704761
:101C10004FEAB202032A00F28580F0B5DFE802F055
:101C2000025C203E0368D1E900C5D1F80CE01C6AD3
:101C30001A6A40F2FF7722F001021A621A4652F83D
:101C4000186FC4F20007BB4272DCB3F1804F7BD047
:101C500040F20047C4F20007BB4275D090E000BFDD
:101C60000768D1E900C5D1E902313C6A3A6A61F3FB
:101C7000071522F480723A623A4652F81C6F26F039
:101C8000F30645EA06014FEA5C0666F34924116053
:101C90003C62116821F00C01116066E00368D1E933
:101CA00000E6D1E902C11C6A1A6A360222F48052A7
:101CB0001A621A4652F81C5F4FF2FF07BE4325F422
:101CC000734561F30F364FEA5E0746EA050167F395
:101CD0004D3411601C621EE00368D1E900E6D1E9D1
:101CE00002C11C6A1A6A360222F010021A621A46EF
:101CF00052F8185F4FF2FF07BE4325F4734561F3B6
:101D00000F3624F0A0040EF00A0746EA050144EA63
:101D1000071711601F6211684FEA0C2321F440611C
:101D2000116022E00121002280F83C200846704723
:101D300042F60047C4F20107BB4205D040F6000757
:101D4000C4F20007BB421BD126F00306354324F042
:101D50000A070CF00A066EF3071537449D611F62EF
:101D60009F6927F00C079F618B6811681943116008
:101D70000021BDE8F040002280F83C200846704772
:101D800046F00105E3E70000002804BF012070478A
:101D900010B590F83D1031B9002180F83C10044690
:101DA00000F070F82046022180F83D10016840F2F2
:101DB000FF740B68C4F2000442F6004CA142C4F266
:101DC000010C15DCB1F1804F1AD040F20042C4F290
:101DD0000002914214D0A14218DCB1F1804F1DD015
:101DE00040F20042C4F20002914217D01AE000BF54
:101DF000614505D040F60002C4F200029142EAD1EA
:101E0000826823F070031343A142E6DD614505D0EB
:101E100040F60002C4F20002914203D1026923F4A9
:101E200040731343846923F08002D0F804E0C36850
:101E3000224361450A60CB62C1F828E002D14269C1
:101E4000CCF8302001224A610B69DB0703D00B6913
:101E500023F001030B6180F8462080F83E2080F8D3
:101E60003F2080F8402080F8412080F8422080F810
:101E7000432080F8442080F8452080F83D20002051
:101E800010BD000080B586B0006840F20042C4F288
:101E90000002002190420591CDE90311029101D089
:101EA00006B080BD41F21800C4F20200426842F060
:101EB00002024260426802F002020192019A026844
:101EC00042F008020260006800F0080001900198EA
:101ED0001020CDE9020140F600400491C4F2010057
:101EE00002A9FEF75FFE0420C4F2010001684FF270
:101EF000FF32CFF6FF02114041F0E06141F4006192
:101F000001601D2000210022FEF7E2FF1D20FEF7E8
:101F1000CDFF06B080BD000031B3042908D00829E8
:101F200019BF4FF0450C41234FF0440C402302E011
:101F30004FF0430C3F23C25C10F80C30012A4FF0E5
:101F4000010208BF012B5FD10222082922D00429F7
:101F500050D180F83F2080F843204FEAB103032B93
:101F60004FF0010220D94FE090F83E2090F8423027
:101F7000012A4FF0010208BF012B45D1022280F84F
:101F80003E2080F842204FEAB103032B4FF00102BC
:101F90000AD939E080F8402080F844204FEAB103A4
:101FA000032B4FF001022FD844F2F06C0068C0F60A
:101FB000000C5CF823C0C36801F01F0143EA0C0366
:101FC000C360036A02FA01F123EA01020262026AB3
:101FD000114340F2FF72C4F200029042016215DC2C
:101FE000B0F1804F1ED040F20041C4F2000188429F
:101FF00018D01EE080F8412080F845204FEAB10358
:10200000032B4FF00102CFD91046704742F6004132
:10201000C4F20101884205D040F60001C4F200017B
:10202000884206D1816801F00701062904BF00201B
:102030007047016841F00101016000207047000015
:102040004FEAB102032A4FF0010C42D810B544F216
:10205000007E0368C0F6000E5EF822E0DA6802EA4D
:102060000E02DA6001F01F0E1C6A0CFA0EF224EA6E
:1020700002021A621A6A41F211141A621A6A2242A0
:1020800008D11A6A40F24444224203D11A6822F06D
:1020900001021A60BDE81040A1B108290CD0042942
:1020A0004FF0010119BF80F8411080F8451080F809
:1020B0003F1080F843100AE0012180F8401080F8BA
:1020C000441004E0012180F83E1080F842104FF0E7
:1020D000000C60467047000070B504460068C56893
:1020E0000669B10716D515F0020113D06FF0020191
:1020F0000161012121778069800703D02046FFF725
:1021000055FD05E0204600F061F9204600F082FB15
:1021100000202077700719D515F0040016D020682C
:102120006FF00401016102212177806910F4407F82
:1021300004D02046FFF73AFD06E000BF204600F03D
:1021400045F9204600F066FB00202077300717D5C0
:1021500015F0080014D020686FF008010161042117
:102160002177C069800703D02046FFF71FFD05E0F7
:10217000204600F02BF9204600F04CFB0020207791
:10218000F00619D515F0100016D020686FF0100178
:10219000016108212177C06910F4407F04D02046F6
:1021A000FFF704FD06E000BF204600F00FF92046CF
:1021B00000F030FB00202077F00718BF15F0010079
:1021C00002D1300609D412E020686FF001010161EC
:1021D000204600F0E9FB300609D515F0800006D056
:1021E00020686FF0800101612046FFF7F1FA700668
:1021F00009D515F0400006D020686FF0400101615C
:10220000204600F005FCB00658BF70BD15F0200058
:1022100008D021686FF0200220460A61BDE87040B6
:10222000FFF7D8BA70BD000090F83C30012B04BF16
:10223000022070474FEAB202032A00F2C1802DE962
:10224000F041DFE802F003852F5F00BF026842F62D
:102250000045146A136AC4F2010523F001031362F6
:102260005368D2F818C0AA428D68D1F800E024F073
:10227000020444EA05040BD1CD68D1E9056723F4D3
:10228000407324F00C0425F0040533432C433B43F6
:102290002CF0730747EA0E07536097614968516352
:1022A00084E000BF026842F60045146A136AC4F273
:1022B000010523F4807313625368D2F81CC0AA424C
:1022C0008D68D1F800E024F4007444EA05240FD1AD
:1022D000CD68D1E905872D0240F2FF4624F4406421
:1022E000B5432C4323F4405347EA080543EA05135A
:1022F0002CF0730747EA0E075360D7614968D16332
:1023000054E000BF026842F60046D2F820C0136ACB
:10231000C4F2010623F4805313625368D4690D6834
:10232000D1F808E0B24204D14E6923F4804343EA75
:10233000861324F4E64646EA05265360D6612CF45B
:102340000057496847EA0E33116413622FE000BF5B
:10235000026842F60045146A136AC4F2010523F0CC
:10236000100313625368D2F818C0AA428D68D1F8DE
:1023700000E024F0200444EA05140FD1CD68D1E92F
:1023800005876FF0400624F0C00406EA05152C43CB
:1023900023F4406347EA080543EA85032CF4E64743
:1023A00047EA0E27536097614968916314620021E0
:1023B000BDE8F041002280F83C200846704700BF8D
:1023C0000121002280F83C20084670477047000039
:1023D000002804BF0120704710B590F83D1031B9B6
:1023E000002180F83C10044600F070F820460221DD
:1023F00080F83D10016840F2FF740B68C4F20004DD
:1024000042F6004CA142C4F2010C15DCB1F1804F40
:102410001AD040F20042C4F20002914214D0A1420C
:1024200018DCB1F1804F1DD040F20042C4F200022E
:10243000914217D01AE000BF614505D040F6000276
:10244000C4F200029142EAD1826823F07003134380
:10245000A142E6DD614505D040F60002C4F200026B
:10246000914203D1026923F440731343846923F03A
:102470008002D0F804E0C368224361450A60CB6261
:10248000C1F828E002D14269CCF8302001224A612B
:102490000B69DB0703D00B6923F001030B6180F8A4
:1024A000462080F83E2080F83F2080F8402080F8C9
:1024B000412080F8422080F8432080F8442080F8B2
:1024C000452080F83D20002010BD0000704700002E
:1024D00090F83C30012B04BF022070474FEAB20253
:1024E000032A00F2F1802DE9F043DFE802F003A5B2
:1024F0003B7500BF036842F600461D6A1A6AC4F2C3
:10250000010622F001021A621A465C6852F818CFDE
:10251000B3428E68D1F800E025F0020545EA0605D1
:102520000CD1CE68D1E9057824F4407425F00C056F
:1025300026F004063C43354344EA08042CF07307B4
:1025400047EA0E075C609F614F6809695F631D621F
:102550009F6947F008079F619F6927F004079F6103
:10256000A6E000BF036842F600461D6A1A6AC4F27C
:10257000010622F480721A621A46D3F804C052F897
:102580001CEFB3428E680C6825F4007545EA0625F9
:102590000FD1CE68D1E90598360240F2FF4725F405
:1025A0004065BE4335432CF4405748EA090647EAE4
:1025B000061C2EF073072743C3F804C0DF614F6881
:1025C0000969DF631D62DF6947F00807DF61DF69C2
:1025D00027F00407DF616BE0036842F60047D3F899
:1025E00020C01A6AC4F2010722F480521A621A4605
:1025F0005C6852F81C5FD1F800E08E68BB4204D1E1
:102600004F6924F4804444EA87142CF4005747EAC5
:10261000063725F4E64646EA0E265C60DE614E6823
:1026200009691E641F62DF6947F40067DF61DF69C3
:1026300027F48067DF613AE0036842F600461D6ACE
:102640001A6AC4F2010622F010021A621A46D3F87E
:1026500004C052F8184FB3428E68D1F800E025F05C
:10266000200545EA06150FD1CE68D1E905986FF02F
:10267000400725F0C00507EA061635432CF44067ED
:1026800048EA090647EA860C24F4E64444EA0E27A1
:10269000C3F804C09F614F6809699F631D629F6909
:1026A00047F400679F619F6927F480679F61090273
:1026B0001368194311600021BDE8F043002280F83F
:1026C0003C200846704700BF0121002280F83C20D2
:1026D00008467047002804BF0120704710B590F8E5
:1026E0003D1031B9002180F83C10044600F070F82C
:1026F0002046022180F83D10016840F2FF740B680B
:10270000C4F2000442F6004CA142C4F2010C15DCF4
:10271000B1F1804F1AD040F20042C4F2000291425F
:1027200014D0A14218DCB1F1804F1DD040F200421C
:10273000C4F20002914217D01AE000BF614505D0F3
:1027400040F60002C4F200029142EAD1826823F00E
:1027500070031343A142E6DD614505D040F6000257
:10276000C4F20002914203D1026923F4407313437F
:10277000846923F08002D0F804E0C36822436145F5
:102780000A60CB62C1F828E002D14269CCF830205F
:1027900001224A610B69DB0703D00B6923F00103B7
:1027A0000B6180F8462080F83E2080F83F2080F8BA
:1027B000402080F8412080F8422080F8432080F8B3
:1027C000442080F8452080F83D20002010BD000006
:1027D000006840F60001C4F20001884218BF70474B
:1027E00080B582B041F21C00C4F2020001680022F0
:1027F00041F0040101600068002100F00400019034
:1028000001981E20FEF764FB1E2002B0BDE8804048
:10281000FEF74CBB70470000C1B1042908D008295D
:1028200014BF41224022825C012A05D016E000BF7D
:102830003F22825C012A11D10222082910D00429EA
:1028400014BF80F8412080F83F200BE090F83E2034
:10285000012A03D1022280F83E2003E001207047C4
:1028600080F84020006801F01F010122036A8A40BD
:1028700023EA02010162036A42F64441C4F2010103
:102880001A43A1F14403984202620FD040F2FF7153
:10289000C4F20001884213DCB0F1804F1CD040F23A
:1028A0000041C4F20001884216D01CE00A6842F4DC
:1028B00000420A6040F2FF71C4F200018842EBDD81
:1028C00042F60041C4F20101884205D040F6000101
:1028D000C4F20001884206D1816801F0070106298F
:1028E00004BF00207047016841F001010160002031
:1028F0007047000080B5026801F01F0C012303FA45
:102900000CFE136A42F6444C23EA0E03C4F2010C97
:102910001362D2F820E0ACF144039A42C2F820E0FE
:1029200013D15CF824EC41F211131EEA030F0CD111
:10293000D2F820E040F244431EEA030F05D1DCF850
:10294000003023F40043CCF80030D2F820C041F22C
:1029500011131CEA030F06D1D2F820C040F2444301
:102960001CEA030F14D0082918D004290AD0002922
:102970004FF0010114BF80F8411080F83E10002094
:1029800080BD00BF012180F83F10002080BD00BF46
:10299000136823F0010313600829E6D1012180F8B0
:1029A0004010002080BD00000068B0F1804F18BFCB
:1029B0007047B0B540F27805C2F20005E8682978A2
:1029C0000130E86021B16968884211D3002403E036
:1029D000A96888420CD3012440F60000C4F201002B
:1029E0004FF400412246FEF7EDF900202C70E8601C
:1029F000BDE8B040704700004FEAB101032984BF31
:102A000000207047006800EB8100406B70470000B9
:102A100070470000FEE70000B0B584B040F29000BF
:102A200042F20041C2F20000C4F2010100244FF45E
:102A30006022012504730475C261C0E9001484603A
:102A40000561FDF749FF002818BFFDF763FD102061
:102A5000CDE9010540F29000C2F2000001A9039403
:102A6000FDF700FE002818BFFDF754FD04B0B0BD0F
:102A70002DE9F04F85B04FF0000941F21800CDE983
:102A80000399CDE90199C4F20200016840F60008FB
:102A900041F0100101600168C4F2010801F0100169
:102AA00000910099016808F5006741F0200101607C
:102AB0000168002201F020010091009901684FF4A3
:102AC000005441F004010160016801F0040100912B
:102AD0000099016841F00801016000684FF400515D
:102AE00000F00800009000983846FEF76BF9404669
:102AF00048F2FF010022FEF765F908F580652846D7
:102B000040F60271002240F6027BFEF75BF901AE4F
:102B100001944FF0010A022438463146CDE902A95A
:102B20000494FEF73FF848F2FF00CDE9010A404661
:102B30003146CDE90394FEF735F828463146CDE914
:102B400001BACDE90394FEF72DF84FF48050CDE99A
:102B5000010928463146CDF80C90FEF723F84FF4D2
:102B60008070CDE90104404631460494FEF71AF81E
:102B700005B0BDE8F08F000010B58EB040F2C00087
:102B80000021C2F2000009240D91CDE90B11099139
:102B9000CDE90711CDE90511CDE90311CDE9011109
:102BA0004FF0804241F61F43C0E9021401618021C9
:102BB000C0E900238161FEF753FE002818BFFDF72E
:102BC000A9FC4FF480500A9040F2C000C2F200000D
:102BD0000AA9FEF71BFF002818BFFDF79BFC40F277
:102BE000C000C2F20000FFF7F3FB002818BFFDF79A
:102BF00091FC40F2C0000024C2F2000008A9CDE917
:102C00000844FEF7E9FD002818BFFDF783FCCDE975
:102C100001440394059440F2C004C2F2000401A9E7
:102C200020460022FFF700FB002818BFFDF772FCCA
:102C30002068816941F0080181612046FFF746FC68
:102C40001C2001210022FEF743F91C20FEF72EF97B
:102C50000EB010BD70B58CB040F2004540F20810C7
:102C6000C4F200050021C2F200004FF6FF72CDE968
:102C70000411C0E90051C0E9021201618161FFF74E
:102C800083F8002818BFFDF745FC40F20810C2F297
:102C9000000004A9FEF7A0FD002818BFFDF73AFCCC
:102CA00040F2081400260120C2F20004CDE901061A
:102CB00069462046002200960396FEF7A3FF0028EF
:102CC00018BFFDF727FC2068CDE90A66A8420996DF
:102CD000089601D00CB070BD41F21800C4F2020099
:102CE000416841F002014160416801F00201079131
:102CF0000799016841F008010160006808A900F027
:102D0000080007900798102008900020CDE90900DE
:102D100040F60040C4F20100FDF744FF0420C4F275
:102D2000010001684FF2FF32CFF6FF02114041F07F
:102D3000E06141F4006101601D2000210022FEF7E6
:102D4000C7F81D20FEF7B2F80CB070BDB0B590B05A
:102D500040F6000540F25010C4F200050021C2F216
:102D600000004FF6FF72CDE90811CDE90611CDE95B
:102D70000411C0E90051C0E9021201618161FFF74D
:102D8000A9FC002818BFFDF7C5FB40F25010C2F2A5
:102D9000000008A9FEF720FD002818BFFDF7BAFBC8
:102DA000602001900020CDE902000420059040F24F
:102DB0005010C2F2000001A90022FFF789FB002891
:102DC00018BFFDF7A7FB40F250140220C2F2000426
:102DD000039001A920460422FFF77AFB002818BFC0
:102DE000FDF798FB21680020A942CDE90E000D9067
:102DF0000C9001D010B0B0BD41F21800C4F2020036
:102E0000016841F00801016000680CA900F00800A9
:102E10000B900B98C0200C9002200D900F9005F5A0
:102E20008230FDF7BFFE10B0B0BD0000FEE700002D
:102E3000FEE7000070B540F600440025C4F201042E
:102E400045F0B000C0B200F059FA102000F056FA78
:102E50000020002600F052FA20464FF400710122B3
:102E6000FDF7B0FF20464FF480710122FDF7AAFF65
:102E700020464FF400710022FDF7A4FF20464FF4D6
:102E800080710022FDF79EFF782000F029F8402095
:102E900000F026F8002000F023F820464FF480715F
:102EA0000022FDF78FFF20464FF400710022FDF74E
:102EB00089FF20464FF480710122FDF783FF2046F1
:102EC0004FF400710122FDF77DFF701C46B2B6F190
:102ED000FF3FC1DCE8B20135072828BF70BDAFE76E
:102EE000B0B540F60044C4F201040546C2092046CC
:102EF0004FF40071FDF766FF20464FF48071012208
:102F0000FDF760FF20464FF480710022FDF75AFF65
:102F1000C5F3801220464FF40071FDF753FF2046A1
:102F20004FF480710122FDF74DFF20464FF4807170
:102F30000022FDF747FFC5F3401220464FF4007111
:102F4000FDF740FF20464FF480710122FDF73AFF64
:102F500020464FF480710022FDF734FFC5F30012C4
:102F600020464FF40071FDF72DFF20464FF480718D
:102F70000122FDF727FF20464FF480710022FDF764
:102F800021FFC5F3C00220464FF40071FDF71AFF80
:102F900020464FF480710122FDF714FF20464FF4C4
:102FA00080710022FDF70EFFC5F3800220464FF42A
:102FB0000071FDF707FF20464FF480710122FDF7F5
:102FC00001FF20464FF480710022FDF7FBFEC5F3A0
:102FD000400220464FF40071FDF7F4FE20464FF406
:102FE00080710122FDF7EEFE20464FF48071002231
:102FF000FDF7E8FE05F0010220464FF40071FDF7F1
:10300000E1FE20464FF480710122FDF7DBFE2046F1
:103010004FF480710022FDF7D5FE20464FF4007179
:103020000122FDF7CFFE20464FF480710122FDF70B
:10303000C9FE20464FF480710022BDE8B040FDF784
:10304000C1BE0000B0B586B06420FDF797FD00203A
:10305000CDE90400CDE9020041F21800C4F20200FB
:10306000016840F6004441F0080101600068C4F2C4
:10307000010400F00800019001984FF48070029064
:1030800001200390032002AD059020462946FDF75C
:1030900089FD4FF40070029020462946FDF782FD1D
:1030A00020464FF480710122FDF78CFE20464FF43C
:1030B00000710122FDF786FEAE2000F01FF9D52039
:1030C00000F01CF9802000F019F9A82000F016F992
:1030D0003F2000F013F9D32000F010F9002000F099
:1030E0000DF9402000F00AF9A12000F007F9C820EE
:1030F00000F004F9DA2000F001F9122000F0FEF8E7
:10310000812000F0FBF8CF2000F0F8F8D92000F083
:10311000F5F8F12000F0F2F8DB2000F0EFF83020B5
:1031200000F0ECF8A42000F0E9F8A62000F0E6F8A2
:103130008D2000F0E3F8142000F0E0F8AF2000F05C
:10314000DDF8FFF777FE06B0B0BD00002DE9F047CF
:1031500080466FF0070000EBC1056FF0510000EBF7
:103160004800C0B2A2F12004EEB200F0C7F8300966
:1031700000F11009484600F0C1F805F0080A504671
:1031800000F0BCF8E1B244F2EE02C0F60002080121
:10319000105C02EB011600F0F3F87078B778F47861
:1031A000357900F0EDF8384600F0EAF8204600F0F6
:1031B000E7F8284600F0E4F8707900F0E1F8B0791B
:1031C00000F0DEF8F07900F0DBF86FF0500000EB73
:1031D0004800C0B200F092F8484600F08FF8504620
:1031E00000F08CF8307A00F0CBF8707A00F0C8F874
:1031F000B07A00F0C5F8F07A00F0C2F8307B00F049
:10320000BFF8707B00F0BCF8B07B00F0B9F8F07B41
:10321000BDE8F04700F0B4B8002B08BF70472DE9B7
:10322000F04F81B0A3F1010B1C4691468A46074638
:10323000981E002642F210785D4600901CE000BF08
:103240000120B9FBF0F04CF6CD41CCF6CC41A0FB0F
:103250000112D20802EB8202A0EB420006EB0A0147
:1032600040F03000C2B2C9B23846FFF76FFF0136F6
:10327000A642A5F1010527D05E45E1D00098801B4C
:10328000032801D2012007E025F00301012000BF3F
:10329000043900FB08F0FBD1F143214411F0030194
:1032A000CFD0012904D100EB80004000C9E700BF66
:1032B0004FF47A72424302294FF0640108BF00FBC9
:1032C00001F21046BDE700BF01B0BDE8F04F704706
:1032D000F0B581B0144612786AB10D460646002753
:1032E0007819C1B2D2B23046FFF730FF0137F8B2D9
:1032F000225C002AF4D101B0F0BD0000B0B540F668
:103300000044C4F20104054620464FF40071012236
:10331000FDF758FD20464FF480710122FDF752FD64
:1033200020464FF400710022FDF74CFD20464FF47B
:1033300080710022FDF746FD7820FFF7D1FD0020C7
:10334000FFF7CEFD2846FFF7CBFD20464FF48071F6
:103350000022FDF737FD20464FF400710022FDF7F3
:1033600031FD20464FF480710122FDF72BFD2046F0
:103370004FF400710122BDE8B040FDF723BD00000D
:10338000B0B540F60044C4F20104054620464FF4AF
:1033900000710122FDF716FD20464FF480710122D5
:1033A000FDF710FD20464FF400710022FDF70AFDE5
:1033B00020464FF480710022FDF704FD7820FFF7CE
:1033C0008FFD4020FFF78CFD2846FFF789FD204642
:1033D0004FF480710022FDF7F5FC20464FF4007198
:1033E0000022FDF7EFFC20464FF480710122FDF72B
:1033F000E9FC20464FF400710122BDE8B040FDF722
:10340000E1BC00007047000070470000FDF7E6BC1B
:10341000B0B594B04FF48030002401250B900AA879
:10342000CDE91244CDE91044CDE90E44CDE90C4478
:103430000994CDE90744CDE90544CDE90344CDE93C
:1034400001440A951194FDF7ADFFB8B141F20004B3
:10345000C4F20104EFF3108072B600BF20460421CD
:103460000022FDF7AFFC4FF47A70FDF787FB204692
:1034700004210122FDF7A6FCF0E700BF0F20CDE9F3
:1034800005054FF4E060CDE9080405A80021079484
:10349000FDF758FEB0B141F20004C4F20104EFF3AD
:1034A000108072B6204604210022FDF78BFC4FF4F9
:1034B0007A70FDF763FB204604210122FDF782FCB0
:1034C000F0E700BF022001900020039001A8FDF763
:1034D000B7FDB8B141F20004C4F20104EFF310806B
:1034E00072B600BF204604210022FDF76BFC4FF4AA
:1034F0007A70FDF743FB204604210122FDF762FCB0
:10350000F0E700BF00204FF0C0610022FDF720FF70
:1035100014B0B0BD7047000040F2C000C2F200001D
:10352000FEF7DABD40F20810C2F20000FEF7D4BD8B
:1035300040F25010C2F20000FEF7CEBDFEE70000E0
:1035400041F20004C4F20104FDF756FCA4F5006545
:1035500028464FF4004100224FF00008FDF732FCEE
:10356000FFF756FFFFF784FAFFF7F0FBFFF704FBC6
:10357000FFF752FAFFF76EFBFFF764FD40F290068B
:10358000C2F200063046FCF7DDFF49F64040FCF78A
:10359000BDFF3046FDF78AFA3046FDF721F900F00D
:1035A0003BFD00F0EDFC46F26663CCF20A034FF0FF
:1035B000663200F0F9FA0023C3F63073002200F0FF
:1035C000F3FA47F6E1224EF24713CAF61462C3F645
:1035D000F67300F0E5F84FF6225249F6E043C7F2E1
:1035E000F652C3F6717300F083F90023C4F2380376
:1035F000002200F0D5F80023CCF27403002200F082
:10360000CFF800F09BF80746FCF768FFFFF712FCC5
:1036100046A2012001210126FFF75AFE45A2022001
:103620000121FFF755FE384600F0D6FC0246022085
:1036300005210323FFF7F0FD40F20000C2F2000075
:10364000C0E9006640F2780740F2C000C2F200070D
:10365000C2F20000C7E90166FEF7A0F940F20816C1
:10366000C2F200066FF0020914E000BF28460721ED
:103670000022FDF7A7FB28464FF400510122FDF779
:10368000A1FB7A69012005210423FFF7C5FD9620DF
:10369000FDF774FA20464FF4005187F80180FDF7DA
:1036A00089FB0120FCF76EFE30460021FEF7C8FCC6
:1036B00030680021C0F82480C0F810903046FEF732
:1036C0002BFCF8B97D2000BFFDF758FA3046FEF715
:1036D000C3F80028CAD1306800698007C6D5787859
:1036E0000A28C3D820464FF40051FDF763FB7878D1
:1036F000012101307870C2B204200123FFF78CFD54
:103700000120E1E7EFF3108072B600BF20460421EC
:103710000022FDF757FB4FF47A70FDF72FFA204691
:1037200004210122FDF74EFBF0E700BF4453542073
:1037300000000000544D50200000000021F0004225
:1037400001F00043A2F16052B2F5801F28BFD2F110
:103750007F6C0BD95FEA001C43EAC20242EB507057
:1037600018BF704728BF20F001007047B2F5801FD6
:10377000BCBF184670474FEA410C1CF5001F02D22F
:10378000084600F0A2BC70B500F0B8FA000000894D
:10379000FFF7F6BF4FF00040A0F580007047000033
:1037A00010B591EA030F48BF83F0004300F1028394
:1037B000841A71EB030C05D2121943EB0C03001BA6
:1037C00061EB0C014FEA1154A4EB135CDFF81CE130
:1037D0001EEA430F18BF9EEA445F00F0748021EA9E
:1037E000045123EA0E0343F48013DCF1200E32D39C
:1037F00022FA0CFE10EB0E0023FA0CFE41EB0E0138
:10380000CCF1200E03FA0EFE10EB0E00CCF1200ED0
:1038100051F10001B1F5801F32D201EB045112FACF
:103820000EF2BDE8104058BF7047401C38BF5FEA39
:10383000420218BF7047002814BF20F0010041F178
:1038400000014FEA410313F5001F38BF7047A1F193
:10385000C04100F0A1BA012A43EB0302ACF1200CF5
:10386000DCF11F0E32BF4FF0000E23FA0CF310EB09
:10387000030041EB0451B4EB115FD0D0A1EB045134
:1038800001F58011490801EB04515FEA30000ED3C5
:1038900050F1000038BF12FA0EFE08D1BDE810400A
:1038A000C9E7401C38BF5FEA4202CAD1C3E7BDE89E
:1038B00010404FEA410313F5001F38BF7047A1F1D4
:1038C000C04100F069BA9EEA445F08D011EA5E0F79
:1038D000BDE8104004BF01F0004100207047BDE882
:1038E000104070B500F00AFA64FBBE3E0000E0FF35
:1038F0002DE9C04130B4DFF8A8C23CEA111418BF6A
:103900003CEA131400F0F0801CEA111481EA03056C
:1039100044EAD57418BF1CEA131500F0CB80A4EB61
:10392000050404F17F7404F500344FF0004545EAC6
:10393000C12145EAC32341EA505143EA52534FEAB9
:10394000C0204FEAC222994208BF904200F0A080F6
:103950004FEA13650FF24816765D4FEA134506FBF2
:1039600005F7C7F1807706FB07F74FEAD737A7FBC4
:1039700003687642A7FB06CEC8F5803838BFA8F1A9
:10398000010807FB08E6A6FB028C4FF0000EE6FBE1
:1039900003CED8F100086FEA0C0C5CF1000C6FEA62
:1039A0000E0E4EF1004EA6FB0C584FF00007E6FB42
:1039B0000E87A1FB08C6A0FB07CE16EB0E064FF044
:1039C000000545F10005E1FB076515F1E04E7EBFFE
:1039D000A4F580345FEA46066D4116F1800745F193
:1039E00000054FEA172747EA05674FEA15254FEA12
:1039F0000666A6F1DE46B6F1805F20D9384605EBB3
:103A0000C47124F0010C01EB0C11BCF1FE6F02D863
:103A1000F0BCBDE8008124425CBF01F5801E9EEA37
:103A2000C47F02D4F0BCBDE80081244200F139809B
:103A3000A1F1C041F0BCBDE8004100F0ADB94FEAD2
:103A4000D02040EA41504FEAD1214FEAD22242EA47
:103A500043524FEAD323A7FB028607FB036605FB0D
:103A600002661EEA0E0F58BFA6EB0056B6EB0056D4
:103A70004FEA520E4EEAC37E18EB0E0E56EB530E73
:103A8000BCD518EB02085E417F1C55F10005B5E777
:103A90004FF480154FF000074FF000064FF000087C
:103AA000ACE701F1C04101F000414FF00000F0BC73
:103AB000BDE800810CEA131511EA0C1F00D00CE0E0
:103AC00013EA0C1F00F025804FF0000081EA03018B
:103AD00001F00041F0BCBDE80081F0BCBDE8004150
:103AE00081EA030100F058B9F0BCBDE8004170B5AF
:103AF00000F004F9097EFC3E00F007B84FF000002A
:103B000081EA030101F00041704781EA030100F0FE
:103B100043B9F0BCBDE8004122494FF000007047B6
:103B2000FFFDFBF9F7F5F4F2F0EEEDEBE9E8E6E482
:103B3000E3E1E0DEDDDBDAD8D7D5D4D3D1D0CFCD09
:103B4000CCCBCAC8C7C6C5C4C2C1C0BFBEBDBCBB42
:103B5000BAB9B8B7B6B5B4B3B2B1B0AFAEADACAB3D
:103B6000AAA9A8A8A7A6A5A4A3A3A2A1A09F9F9E17
:103B70009D9C9C9B9A9999989797969595949393C9
:103B8000929191908F8F8E8E8D8C8C8B8B8A898960
:103B900088888787868585848483838282818180E3
:103BA0000000FF070000F87F70B5DFF848C11CEA8D
:103BB000111E1EBF1CEA13159EEA0C0F95EA0C0F8E
:103BC00000F06F8081EA03044EEAD47EAE4421EA1D
:103BD0004C1123EA4C1341F4801143F48013AEF1ED
:103BE0007F7EA1FB024CA0FB0365361955EB0C054B
:103BF000A1FB034C4CF10003A0FB021C16EB0C06CE
:103C0000654153F10003094218BF46F0010613F461
:103C1000007F0BD14FEA03314FEA053041EA1551DD
:103C200040EA165034036FF003020AE04FEAC32162
:103C30004FEAC52041EA555140EA5650F4026FF070
:103C4000020202EB2E4201EB025585EACE710AD048
:103C50005FEA440C18BF24F0004450F1000041F129
:103C6000000120EAD47040F2FE7C624500D270BDB3
:103C7000A84214BF4FF080444FF04044002E08BFCC
:103C80000024BEF1806FA8BFA1F1C041BDE8704023
:103C900080F2828001F1C04101F000414FF000004C
:103CA00070470CEA13159EEA0C0F18BF95EA0C0F2B
:103CB00006D081EA030E4FF000000EF0004170BD07
:103CC00000F01CF88900013E00F007B800F009B8C8
:103CD0004FEA430C5FEA5C5C08D081EA030100F024
:103CE0005BB84FEA410C5FEA5C5CF6D102494FF0E9
:103CF000000070470000FF070000F87F0EF1020E81
:103D00002EF0030E5EF8046B364205D4012A43EB15
:103D1000030515F5001F12D8012841EB010C1CF515
:103D2000001F0CD80ED14FEAD17C0CEB4C0C0CF1DF
:103D3000020C15F5001F08BF4CEBD37C04E04FF0DC
:103D4000080C01E04FEAD37C0CEB4C0526FA05F693
:103D500006F00706B6F1040C06D20EEB860CBDE8A1
:103D600070404CF0010C6047DFE80CF0090B0202D8
:103D70004FF00041A1F500214FF0000070BD194641
:103D80001046012851EB010418BFD4F5001484BF7C
:103D9000002001F0004170BD0808A0F500114FEAB5
:103DA0003101704710B591EA030F48BF83F000431B
:103DB0003FF5FEAC841A71EB030C07D28CF0004C7B
:103DC000121943EB0C03001B61EB0C014FEA115479
:103DD000A4EB135CDFF8A4E11EEA430F18BF9EEAD0
:103DE000445F00F0B48021EA045123EA6E0352429A
:103DF000C3EB6E0338BF5B1EDCF1200E25D322FA25
:103E00000CFE10EB0E0043FA0CFE41EB0E01CCF160
:103E1000200E03FA0EFE10EB0E00CCF1200E51F135
:103E2000000129D401EB045112FA0EF2BDE8104052
:103E300058BF7047401C1CBFB2F1004F70470028AC
:103E40000CBF491C20F00100704712EB020E43EB3F
:103E5000030218BF4FF0010E4EEA4202ACF1200CF3
:103E6000DCF11E0E56D943FA0CFE10EB0E00CCF11D
:103E70001E0E51F1FF31D5D50EF1010E12FA0EFED4
:103E8000404141EB010101EB445C5FEA5C5C10D90D
:103E900001EB045110EBDE7038BFBEF1004FBDE8FE
:103EA000104018BF704700280CBF491C20F00100CB
:103EB000704734D24FEAD42C24F4006411F5001179
:103EC0001BD0B1FA81F20B3AA41AA41ED2F120033E
:103ED000914030FA03F31943904001EBCC7101EBB0
:103EE0000451002CBDE81040A8BF704701F1C0414B
:103EF00001F000414FF000007047B0FA80F310FA73
:103F000003F102D1BDE810407047E41A173C4805A0
:103F1000C90AE2E701EB0451BDE8104070474910BF
:103F20004FEA300001EB0451BDE8104002E04FF0D1
:103F3000000170474A0008BF0042F8D0B2F5001FE8
:103F400028BF704701F000414FF0000070479EEA23
:103F5000445F07D011EA5E0FBDE8104004BF0021A6
:103F600000207047BDE8104070B5FFF7C7FE00BFE6
:103F700040DFF63E104683F0004170470000E0FF4E
:103F800043004FEAD30C4FEA3C0C43401FBF4007AD
:103F90000CF1605113F0FE4F70471CF0006F03D11D
:103FA0000CF00041002070470CF0004343EA5070D1
:103FB00040EACC0010B500F042F800BF00000092CB
:103FC0004FEA0001FFF7E8BE4FF00041A1F50021E4
:103FD0004FF0000070470000C10DD1F19E0206DBDA
:103FE0004FEA002343F0004323FA02F070470042F7
:103FF00007D54FEA4001B1F1FE4F02D24FF0000069
:10400000704710B500F01BF84992248000207047DB
:104010006FEA200070470000B0FA80F310FA03F254
:10402000C3F19D030AD0D90501EB1220530638BF16
:10403000704700F1010008BF20F0010070470EF149
:10404000020E2EF0030E5EF8044B244204D44FEA15
:104050004102B2F17F4F11D84FEA4003B3F17F4FD5
:104060000CD80ED14FEAD07C0CEB4C0C0CF1020CAE
:10407000B2F17F4F08BF4CEBD17C04E04FF0080C4D
:1040800001E04FEAD17C0CEB4C0324FA03F404F07A
:104090000704B4F1040C06D20EEB840CBDE810400A
:1040A0004CF0010C6047DFE80CF0070802024FF00B
:1040B0000040A0F5800010BD0846420018BFD2F1B4
:1040C000807288BF00F0004010BDFF2141EAD0504F
:1040D000C00570470000000000000000010203045A
:1040E00006070809000000000102030401020000A5
:1040F00000000000000000000000000000000000C0
:1041000000F8000000000000003330000000001044
:104110000C06100C0600000000000000000040C06B
:104120007840C0784000043F04043F04040000705D
:1041300088FC08300000001820FF211E0000F00855
:10414000F000E018000000211C031E211E0000F0FA
:104150000888700000001E21232419272110101642
:104160000E00000000000000000000000000000041
:1041700000E01804020000000007182040000002C0
:104180000418E00000000040201807000000404034
:1041900080F0804040000202010F01020200000096
:1041A00000F0000000000101011F010101000000FA
:1041B00000000000000080B070000000000000005F
:1041C00000000000000000010101010101010000E8
:1041D000000000000000003030000000000000007F
:1041E000000080601804006018060100000000E074
:1041F00010080810E000000F102020100F00001021
:1042000010F8000000000020203F20200000007077
:10421000080808887000003028242221300000306F
:104220000888884830000018202020110E00000067
:10423000C02010F8000000070424243F240000F8E8
:104240000888880808000019212020110E0000E0CD
:10425000108888180000000F112020110E0000386F
:104260000808C83808000000003F00000000007087
:10427000880808887000001C222121221C0000E010
:1042800010080810E0000000312222110F00000089
:1042900000C0C0000000000000303000000000003E
:1042A00000800000000000008060000000000000AE
:1042B0008040201008000001020408102000404047
:1042C000404040404000040404040404040000088A
:1042D000102040800000002010080402010000703F
:1042E00048080808F0000000003036010000C03027
:1042F000C828E810E0000718272423140B0000004A
:10430000C038E0000000203C23020227382008F8D3
:10431000888888700000203F202020110E00C030C7
:10432000080808083800071820202010080008F89E
:1043300008080810E000203F202020100F0008F897
:104340008888E8081000203F20202320180008F863
:104350008888E8081000203F200003000000C030DB
:1043600008080838000007182020221E020008F85C
:1043700008000008F808203F210101213F20000823
:1043800008F8080800000020203F2020000000005E
:104390000808F8080800C08080807F00000008F846
:1043A00088C028180800203F20012638200008F87F
:1043B000080000000000203F20202020300008F8E6
:1043C000F800F8F80800203F003F003F200008F800
:1043D00030C00008F808203F200007183F00E01018
:1043E00008080810E0000F10202020100F0008F827
:1043F00008080808F000203F210101010000E0103A
:1044000008080810E0000F18242438504F0008F85E
:10441000888888887000203F2000030C30200070BE
:104420008808080838000038202121221C001808BC
:1044300008F8080818000000203F2000000008F8D5
:1044400008000008F808001F202020201F0008781E
:10445000880000C83808000007380E010000F8087E
:1044600000F80008F800033C0700073C03000818A8
:1044700068808068180820302C03032C302008380E
:10448000C800C83808000000203F200000001008C5
:104490000808C8380800203826212020180000000D
:1044A00000FE020202000000007F40404000000CBD
:1044B00030C000000000000000010638C00000020B
:1044C0000202FE000000004040407F0000000000AB
:1044D00004020202040000000000000000000000CE
:1044E00000000000000080808080808080800002CA
:1044F00002040000000000000000000000000000B6
:104500008080808000000019242222223F2008F8A9
:10451000008080000000003F112020110E000000EC
:10452000008080800000000E11202020110000007B
:1045300000808088F800000E112020103F2000002D
:10454000808080800000001F222222221300008031
:1045500080F0888888180020203F2020000000007C
:10456000808080808000006B94949493600008F8B1
:10457000008080800000203F210000203F2000803C
:104580009898000000000020203F2020000000003C
:1045900000809898000000C08080807F000008F8AC
:1045A000000080808000203F24022D302000000881
:1045B00008F8000000000020203F2020000080803C
:1045C000808080808000203F20003F20003F80804E
:1045D000008080800000203F210000203F2000005C
:1045E000808080800000001F202020201F0080800D
:1045F00000808000000080FFA12020110E0000003C
:10460000008080808000000E112020A0FF8080802C
:1046100080008080800020203F21200001000000D9
:1046200080808080800000332424242419000080AE
:1046300080E0808000000000001F202000008080BB
:10464000000000808000001F202020103F2080807C
:1046500080000080808000010E300806010080800C
:104660000080008080800F300C030C300F00008031
:104670008000808080000020312E0E31200080805C
:1046800080000080808080818E701806010000808C
:104690008080808080000021302C222130000000AA
:1046A0000000807C020200000000003F404000004B
:1046B0000000FF00000000000000FF0000000002FA
:1046C000027C800000000040403F00000000000627
:1046D00001010202040400000000000000000203C7
:1046E0000405060708090A0B0C0D0E0F1010000038
:1046F000020000000400000008000000100000009C
:10470000FDFFFFFFFBFFFFFFF7FFFFFFEFFFFFFFD7
:10471000FFFDFFFFFFFBFFFFFFF7FFFFFFEFFFFFC7
:104720004047000800000020180000005001000869
:104730005847000818000020880700007001000892
:10474000F4010000F401000001000000100000006E
:0847500000127A0000000000D5
:04000005080000ED02
:00000001FF
